:020000040800F2
:10000000105A00209D0100089D4A0008594300082D
:10001000994A0008ED160008797B000800000000EE
:10002000000000000000000000000000E15D00088A
:10003000B117000800000000D14C000851760008FC
:10004000B7010008B7010008B7010008B7010008B0
:10005000B7010008B7010008B7010008B7010008A0
:10006000B7010008B7010008B7010008B701000890
:10007000B7010008B7010008B7010008B701000880
:10008000B7010008B7010008B7010008B701000870
:10009000F1160008B7010008FD160008B7010008B6
:1000A000B7010008B7010008B7010008B701000850
:1000B000B701000845770008B7010008B70100083C
:1000C000B7010008B7010008B7010008B701000830
:1000D000B7010008B7010008B7010008B701000820
:1000E000B7010008B7010008B7010008B701000810
:1000F000697700085D770008B7010008A5170008B8
:10010000B7010008B7010008B7010008B7010008EF
:10011000AD790008B979000851770008B7010008E7
:10012000B7010008B7010008B7010008B7010008CF
:10013000B70100080000000000000000B70100083F
:10014000B70100080917000815170008B7010008D3
:10015000B7010008B7010008B7010008B70100089F
:10016000B7010008B7010008B7010008B70100088F
:10017000B7010008B70100080000000000000000FF
:10018000B7010008B7010008DFF80CD000F0ACFEA2
:1001900000480047617C0008105A0020064880474C
:1001A00006480047FEE7FEE7FEE7FEE7FEE7FEE75C
:1001B000FEE7FEE7FEE7FEE7317700088901000869
:1001C0002DE9F05F0546002092469B46884606468C
:1001D000814640241BE0284641464746224600F01F
:1001E00014FD53465A46C01A914110D31146184681
:1001F000224600F0FBFC2D1A67EB01084F46224611
:100200000120002100F0F2FC17EB00094E41201EF6
:10021000A4F10104DFDC484631462A464346BDE8E6
:10022000F09FD2B201E000F8012B491EFBD27047CB
:100230000022F6E710B513460A4604461946FFF7B2
:10024000F0FF204610BD00000FB400B58DB010A91E
:1002500009900B9000914FF0FF300A9000200C9015
:1002600005480690054807906A4609A80F9900F0CE
:1002700003FD0DB05DF814FB950C0008B30C0008ED
:100280002DE9FF5F1D464FF0FF3BD5E90146914642
:100290005F464FF00008A9697F1C01988847296ACA
:1002A000824688470028F6D1BAF1FF3F0CD024F4EB
:1002B000C064002E19DD600614D5BAF12B0F09D0E9
:1002C000BAF12D0F0ED103E0584604B0BDE8F09FFF
:1002D00044F48064A9697F1C01988847761E824691
:1002E000002E02DDBAF1300F03D0B9F1000F26D095
:1002F00032E0A969761E44F400747F1C0198884797
:100300008246002E05DDBAF1780F06D0BAF1580FFB
:1003100003D0B9F1000F10D01EE0B9F1000F02D0E8
:10032000B9F1100F18D1A969761E24F400747F1C4E
:10033000019888478246102002E0082000E00A2049
:10034000814609E008FB0908A969761E44F4007497
:100350007F1C019888478246002E05DD494650469D
:1003600000F075FC0028EDDAE96901988847A005DE
:1003700002D46FF00100A8E7E00725D1600613D58D
:10038000600502D5C8F1000000E0404629680A1D5A
:100390002A600968220501D5087015E0220701D5F9
:1003A000088011E008600FE02868011D29600068DE
:1003B000210502D580F8008006E0210702D5A0F8CB
:1003C000008001E0C0F8008038467EE72DE9FF4F4D
:1003D000087883B09946FF2805D0491C2D2804D001
:1003E0000024002008E000200BE00124F9E700EBE6
:1003F000800003EB4000491C0B78FF2BF7D104B1C0
:10040000404200230293147819461D462D2C01D03A
:100410002B2C04D1521C2D2C13D000240294AA465C
:100420001478FF2C0FD00A25A3FB057801FB05816A
:100430004FF0000C03FB0C11521CE3194AEB0101B5
:10044000EEE70124EAE7814453EA010002D019F5FE
:10045000C87F06DA03980021C0E9001107B0BDE8A3
:10046000F08F0025AE4E2F46DFF8B882184600F018
:1004700016FDCDE90001B9F1000002DAC9F100046E
:1004800000E004460023A74A1AEB030B42EB045A90
:1004900012E0E00707D02A4633463846414600F0CE
:1004A000ECF9074688462A4633461046194600F0BE
:1004B000E4F905460E466410002CEAD1DDE900019E
:1004C000B9F1000F5A46534606DA00F048FA3A46A8
:1004D000434600F044FA05E000F0CFF93A464346BF
:1004E00000F0CBF9029A0AB181F00041039AC2E907
:1004F0000001B3E72DE9FF4F1F468DB0D7E9014654
:100500004FF0FF382E2045464FF000090B90B96997
:100510006D1C0E988847396A824688470028F6D1B4
:10052000BAF1FF3F0AD024F4D064002E11DDBAF1F5
:100530002B0F08D0BAF12D0F0BD102E0404611B0BD
:100540008DE744F48064B9696D1C0E988847824633
:10055000761E6946600501D52D2000E02B208DF820
:10056000000001F1010B0DF1200809E0B9696D1CD3
:100570000E98884782460F9844F40074761E0560F2
:10058000002E02DDBAF1300FF0D00B998A453ED132
:1005900044F0800406E00F99681CA9F1010944F4B5
:1005A00000740860B9696D1C761E0E9888478246F3
:1005B0003028F0D02BE00B998A4505D1200603D4D2
:1005C00044F08004761E18E050460AF0D3FD08B3CC
:1005D0000DF11302761EAAF1300044F40074934525
:1005E00006D20BF8010B200607D5A9F1010003E0A4
:1005F000200602D409F101008146A00502D50F9919
:10060000681C0860B9696D1C0E9888478246002EE8
:10061000D1DC53E0002E51DDBAF1650F02D0BAF102
:10062000450F4BD1A00549D5B9696D1C24F4407420
:10063000761E0E9888478246002E0CDD2B2804D0AB
:10064000BAF12D0F07D144F48074B9696D1C0E986E
:1006500088478246761EE00501D52D2100E02B213A
:1006600008F8011BCDF82C8021E00DF12901761E40
:1006700044F4007488450CD2AAF1300010F0FF0059
:1006800088F8000002D10B99884509D908F10108C2
:1006900006E0E00501D5244801E042F20F708146F2
:1006A000B9696D1C0E98884782460F980560002E28
:1006B00004DD50460AF05EFD0028D6D1F9690E9897
:1006C0008847FF208BF8000088F800000020069083
:1006D00007904B466A4608A906A8FFF777FEA005D3
:1006E00002D46FF001002AE714F0240F0AD0E007CB
:1006F00014D1DDE906123868031D3B600068C0E9CB
:1007000000120BE0DDE9060100F054FA0146E007B3
:1007100004D13868021D3A600068016028460EE77F
:10072000000014400000F03FF1D8FFFF2DE9FE4F1C
:10073000804681EA0300C00F0C46009021F0004182
:1007400023F00045B8EB0200A94105D240462146FE
:1007500090461C460B46024623F00040104347D00B
:10076000270DC7F30A00C3F30A510290401A019003
:1007700040286BDAC3F3130040F4801B00989246C4
:1007800020B10023D2EB030A63EB0B0B019859460F
:10079000C0F14002504600F029FA06460D46504688
:1007A0005946019A00F041FA10EB0800614100241B
:1007B00087EA115284EAE7731A4340D0009A62B381
:1007C000019A012A4FEA075215DC001B61EB020176
:1007D0004FF0004202EA0752CDE90042001C41F509
:1007E000801132462B4600F0BBFA03B0BDE8F08F13
:1007F00040462146F9E7001B61EB0201001C41F570
:10080000801300185B412018A2F5001747EB030185
:1008100040EAD570B6196D4111E06D084FEA360611
:1008200045EAC0754FEA0752001B61EB0201001C4C
:1008300041F5801149084FEA300000195141324614
:100840002B4603B0BDE8F04F00F07BBA00980122C0
:1008500040000023D0EB020263EBE07300982146D6
:100860004FEAE074B8EB000061EB0401E9E783F0C4
:1008700000435BE781F0004158E72DE9FE4F81EA34
:10088000030404F0004421F0004100944FF0000BF9
:1008900023F0004350EA01045ED052EA03045BD027
:1008A000C3F30A54C1F30A552C44A4F2F33401945F
:1008B000A0FB0254C1F3130141F48011C3F31303ED
:1008C00043F4801301FB024400FB034E840A970AA1
:1008D00044EA815447EA8357A4FB076802958D0ACE
:1008E00005FB07854FEA932C04FB0C542705029D5A
:1008F0004FEA065847EA1637B5EB08056EEB070CCA
:10090000870E920E47EA811742EA8312A7FB020183
:10091000B6EB0B0164EB00042B0D43EA0C335E18BD
:1009200044EB1C50DA465146E7FB0201C5F31304C1
:100930004FEA0B3343EA14534FEA0432019C43EA73
:100940000603A4F10C040294009CCDE900B400F06D
:1009500007FA03B0BDE8F08F00200146F9E72DE962
:10096000F04D81EA030404F0004B21F000451446E9
:100970004FF0000A23F0004150EA050220D054EA6B
:1009800001021DD0C5F30A570246C5F31303C1F394
:100990001300C1F30A5640F4801543F48013A7EB0B
:1009A0000608101BD64608F2FD3873EB050002D38B
:1009B00008F1010801E092185B41B8F1000F03DA79
:1009C00000200146BDE8F08D00204FF4801106465E
:1009D00084460EE0171B73EB050705D3121B63EB70
:1009E000050306434CEA010C49084FEA300092180F
:1009F0005B4150EA0107EDD152EA030012D082EACE
:100A0000040083EA0501084305D0101BAB4106D260
:100A10000122002306E000224FF0004302E06FF0C5
:100A2000010253101AEB06004CEB085110EB0A00C0
:100A300041EB0B01BDE8F04D00F083B930B5041E69
:100A400071F1000404DB4FF00044404264EB01010B
:100A5000141E73F1000405DB1C464FF000435242A4
:100A600063EB0403801A994101D3012030BD0020BB
:100A700030BD30B5041E71F1000404DB4FF00044BA
:100A8000404264EB0101141E73F1000405DB1C46B7
:100A90004FF00043524263EB0403101A8B4101D222
:100AA000012030BD002030BD30B5041E71F10004BE
:100AB00004DB4FF00044404264EB0101141E73F16B
:100AC000000405DB1C464FF00043524263EB040375
:100AD000101A8B4101D3012030BD002030BD30B54C
:100AE000041E71F1000404DB4FF00044404264EB4B
:100AF0000101141E73F1000405DB1C464FF0004396
:100B0000524263EB0403801A994101D2012030BDA7
:100B1000002030BD0EB5C10F80EAE0700844CA075E
:100B2000002140F233438DE80E000A460B4600F0E8
:100B300017F903B000BD0EB540F233410291002118
:100B4000CDE900110A460B4600F00AF903B000BDDA
:100B500070B5C1F30A5201F000450024C1F313013E
:100B600040F2FF3341F480119A4201DA002070BD57
:100B700040F233439A42A2F2334203DC524200F085
:100B800044F800E090402C43F1D0404270BD00F0AA
:100B9000004230F000400AD0C10D01F56071C0F391
:100BA000160042EA0151C208400711437047002075
:100BB0000146704701F0004330B421F0004150EA93
:100BC000010206D00A0DA2F56072C1F31301002ADA
:100BD00002DC30BC00207047440F44EAC104C1006D
:100BE000E01830BC00EBC25000F074B8202A04DBDF
:100BF000203A00FA02F1002070479140C2F1200330
:100C000020FA03F3194390407047202A04DB203A6E
:100C100021FA02F00021704721FA02F3D040C2F11C
:100C200020029140084319467047202A06DBCB1763
:100C3000203A41FA02F043EAE07306E041FA02F397
:100C4000D040C2F1200291400843194670473A282B
:100C500000D2303820F02002412A01D3A2F137001F
:100C6000884201D34FF0FF30704700000268114402
:100C70001378016018467047D160044951610449F6
:100C8000116200211161114600F046B96D0C000897
:100C90000D0F0008426842B1016811F8013B23B111
:100CA000521EC0E90012184670470121C160881E1B
:100CB000704742685AB1C368016843B983688B4280
:100CC00005D0491E521CC0E90012002070474FF0A9
:100CD000FF3070470029A8BF7047401C490008BF7B
:100CE00020F00100704710B4B0FA80FC00FA0CF05C
:100CF00050EA010404BF10BC704749B1CCF1200494
:100D000021FA04F411FA0CF118BF01212143084320
:100D1000A3EB0C01CB1D4FEA00614FEA102042BF4C
:100D2000002010BC704700EBC35010440029A4BF42
:100D300010BC7047401C490008BF20F0010010BCE7
:100D4000704710B5141E73F1000408DA401C41F11D
:100D5000000192185B411A4301D120F0010010BD3F
:100D60002DE9F04D92469B4611B1B1FA81F202E0B5
:100D7000B0FA80F220329046FFF738FF04460F4663
:100D800040EA0A0041EA0B0153465A46084313D091
:100D9000114653EA010019D0C8F140025046FFF74E
:100DA00034FF05460E46504659464246FFF71EFFA1
:100DB000084305D0012004E020463946BDE8F08D07
:100DC0000020054346EAE0762C4337430A98630542
:100DD000E40AA0EB08000022FD0A44EA47540A3066
:100DE00002D500200146E9E7010510196941DDE956
:100DF000084500196941BDE8F04DA2E72DE9F04D25
:100E000000231A461B1A8A4103DB00200146BDE875
:100E1000F08DC1F30A52C1F3130141F480154FF074
:100E2000000BD10702D100186D41521E0027044665
:100E300040F2FF11384601EB620A3E468046024608
:100E400000204FF48011FFF7E0FEC2197141BB187A
:100E500046EB0100B4EB030C75EB000C04D3E41A71
:100E600065EB000517460E46241908F101006D4197
:100E700080463428E3DDF91946EB0600091BA8413A
:100E800003D24FF0FF32134601E0002213461BEB62
:100E9000070046EB0A51BDE8F04DFFF752BF0EB513
:100EA00040F2334202920022CDE900221346FFF7BE
:100EB00057FF03B000BD000030B5041E71F10004FF
:100EC00004DB4FF00044404264EB0101141E73F157
:100ED000000405DB1C464FF00043524263EB040361
:100EE0008B4208BF824230BD064C074D06E0E068E9
:100EF00040F0010394E8070098471034AC42F6D361
:100F0000FFF746F9E4B6000804B70008C0B24FF492
:100F1000F05100F097B900002DE9F34F8BB04FF07E
:100F2000000801F10C000C464FF0010B46460DF194
:100F3000080A01906269012101989047051E2DD091
:100F4000252D2CD0216A8847C0B162690121019802
:100F50009047216A88470028F7D1411E62690198AD
:100F6000904700E0761CA1690B988847216A884762
:100F70000028F7D1E1690B988847DBE7A1690B9856
:100F800088470746A84201D1761CD3E7E1690B9850
:100F900088477F1C02D1B8F1000F6FD046E10027CF
:100FA00062693D463946019890472A2804D1626912
:100FB0000121019890470125DFF88492626901219F
:100FC00001989047A0F130010A290AD24F45E5DC8B
:100FD00007EB870100EB4107303FDFD445F01005F8
:100FE000ECE7E90601D46FF000476C280AD04C28E2
:100FF00014D0682815D06A280DD074281CD07A28FF
:101000001AD01DE062690121019890476C2802D036
:1010100045F0040514E045F002050DE045F020051B
:101020000AE06269012101989047682802D045F0E2
:10103000080505E045F400656269012101989047C3
:10104000C4E9015765283DD019DC58287AD00CDC5A
:10105000452837D004DC252826D0412831D131E07D
:1010600046282FD047282CD12CE05B2877D0612848
:1010700028D063287CD0642823D15AE0D0E06F28A0
:1010800048D008DC66281DD067281BD0692821D0ED
:101090006E2816D127E0702845D0732868D07528AF
:1010A00047D078280DD14DE0A1690B9888470546B7
:1010B00025283FF469AFE1690B9888476D1C3FF420
:1010C0006AAFB3E023466A466FF001000B99FFF761
:1010D00011FA9EE045F040006060A80723464FF0FB
:1010E000000236D43EE0E8077FF447AF2068011DD8
:1010F00021600068290501D506701BE7290701D585
:10110000068017E7A90703D5F117C0E9006111E7C9
:1011100006600FE745F040006060A80723464FF0E7
:10112000080216D41EE040F60E0125EA01006060B8
:1011300016E045F040006060A80723464FF00A0221
:1011400007D40FE045F040006060A80708D52346AB
:1011500010226FF001000B99AFF3008059E007E017
:10116000234610226FF001000B99FFF789F850E039
:101170004FF000094F464B46632802D05B2806D04B
:1011800040E0E80601D40120A06001273AE062694E
:101190000121019890475E2805D14FF0010962694D
:1011A000494601989047216939B900210A465346BA
:1011B00043F82120491C0829FADBB0B3216969B939
:1011C000C11700EBD16253110AEB830122F01F0219
:1011D000821A01200B68904003430B606269012171
:1011E000019890475D28E8D1B9F1000F09D000209F
:1011F000514651F82020D24341F82020401C0828B5
:10120000F7DB02AB224600976FF001000B99AFF3BA
:10121000008000280CDA401C08D1BBF1000F05D07B
:101220004FF0FF300DB0BDE8F08FFFE74046F9E723
:10123000E90701D108F1010806444FF0000B79E6F7
:10124000CCCCCC0C7F2801D9002208E0064A02EB66
:101250005002C007127800D1120902F00F020120DB
:10126000904008407047000008B5000870B58C1821
:1012700010F8015B15F0070301D110F8013B2A11AA
:1012800006D110F8012B03E010F8016B01F8016B97
:101290005B1EF9D12B0705D40023521E0DD401F893
:1012A000013BFAE710F8013BCB1A921C03E013F85C
:1012B000015B01F8015B521EF9D5A142D8D3002091
:1012C00070BD0000F0B581B041F2FC04C2F2000430
:1012D0002078002858D040F6FC70C2F20000017857
:1012E000BB2917D0AA2940D141F21822C2F200022C
:1012F00002F11007013002F108030FF2DC31009710
:10130000FEF7A2FF40F6EC40C2F200000168013196
:1013100001602AE0407840B341F21022C2F200029C
:101320001178052921D891B141F21123C2F20003AD
:10133000CF1817F8017C874217D04F1C177041F265
:101340004422C2F2000217785854781C0CE0013194
:10135000117041F24422C2F2000241F211211378CD
:10136000C2F200010870581C107040F6FC70C2F206
:1013700000004FF48071FEF75BFF41F2FD00C2F206
:10138000000000210170217041F20026C2F2000627
:101390003078002800F09D8141F20010C2F2000078
:1013A0000778A7F16B010D2900F28481DFE811F0C5
:1013B0002F000E00820182018201820182010E0053
:1013C00082018201820182018201650041F2F86599
:1013D00041F25464C2F20005C2F200040130C1A11E
:1013E0002A462346FEF730FF722F00F08A806C2FCA
:1013F00040F06081286841F20C21C2F200010860CF
:10140000206841F20821C2F20001086052E14078F0
:101410003138282800F24E81DFE810F02900EE0074
:10142000F4004C014C014C014C014C014C014C01AD
:101430004C014C014C014C014C014C0104014C018C
:101440004C010A01100116011C0122014C014C0142
:101450004C014C014C014C014C014C0128012E0166
:1014600034013A014C014C0140014C01460141F26A
:101470005860C2F200000121C9E040782B382D28C5
:1014800000F21881DFE810F02E0016014A00160164
:101490001601160116011601160116011601160194
:1014A00016011601160116011601590016016500F4
:1014B0001601160171007C0016018200160116014A
:1014C000160116011601160116018E0016011601ED
:1014D0001601160116019A0016011601A600160142
:1014E0001601B2004BF28A60C0F60000AA21002269
:1014F000552308F0C1FC41F20520C2F20000722120
:10150000D7E0286841F22061C2F20001086020683B
:1015100041F21C61C2F200010860CBE04BF28A602C
:10152000C0F60000AA210122552308F0A5FC41F2D3
:101530000520C2F200006C21BBE040F67820C2F228
:1015400000005721017041F21860C2F200006C21C6
:10155000AFE040F67820C2F200005721017041F25E
:101560001860C2F200007221A3E041F21860C2F2DA
:1015700000000021017041F25860C2F2000098E0C2
:1015800040F67820C2F200004E2192E040F678202A
:10159000C2F200005721017040F60450C2F2000070
:1015A000012186E040F67820C2F200005721017048
:1015B00040F6F040C2F2000001217AE040F67820C7
:1015C000C2F200005721017040F6F140C2F2000063
:1015D00001216EE040F67820C2F200005721017030
:1015E00040F60550C2F20000012162E041F2042001
:1015F000C2F2000001215CE041F25860C2F200003A
:10160000022104E041F25860C2F20000032101709F
:101610004BF28A60C0F60000BB210922552308F076
:101620002BFC47E041F25860C2F200000A2140E082
:1016300041F25860C2F200000C213AE041F25860D9
:10164000C2F20000062134E041F25860C2F200000C
:101650000D212EE041F25860C2F200000E2128E078
:1016600041F25860C2F200000F2122E041F25860BE
:10167000C2F2000004211CE041F25860C2F20000F6
:10168000072116E041F25860C2F200000B2110E081
:1016900041F25860C2F2000008210AE041F25860AD
:1016A000C2F20000052104E041F25860C2F20000DD
:1016B0000921017041F20010C2F200004FF4807164
:1016C000FEF7B6FD41F20120C2F2000000210170D8
:1016D000317001B0F0BD00BF256C6620256C66201E
:1016E000256C660025643B2564000000FEE70000D1
:1016F00041F24820C2F2000000F0FEB941F2482059
:10170000C2F2000000F0F8B941F28020C2F20000FD
:1017100000F0F2B941F28020C2F2000000F0ECB912
:10172000B0B58AB041F24821C2F200010446006817
:101730000968884213D041F28021C2F20001096891
:10174000884228D10F200021012210250590069102
:101750000792CDE90011CDE9021104920AE00021BF
:101760000120CDE905110790CDE90011CDE9021165
:10177000049102250121CDE908106946204600F0B8
:10178000A9F8204600F03AFC2046294600F03CF833
:10179000B0FA80F04009C00708BF00F00BF80AB0AB
:1017A000B0BD000041F2B820C2F2000000F0AABCB7
:1017B00070470000EFF3108072B600BFFEE7000034
:1017C000F0B583B08DED000B9DF807009FED0C1B6D
:1017D00080F080008DF8070055EC104BDDE90076B5
:1017E00053EC112B20462946FFF779F900281CBF3E
:1017F00027462E4646EC107B03B0F0BD00BF00BF6D
:101800000000000000000000026B013A012A04D829
:10181000006800F11402002004E000F1340201200D
:101820004FF48021136819431160704710B5D0F848
:1018300000C0D0F830E0AEF1010EBEF1010FDCF8CF
:1018400008E00DD81EF0E05F10D0CEF3016EBEF1BF
:10185000030F11D100F1340101204FF4000235E0F3
:1018600000F1340101204FF480222FE000F1340117
:1018700001204FF4001229E0012000FA0EF0186058
:10188000886828B14B68CC6844EAC303034303E08B
:101890000868CB6843EA40530CEB0E10C0F8803167
:1018A000D1E90413012BC0F8841105D100F5C271F0
:1018B0000B6843F480730B605168C0F88C11126898
:1018C00000F5C071C0F88821002001220B681A437E
:1018D0000A6010BDB0B5026B013A012A2FD846F25A
:1018E0000060C4F20000026842F001020260026877
:1018F00022F47C520260D1F814E0CC694A6A036891
:10190000012C43EA022202600EF01F024FF0010395
:1019100003FA02F2C3696FEA020C23EA0203C3610D
:1019200013D02CBBC36803EA0C03C360CB688C885C
:1019300044EA034300EBCE0423640B4611E0416B01
:1019400041F4802141630120B0BDC3681343C360EB
:101950000B688C8844EA034300EBCE04236401F156
:101960000C038C681B8843EA044300EBCE046364D9
:1019700043688D6943EA0204D1F810E0096A002D3A
:1019800008BF03EA0C0444604369BEF1000F43EA58
:10199000020408BF03EA0C040129446102D1C169B1
:1019A0001143C161016821F0010101600020B0BD57
:1019B0007047000010B5046B013C012C0CD8D0F826
:1019C00000C079B1DCF81040A4070FD100F1340158
:1019D00001204FF4001270E000F1340101204FF4B7
:1019E00080226AE0DCF80C40A4076AD0046804EBAB
:1019F000011CDCF8B0410CF5D87E14F004049460AE
:101A0000DCF8B04119BFE4085460640D1460DEF8DE
:101A10000040002904F00204D460DCF8B44104F072
:101A20000F041461DCF8B441C4F307249461DCF8BA
:101A3000B4414FEA14445461DCF8B8211A700268CA
:101A400002EB0112D2F8B8214FEA12225A70026852
:101A500002EB0112D2F8B8214FEA12429A700268E2
:101A600002EB0112D2F8B8214FEA1262DA70026872
:101A700002EB0112D2F8BC211A71026802EB0112CA
:101A8000D2F8BC214FEA12225A71026802EB01120D
:101A9000D2F8BC214FEA12429A71026802EB01129D
:101AA000D2F8BC214FEA1262DA71006814BF00F16B
:101AB000100100F10C01002020220B681A430A607B
:101AC00010BD00F1340101204FF40012F5E70000D1
:101AD000016B0139012984BF0020704700688168CB
:101AE00082688068C1F38061C2F3C0621144C0F3B0
:101AF00000700844704700002DE9F04F81B00446A3
:101B000000684669D0F804908768D0F80CB0D0F827
:101B100010A0D0F81880F10703D1002530071CD49D
:101B200023E0F90710D00121BA07816009D47807B2
:101B300000F1AA80380700F1B080204600F088FA52
:101B400002E0204600F086FA0025F80500F18480C6
:101B5000F80300F1AA80300707D51BF0100004D06D
:101B6000206845F400751021C160700708D51BF08E
:101B7000080005D020680821C160204600F0ECF97B
:101B8000B00706D52068C068800702D0204600F064
:101B9000E5F9700607D51AF0100004D0206845F466
:101BA000806510210161B00608D51AF0080005D043
:101BB000206808210161204600F0F6F9F00606D5FC
:101BC00020680069800702D0204600F0EFF9B003DA
:101BD00008D519F0100005D020681021416020467A
:101BE00000F00AFAF00308D519F0080005D02068C3
:101BF00008214160204600F037FA300440F18F8020
:101C00005FEA497040F1888006F4807008EA10208D
:101C100028435FEA8871014648BF41F00201B205DE
:101C200058BF01465FEA48700D4648BF45F00405BD
:101C3000700558BF0D4630056ED518F070006BD09A
:101C400010380009052862D8DFE800F00353565920
:101C50005C5F45F008055AE020684FF48071BA05D2
:101C600081600AD4780512D4380519D4204600F0D2
:101C7000F3F9F8037FF56FAF17E0204600F0EEF9B7
:101C8000F8037FF568AF10E04FF400655DE705F5F8
:101C90000055F8037FF55FAF07E04FF4805554E738
:101CA00005F58045F8037FF556AF20684FF4803185
:101CB000BA0381600AD478030FD4380313D42046C2
:101CC00000F0CEF930073FF548AF4EE7204600F070
:101CD000C9F930073FF541AF47E705F50045300743
:101CE0003FF53BAF41E705F5803530073FF535AFB0
:101CF0003BE745F010050AE045F0200507E045F018
:101D0000400504E045F0800501E045F48075206859
:101D1000816921F0700181612068042141604DB129
:101D2000606B40EA05012046616301B0BDE8F04FF9
:101D3000FFF73EBE01B0BDE8F08F0000B0B5B8B10E
:101D40000446006B10B9204600F06CF8206801686A
:101D500041F00101016000F053FC05462068416834
:101D6000C90707D100F04CFC401B0B28F6D312E04A
:101D70000120B0BD016821F00201016000F040FCCB
:101D8000054600BF2068416889070CD500F038FC83
:101D9000401B0B28F6D3606B052140F400306063D4
:101DA00001202163B0BDA1690268012922F08002EF
:101DB00008BF80320260E1690268012922F0400216
:101DC00008BF40320260216A0268012922F0200225
:101DD00008BF20320260616A0268012922F0100205
:101DE00018BF10320260A16A0268012922F00802BD
:101DF00008BF08320260E16A0268012922F0040289
:101E000008BF04320260251D2ECD1A4363692A43A0
:101E10001A4301391143C16100200121606321632C
:101E2000B0BD0000B0B586B0006846F60002C4F24E
:101E3000000200219042CDE90411CDE90211019187
:101E400033D046F20041C4F20001884240F0818064
:101E500040F6F441C2F200010A6843F64000C4F2C1
:101E60000200531C0B6052B900210091016841F03F
:101E700000710160016801F000710091009900217A
:101E8000009150F8101C162441F0010140F8101C7C
:101E900050F8100C142500F001000090009800206C
:101EA0004FF4C051C4F2020037E043F64000C4F2E0
:101EB00002000091016841F080610160016801F059
:101EC00080610091009940F6F441C2F200010A6875
:101ED000531C0B6052B900210091016841F0007160
:101EE0000160016801F000710091009900210091EA
:101EF00050F8101C422441F0020140F8101C50F828
:101F0000100C412500F00200009000980020C4F25F
:101F1000020000F580604FF44051019102210291CE
:101F200000210391032104910921059101A900F0E9
:101F300091FA28460521002200F01CFC284600F0FA
:101F400009FC20460521002200F014FC204600F088
:101F500001FC06B0B0BD00007047000080B58AB03B
:101F600041F24821C2F2000100680968884201D0AC
:101F70000AB080BD0020CDE9000041F24820C2F245
:101F8000000003AA6B460021FFF714FD0598002806
:101F9000EED10398A0F201210729E9D8694602F0A1
:101FA00091FF0AB080BD00007047000080B58AB084
:101FB00041F28021C2F2000100680968884201D024
:101FC0000AB080BD0020CDE9000041F28020C2F2BD
:101FD000000003AA6B460121FFF7ECFC05980028DE
:101FE000EED10398A0F201210729E9D8694602F051
:101FF00069FF0AB080BD000070470000B0B504461C
:10200000006B01281BD1022020632068016821F0A9
:102010000101016000F0F4FA054600BF2068406845
:10202000C00712D000F0ECFA401B0B28F6D3606B0F
:1020300040F400306063052020630120B0BD606B78
:1020400040F4002060630120B0BD00206063B0BD9B
:1020500070470000704700007047000070470000A4
:1020600070470000704700007047000070B5C66DF3
:10207000044600F0C5FAA16B022923D10546206869
:10208000616C026822F016020260426922F080024E
:10209000426109B9E16C19B1016821F008010160E0
:1020A000016821F00101016020680068C0070DD0BF
:1020B00000F0A6FA401B0628F6D32020A0650320D6
:1020C000A0630BE08020A065012007E0206E3F2187
:1020D00001FA00F0B0600120A063002000216163DC
:1020E00070BD0000816B022908D105218163006861
:1020F000016821F0010101600020704780218165A5
:1021000001207047F0B581B004460020009040F6F1
:102110007420C2F200000268D4E9176048F2B513D7
:1021200037680821C1F64E3381403942A2FB0325AE
:102130000CD0226813685B0708D5136823F00403EA
:102140001360B160A16D41F00101A16501218140E1
:10215000394208D022685269120604D5B160A16DD7
:1021600041F00201A16504218140394208D0226872
:102170001268920704D5B160A16D41F00401A16518
:1021800010218140394215D020680268120711D50C
:10219000B16002680168520306D4C90506D401681B
:1021A00021F00801016001E0080339D4616C09B134
:1021B00020468847216E202000FA01F23A423BD0A7
:1021C00020680368DB0637D5B260A36B0268052B75
:1021D00018D122F016020260426922F080024261A8
:1021E000626C0AB9E26C1AB1026822F0080202605D
:1021F0003F208840B0600120A063616D00206063D3
:10220000B1BB3AE0016852030ED4C90510D401688D
:1022100021F0100101600120A0630020606307E04D
:10222000E16C0029C4D1C5E7080301D4A16C00E02A
:10223000216C09B120468847A06DF0B1A06DC007A0
:1022400014D00520A0632068A90A026822F00102C8
:10225000026000BF009A01328A42009202D80268EE
:10226000D207F7D10120A06300206063216D21B166
:10227000204601B0BDE8F040084701B0F0BD0000C5
:102280002DE9F041044600F0BBF9B4B10546022047
:10229000A063002021686063086820F001000860E6
:1022A00020680168C9070BD000F0AAF9401B052877
:1022B000F6D90321202203207AE00120BDE8F08135
:1022C000016848F23F02CFF21002D4E9013501EA79
:1022D000020ED4E9032143EA0E032B43D4E9056C33
:1022E0001A43D4E907781143314341EA0702616A8E
:1022F00042EA0802042942EA0C0303D1D4E90B277D
:102300003A43134303604269042922F0070241EA79
:1023100002012DD1D4E90A5341EA050143B3BCF5CA
:10232000005F08D0BCF1000F12D1022D16D0012D94
:1023300007D09DB119E0032D17D8DFE805F00B0F8A
:102340000B02A3F1C072B2FA82F252094AB90FE04D
:10235000032D02D2012222B90AE006D1C3F30062A2
:1023600032B101214022012022E00022002AF8D1CE
:1023700000F0F8024AF6AB23103ACAF6AA23A2FBF1
:1023800003374BF2406341613909C0F60003595CE1
:1023900040F2FF3398435F2A4FF03F0288BF04307A
:1023A000C4E9170102FA01F1816001210022002035
:1023B000A265A163BDE8F08170B5D0F834C0BCF16E
:1023C000010F44D04FF0010CC0F834C0D0F85CE0ED
:1023D000D0F838C0BCF1010F37D14FF0020CC0F873
:1023E00038C04FF0000CC0F858C0D0F800C0846866
:1023F000456C006EDCF80060402C26F48026CCF89A
:102400000060CCF804300B4604BF13460A463F2157
:1024100001FA00F0CCF80830CCF80C20CEF8080017
:10242000DCF8000040F01600CCF800002DB1DCF81C
:10243000000040F00800CCF80000DCF8000040F09C
:102440000100CCF80000002070BD00214163022093
:1024500070BD00002DE9F04F82B000F13E4241F620
:10246000004502F1FF77C4F2020508224FEAB726C1
:10247000A84208BF0722072E38BF4FEAB7224FF005
:10248000010A002400274FF00009009209E000BF74
:1024900009F101090237B9F1100F04F1040400F049
:1024A000A6800A680AFA09FC12EA0C08F0D0D1F8F2
:1024B00004B00BF0030AAAF10102012A12D88268C3
:1024C0000323CE6803FA07FE22EA0E02BE4032431F
:1024D00082604268CBF3001622EA0C0206FA09F683
:1024E00032434260BAF1030F1DD0C26803238D68E6
:1024F00003FA07F6B24305FA07F63243BAF1020FC0
:10250000C26010D16FF0030202EA59020244D2F80D
:1025100020C004F01C050F230E69AB402CEA030316
:10252000AE4033431362026803234E68BB409A43B4
:1025300006F00303BB401A4316F4403F4FF0010A74
:102540000260A5D0002243F644030192C4F20203C4
:102550001A6843F6004E42F480421A601A68C4F2C8
:10256000010E02F480420192019A29F003024FF613
:10257000084C7244CFF6FF7C52F80C3004F00C0685
:102580000F25B540AB43009D05FA06F6334342F8EC
:102590000C30DEF808204B6842EA080643F60C4C83
:1025A000DD0258BF22EA0806CEF80860C4F2010C2A
:1025B000DCF800209D0242EA080658BF22EA08061D
:1025C000CCF80060DEF804209D0342EA080658BFFC
:1025D00022EA0806CEF80460DEF80020DB0342EAB7
:1025E000080658BF22EA0806CEF8006050E702B09D
:1025F000BDE8F08F002A08BF090481617047000020
:1026000045F20430C2F200000068704740F67C20BA
:1026100045F20431C2F20000C2F2000100680A680B
:10262000104408607047000080B543F60040C4F2D3
:102630000200016841F400710160016841F48061A9
:102640000160016841F480710160032000F0BEF870
:102650000F2000F005F800F05BF8002080BD0000BE
:1026600070B586B0002543F640010195C4F2020121
:102670000A68044642F002020A60096801A801F0F3
:10268000020101910199694600F060F9049E002E53
:1026900018BF012600F07AF94DF68361B040C4F20C
:1026A0001B31A0FB01014FF0FF3000EB914141F2E3
:1026B000484040F20042C2F20000C4F2000240F280
:1026C000E733C0E90021C0E902530561856100F0EC
:1026D00063FC0546C8B941F24840C2F2000000F070
:1026E00009FD054688B91D2000F034F80F2C0BD8E1
:1026F0001D2021460022002500F03CF840F68020F5
:10270000C2F20000046000E00125284606B070BD5A
:1027100082B0002043F640010190C4F202014A68F1
:1027200042F480424A604A6802F480420192019A6F
:1027300000900868002240F08050086008680F216F
:1027400000F08050009000986FF0010002B000F09F
:1027500011B80000002848BF704700F01F01012297
:1027600002FA01F14EF200124009CEF2000242F8E4
:102770002010704710B54EF60C5CCEF2000CDCF861
:102780000030C3F3022E8EF00704042C28BF04246B
:10279000BEF103034FF0FF3E0EFA04F438BF0023EE
:1027A000A14399400EFA03F39A43114300F16042AA
:1027B00000F00F03090102F56442043B6344002862
:1027C00048BF03F10C02117010BD00004EF60C5111
:1027D000CEF200010A684FF6FF031A4060F30A22A6
:1027E00042F0806040F0FD70086070472DE9F041D4
:1027F000002800F08B8043F60808C4F20208044663
:10280000D8F8F8030D4600F00700884207D288F890
:10281000F853D8F8F80300F00700A84276D12068F2
:10282000810717D5410705D5D8F8001041F4E051CC
:10283000C8F80010010705D5D8F8001041F4604130
:10284000C8F80010D8F80010A26821F0F001114378
:10285000C8F80010C0073FD1D8F8F80300F007000F
:10286000A84207D988F8F853D8F8F80300F0070011
:10287000A8424BD12068410707D5D8F80010E2687C
:1028800021F4E0511143C8F80010000708D5D8F82A
:102890000000216920F4604040EAC100C8F800004F
:1028A00000F09CF8D8F800104BF22862C1F3031135
:1028B000C0F60002515C40F6742220FA01F140F6A5
:1028C0008020C2F200000068C2F200021160FFF72F
:1028D000C7FE0020BDE8F0816068811E022907D292
:1028E00058F8081C89015CBF0120BDE8F08110E0A8
:1028F000012807D158F8081C89035CBF0120BDE8F6
:10290000F08106E058F8081C890702D40120BDE8D0
:10291000F081D8F8001021F003010843C8F8000046
:10292000FFF76EFE064641F2883700BFD8F8000078
:10293000616800F00C00B0EB810F8DD0FFF760FEF6
:10294000801BB842F2D90320BDE8F0810F2202605B
:1029500043F60802C4F20202136803F00303436063
:10296000136803F0F0038360136803F4E053C3605B
:10297000D2F800C04FF4E05303EADC030361D2F85D
:10298000F80300F0070008607047000040F674206C
:1029900043F60801C2F20000C4F2020100680968AF
:1029A0004BF23862C1F38221C0F60002515CC8408C
:1029B0007047000040F6742043F60801C2F20000A0
:1029C000C4F20201006809684BF23862C1F3423177
:1029D000C0F60002515CC8407047000010B543F6D5
:1029E0000404C4F20204606800F00C0008280AD055
:1029F000042819BF42F20040C0F2F40047F640003C
:102A0000C0F27D1010BD206821682368490247F696
:102A10004001C0F27D1100F03F02C3F388105CBF9B
:102A200042F20041C0F2F401A1FB00010023FDF7D6
:102A3000C7FB21680222C1F3014102EB4101B0FB57
:102A4000F1F010BD2DE9F04182B0002800F0A18026
:102A50000446007843F60006C007C4F2020643D0DD
:102A6000B06800F00C00042805D1306880033BD525
:102A70006068C8BB8DE0B06800F00C00082802D187
:102A800070684002F1D46568B5F5A02F0AD0B5F59D
:102A9000803F0BD0306820F480303060306820F404
:102AA000802006E0306840F480203060306840F4D8
:102AB00080303060FFF7A4FD002D054611D000BF27
:102AC0003068800310D4FFF79BFD401B6428F7D9C2
:102AD00020E100BFFFF794FD401B64284FF0030086
:102AE00054D830688003F5D4207880071AD5B068B0
:102AF00010F00C0F09D0B06800F00C00082840F06E
:102B000088807068400200F184803068800702D5B8
:102B1000E06801283DD13068216920F0F80040EAE2
:102B2000C10030602078000737D4207840074AD4AD
:102B3000A56955B3B06800F00C00082840F09C80EF
:102B4000012D26D07068E16900F480028A4220D10C
:102B5000216A00F03F028A421BD147F6C071626AC7
:102B60000140B1EB821F14D1A16A4FF6FF73C90374
:102B7000994300F44032A1F580318A4209D1E16ADB
:102B800000F07060B0EB016F03D1002002B0BDE82F
:102B9000F081012002B0BDE8F0816069002840F2B8
:102BA0000000C4F2472056D00121C0F8801EFFF774
:102BB00027FD0546706F8007B7D4FFF721FD401B46
:102BC0000228F7D9A6E0306C10F080580AD1002016
:102BD0000190306C40F080503064306C00F08050D8
:102BE0000190019847F20007C4F200073868C00559
:102BF00024D4386840F480703860FFF701FD054642
:102C00003868C0051AD4FFF7FBFC401B0228F7D92F
:102C100080E0E068002851D00020C4F24720012164
:102C20000160FFF7EDFC0546306880073FF573AFA4
:102C3000FFF7E6FC401B0228F6D96BE0A568052DDE
:102C400050D0012D52D0306F20F001003067306F2E
:102C500020F004004DE00021C0F8801EFFF7D0FCFA
:102C6000054600BF706F80077FF55FAFFFF7C8FCB8
:102C7000401B0228F6D94DE00027C4F24727002068
:102C80003866FFF7BDFC022D05460BD13068800188
:102C900058D5FFF7B5FC401B02284FF00300F5D9CB
:102CA00074E700BF306880017FF56FAFFFF7A8FCC5
:102CB000401B02284FF00300F4D967E70020C4F25C
:102CC000472000210160FFF79BFC05463068800724
:102CD0007FF528AFFFF794FC401B02284FF003005C
:102CE000F4D953E7306F40F004003067306F40F0A4
:102CF00001003067FFF784FC002D054641F288375C
:102D000014D000BF306F800713D4FFF779FC401B4D
:102D1000B842F7D9032002B0BDE8F081FFF770FC9C
:102D2000401BB8424FF003003FF630AF306F8007D2
:102D3000F4D4B8F1000F7FF4FBAE306C20F080507B
:102D40003064F5E604F11C052FCD084340EA8210FB
:102D5000D9034FF6FF729143A1F5803140EA056037
:102D60000843706001203866FFF74AFC044600BF44
:102D7000306880013FF509AFFFF742FC001B0228D5
:102D80004FF00300F4D901E770B538B10446406A4A
:102D900030B10020206104F1140007E0012070BD73
:102DA0006068B0F5827F03D004F11C00002101604F
:102DB0000026A662606D18B92046266500F03AF834
:102DC0000220606594E80F0001F48271056802F446
:102DD000044225F040050560114403F400622369B4
:102DE000114403F002026369114403F00102A36974
:102DF000E569114403F40072114405F03802256AB4
:102E0000114405F08002A56A114305F400521143F4
:102E10000160626A042101EA134102F010021144C8
:102E20004160C16921F40061C1610120A66560654E
:102E3000304670BD2DE9F04387B043F600050068C9
:102E4000C4F200050026A8420696CDE90466039662
:102E5000029602D007B0BDE8F08343F63000019639
:102E6000C4F20200016902AC41F4804101610169D0
:102E70004FF0020801F48041019101990196016827
:102E80004FF0030941F0040101600168052701F0DA
:102E90000401019101990196016841F0020101606C
:102EA0000068214600F00200019001980C20029079
:102EB00005F5E830CDE90386CDF814900697FFF7C5
:102EC000C9FA4FF48060CDE9020805F5E6302146E5
:102ED000CDE904690697FFF7BDFA07B0BDE8F083B6
:102EE000704700007047000010B5C26B012A4FF018
:102EF00002024ED00123C36302640268D2F804E0E8
:102F0000D2F808C00C682EF07003234341F2FF741E
:102F1000C4F20004A24253600DDC40F2FF73C4F21D
:102F200000039A4215DCB2F1804F29D040F20043F1
:102F3000C4F2000322E040F2FF33C4F201039A42DC
:102F400012DC41F60003C4F200039A4218D00023B9
:102F500012E040F60003C4F200039A4210D040F69B
:102F60000043C4F2000309E044F20003C4F2010389
:102F70009A4205D040F20043C4F201039A4204D1C0
:102F800049682CF0800319439160012100220164FB
:102F9000C263104610BD0000002804BF0120704726
:102FA00010B50446006C20B90020E063204600F014
:102FB00013F8022020642068211D04F0DBFB0120AF
:102FC00060666064A064E06420656065A065E0659B
:102FD00020662064002010BD70B582B004460068F1
:102FE000A0F18040A0F500604FEAB020062838D854
:102FF000DFE800F004373937374F6500002043F62B
:1030000040010190C4F202010A6841F2B82542F081
:1030100004020A600968C2F2000501F0040101918E
:10302000019946F2B801C4F202014FF080624023D8
:103030004FF4005685E80E0005F10C014FF4806C4A
:103040004FF4006E81E80150C5E90660C5E908004B
:103050002846FFF715F9002818BFFEF7ABFBE5621D
:10306000EC6302B070BD0020019043F64000C4F252
:1030700002000168002241F0100101600068052192
:1030800000F01000019001983620FFF773FB362006
:103090002AE00020019043F64000C4F202000168DB
:1030A000002241F0800101600068052100F08000ED
:1030B000019001982C20FFF75DFB2C2014E00020EC
:1030C000019043F64000C4F202000168002241F47E
:1030D000807101600068052100F480700190019802
:1030E0002D20FFF747FB2D2002B0BDE87040FFF711
:1030F00031BB0000016C01291CBF01207047022177
:103100000164006841F2FF72C168C4F2000290429B
:1031100041F00101C1600DDC40F2FF71C4F2000119
:10312000884215DCB0F1804F29D040F20041C4F252
:10313000000122E040F2FF31C4F20101884212DCBA
:1031400041F60001C4F20001884218D0002112E0CB
:1031500040F60001C4F20001884210D040F6004160
:10316000C4F2000109E044F20001C4F20101884206
:1031700005D040F20041C4F20101884206D18168C5
:1031800001F00701062904BF00207047016841F0E3
:1031900001010160002070470146006841F21113EF
:1031A000C26822F00102C260026A1A4208D1026AB1
:1031B00040F244431A4203D1026822F00102026045
:1031C000012200200A64704780B5C26B012A4FF0CB
:1031D000020200F0BE800123C3630264D0F800C085
:1031E0004FF67772DCF8083023EA0202CCF80820A8
:1031F0000B684F2B28DC1F2B43DD202B44D0302BBA
:1032000042D0402B40F0A780D1F804E0C968DCF838
:103210002030DCF8202022F00102CCF82020DCF85D
:10322000182022F0F00242EA011123F00A0242EAD9
:103230000E02CCF81810CCF82020DCF8081041F071
:10324000470121F030017DE06F2B25DDB3F5005FF4
:1032500046D0B3F5805F77D0702B7CD1D1E901E304
:10326000C968DCF8082043EA0E0322F47F4243EAEF
:1032700001211143CCF80810DCF8081041F0770167
:1032800060E00BB1102B66D1DCF8081021F0700162
:10329000194341F0070155E0502B34D0602B5AD12F
:1032A000D1F804E0C968DCF8203023F01003CCF832
:1032B0002030DCF81830DCF8202023F4704322F0B2
:1032C000A00243EA013142EA0E12CCF81810CCF801
:1032D0002020DCF8081041F0670121F0100131E0F6
:1032E000D1E901E3C968DCF8082043EA0E0322F4BF
:1032F0007F4243EA01211143CCF80810DCF80810A2
:1033000041F480411EE0D1F804E0C968DCF82030C7
:10331000DCF8202022F00102CCF82020DCF8182074
:1033200022F0F00242EA011123F00A0242EA0E0200
:10333000CCF81810CCF82020DCF8081041F0570128
:1033400021F02001CCF808100022012101640021A5
:10335000C163104680BD0122F7E7000070470000FE
:103360007047000010B5044600680169890744BF32
:10337000C1685FEA81713FD420680169490744BF91
:10338000C1685FEA417143D420680169090744BFFD
:10339000C1685FEA017148D420680169C90644BF69
:1033A000C1685FEAC1614CD420680169C9071CBFCC
:1033B000C1685FEAC17151D120680169090644BF43
:1033C000C1685FEA016150D420680169490644BFC1
:1033D000C1685FEA41614FD421680869800646BF31
:1033E000C8685FEA806010BD6FF0200220460A6165
:1033F000BDE81040FFF776BD6FF0020101610121C9
:10340000E161806980073ED02046FFF7A9FF40E0D8
:103410006FF0040101610221E161806910F4407FD5
:103420003AD02046FFF79CFF3CE06FF008010161B5
:103430000421E161C069800737D02046FFF790FF83
:1034400039E06FF0100101610821E161C06910F4F9
:10345000407F33D02046FFF783FF35E06FF0010156
:103460000161204600F0F6FBA6E76FF080010161E4
:103470002046FFF735FDA7E76FF0400101612046C8
:1034800000F0F8FBA8E7204600F022F8204600F004
:103490004DF90020E0616FE7204600F019F8204662
:1034A00000F044F90020E0616EE7204600F010F8DB
:1034B000204600F03BF90020E0616DE7204600F077
:1034C00007F8204600F032F90020E0616CE70000C8
:1034D000704700002DE9F043C36B012B04BF0220AD
:1034E000BDE8F0834FEAB2020123032AC36300F26E
:1034F000F580DFE802F0023E7DBD036840F2004740
:103500001A6A43F4806522F001021A621C6A1A46A4
:10351000D3F804E052F818CF8E6824F00204C4F205
:103520000107BD4244EA060405D1CE6824F00C042C
:1035300026F0040634430E68BD4207D1D1E9055791
:103540002EF4407E45EA0E0545EA070E2CF073077F
:103550003743C3F804E09F614F6809695F631C62E9
:103560009F6947F008079F619F6927F004079F61E3
:10357000B0E0036840F200481A6A43F4806522F024
:1035800010021A621C6A1A46D3F804C052F818EFE7
:103590008F6824F02004C4F20108454544EA07146A
:1035A00007D1CF686FF0400624F0C00406EA071682
:1035B0003443D1F80090454506D1D1E905562CF4A5
:1035C00040672E4347EA860C2EF4E64747EA092770
:1035D000C3F804C09F614F6809699F631C629F69BB
:1035E00047F400679F619F6927F480679F6170E0DF
:1035F000036840F200481A6A43F4806522F480723E
:103600001A621C6A1A46D3F804C052F81CEF8F687D
:1036100024F40074C4F20108454544EA072408D1A3
:10362000CF6840F2FF463F0224F4406427EA0606D2
:103630003443D1F80090454506D1D1E905562CF424
:1036400040572E4347EA061C2EF0730747EA090746
:10365000C3F804C0DF614F680969DF631C62DF697A
:1036600047F00807DF61DF6927F00407DF6131E019
:10367000036840F200451A6A43F4806722F48052DE
:103680001A621A46D3F820C05C6852F81CEFD1F8D1
:1036900000808E68C4F20105AF4204D14D6924F464
:1036A000804444EA85142CF4005747EA06372EF488
:1036B000E64646EA08265C60DE614E6809691E64DB
:1036C0001F62DF6947F40067DF61DF6927F4806705
:1036D000DF61090213681943002311600021C163EF
:1036E0001846BDE8F0830000002804BF01207047A1
:1036F00010B50446006C20B90020E063204600F0BD
:1037000013F8022020642068211D04F033F8012002
:1037100060666064A064E06420656065A065E06543
:1037200020662064002010BD7047000070B508219D
:10373000044600F017FA40F6DE65C2F2000540F6D6
:1037400070262978C2F200063078002908BF0028C8
:1037500064D0012908BF002840F0BD8040F6BA229D
:10376000C2F2000220460821192300F0B7F840F603
:103770001050C2F2000001880023542904BF012226
:10378000327032782B70002A18BF70BD01318AB2B6
:103790000180500040F6EC2C10FA81F1C2F2000CCE
:1037A0000CEB41014B8840F68821C2F200018E1ECD
:1037B000072500BF23FA05F4E4074FF04904A5F1FB
:1037C000010508BF1F24681C26F8024FF2D102EB46
:1037D00042023CF8123001F10E06072523FA05F0EB
:1037E000C0074FF04900A5F1010508BF1F206C1C60
:1037F00026F8020FF2D10CEB420080881E3107221E
:1038000020FA02F3DB074FF04903A2F1010208BFDF
:103810001F23561C21F8023FF2D15CE040F68822BB
:10382000C2F2000220460821192300F057F840F6A2
:103830001050C2F2000001880123542904BF012264
:10384000327032782B70002A45D101318AB2018062
:10385000500040F6EC2C10FA81F1C2F2000C0CEB97
:1038600041014B8840F6BA21C2F200018E1E0725A5
:1038700023FA05F4E4074FF04904A5F1010508BF58
:103880001F24681C26F8024FF2D102EB42023CF8DA
:10389000123001F10E06072523FA05F0C0074FF09C
:1038A0004900A5F1010508BF1F206C1C26F8020F76
:1038B000F2D10CEB420080881E31072220FA02F37D
:1038C000DB074FF04903A2F1010208BF1F23561C7A
:1038D00021F8023FF2D170BD70470000B0B50C4630
:1038E000054641B1082C09D0042C14BF05F1500045
:1038F00005F1480004E005F1440001E005F14C0049
:103900000068022804BF0220B0BD44B1082C09D0D1
:10391000042C14BF05F1500005F1480004E005F146
:10392000440001E005F14C000068012801D112B902
:103930000BB10120B0BD44B1082C09D0042C14BF38
:1039400005F1500005F1480004E005F1440001E0F4
:1039500005F14C004FEAB4014FF0020C0329C0F806
:1039600000C023D8DFE801F002274768686A47F6FD
:103970009901C0F600010164686A47F6FD01C0F6CE
:1039800000014164686A47F63511D5F800C0C0F6F9
:1039900000010165686A0CF1340C11466246FEF7BD
:1039A0000BFD0028C5D14FF4007065E00120002117
:1039B000002969D1B0BDA86A47F69901C0F6000197
:1039C0000164A86A47F6FD01C0F600014164A86AD7
:1039D00047F63511D5F800C0C0F600010165A86AA8
:1039E0000CF1380C11466246FEF7E6FC0028A0D127
:1039F0004FF4806040E0E86A47F69901C0F60001A4
:103A00000164E86A47F6FD01C0F600014164E86A16
:103A100047F63511D5F800C0C0F600010165E86A27
:103A20000CF13C0C11466246FEF7C6FC00287FF400
:103A300080AF4FF400601FE0286B47F69901C0F695
:103A400000010164286B47F6FD01C0F600014164E6
:103A5000286B47F63511D5F800C0C0F600010165A6
:103A6000286B0CF1400C11466246FEF7A5FC0028BD
:103A70007FF45FAF4FF480502968CA681043C86074
:103A800000200121002995D0296804F01F0201239C
:103A90000D6A03FA02F225EA02030B620B6A134372
:103AA00041F2FF72C4F2000291420B620DDC40F25F
:103AB000FF72C4F20002914215DCB1F1804F45D093
:103AC00040F20042C4F200023EE040F2FF33C4F292
:103AD0000103994212DC41F60005C4F20005A94237
:103AE00034D0002512E040F60002C4F200029142F8
:103AF0002CD040F60042C4F2000225E044F200055A
:103B0000C4F20105A94221D040F20045C4F20105EA
:103B1000A94221D14D6C914245F400454D64C6DD6A
:103B2000994207DC41F60002C4F2000291420DD036
:103B3000002207E044F20002C4F20102914205D0E3
:103B400040F20042C4F20102914205D18A6802F0BB
:103B50000702062A08BFB0BD0A6842F001020A60E7
:103B6000B0BD000070B50D464FEAB101032906460D
:103B70000AD8DFE801F0020C131A304650F8241B73
:103B8000CA6822F4007216E00120002119E03046D4
:103B900050F8281BCA6822F480620CE0304650F8C6
:103BA0002C1BCA6822F4006205E0304650F8301B36
:103BB000CA6822F48052CA600068FEF793FA0020B7
:103BC0000121002908BF70BD316805F01F024FF0C8
:103BD000010C0B6A0CFA02F223EA02020A6240F2BA
:103BE00000440A6A41F48063C4F20104A3420A62F9
:103BF0000DD10A6A41F211131A4208D10A6A40F241
:103C000044431A4203D14A6C22F400424A640A6ACD
:103C100041F211131A4204D10A6A40F244431A4293
:103C20000DD0082D11D0042D06D0002D14BF06F1A3
:103C3000500106F144010AE006F1480107E00A6874
:103C400022F001020A60082DEDD106F14C0101229B
:103C50000A6070BD10B50446006840F20041C4F22D
:103C60000001884208BFFEF7D1FC2046BDE81040A5
:103C700002F0C8B8704700007047000070470000AD
:103C8000B0B582B0044600680168C368426901F0BB
:103C90002F05202D03F0200506D12DB1204602B0BE
:103CA000BDE8B04003F094BE5FEA017C1EBF02F0A5
:103CB000010E03F4907212EB0E0251D1226B012A15
:103CC00005D111F0100218BF13F0100234D10A060A
:103CD00021D513F080021ED0216C21293ED1A1688C
:103CE000B1F5805F03D12169002900F03881216A94
:103CF0004A1C226209784160E18C01390A04E1849E
:103D00002CD1C16821F08001C160C16841F040013F
:103D1000C16002B0B0BD490620D513F040011DD0EE
:103D2000C16821F04001C16020212046216402B019
:103D3000BDE8B04000F00EBB002101910168019187
:103D40004168019101994069400611D4A08DE18D2F
:103D5000E28D002A18BF884240F0D78002B0B0BD83
:103D6000C80718BF13F4807043D1480747D44DE00B
:103D7000A06B016849688AB2002AEFD0A38D9A42ED
:103D8000ECD2E185C069B0F5807F2ED0206850E884
:103D9000030F216820F4807041E80302002AF5D166
:103DA000206850E8050F216820F0010041E8050275
:103DB000002AF5D1206850E8050F216820F0400066
:103DC00041E80502002AF5D120206064002020632C
:103DD000206850E8030F216820F0100041E803023A
:103DE000002AF5D1A06BFEF741F9A08DE18D401AB4
:103DF000AEE0A06C40F00100A064480706D5BEF11B
:103E0000000F03D0A06C40F00200A064880706D524
:103E1000BEF1000F03D0A06C40F00400A064BCF120
:103E2000000F09D545EA0E00B0FA80F0400903D131
:103E3000A06C40F00800A064A06C00283FF48EAF96
:103E400011F0200018BF002D02D0204603F0C0FD65
:103E500020684069A16C00F0400001F008014018A2
:103E600046D000BF206850E8030F216820F490700E
:103E700041E80302002AF5D1206850E8050F2168C7
:103E800020F0010041E80502002AF5D1206B01284D
:103E90000AD100BF206850E8030F216820F010000D
:103EA00041E80302002AF5D120206064002020634D
:103EB00020684069400622D5206850E8050F216837
:103EC00020F0400041E80502002AF5D1A06BB0B116
:103ED00047F6C511C0F600014165FEF703F9002859
:103EE0003FF43CAFA06B416D02B0BDE8B040084765
:103EF0002046FFF7C3FE0020A06402B0B0BD2046FC
:103F000002B0BDE8B040FFF7B9BE401A216851E8E1
:103F1000031F226821F4907142E80313002BF5D1AE
:103F2000216851E8051F226821F0010142E80513CC
:103F3000002BF5D12021616400212163216851E823
:103F4000031F226821F0100142E80313002BF5D172
:103F500081B2204602B0BDE8B040FFF78DBE216AB5
:103F600031F8022B6FF35F2242602162C4E6000049
:103F7000002804BF0120704710B50446006C20B92A
:103F80000020E063204600F01DF824202064206813
:103F9000C16821F40051C160204603F077FD20681C
:103FA000016921F490410161416921F02A014161D7
:103FB000C16841F40051C16000202021A064216447
:103FC000616410BDF0B587B0006845F20001C4F22D
:103FD000000100248842CDE90544CDE90344029460
:103FE00029D044F60041C4F2000188426CD100207F
:103FF00043F630010190C4F202010A69342442F40C
:1040000000220A610A6902F400220192019A0190D9
:104010000A6842F001020A600968022201F0010107
:10402000019101990321CDE903200020029105911E
:10403000C4F202003BE043F630000194C4F20200F7
:104040000169002741F4801101610169C4F202078E
:1040500001F480110191019901940168022541F058
:10406000040101600168032601F004010191019936
:104070000194016841F008010160006802A900F0A4
:104080000800019001984FF480500290082006909B
:1040900007F50060CDE903540596FEF7DBF904202F
:1040A000CDE90205CDE9044607F540603524082135
:1040B000069102A9FEF7CEF9204605210022FEF75F
:1040C00059FB2046FEF746FB07B0F0BD436C202BA2
:1040D0000AD100294FF0010318BF002A01D1184668
:1040E0007047C36B012B01D102207047002303638B
:1040F000816222218285C285836441640169C36330
:1041000021B10168CA6842F48072CA600068002365
:10411000416941F001014161C16841F02001C16084
:104120001846704770B5044641F2CC50C2F2000008
:10413000844230D141F2FD00C2F20000017841F228
:104140000226C2F200064B1C3278037040F6FC7067
:1041500041F27835C2F20000C2F20005425428460E
:10416000FEF7C8FF2868002141623078552807D142
:1041700041F2FC00C2F2000001210170FDF7A2F83B
:1041800041F2CC5041F20221C2F20000C2F2000121
:104190000122FFF79BFF41F28050C2F200008442EF
:1041A00018BF70BD41F20120C2F20000017841F257
:1041B0000324C2F200044B1C2278037041F2001069
:1041C00041F2E035C2F20000C2F200054254284636
:1041D000FEF790FF2B68002641F28050C2F20000EB
:1041E000214601225E62BDE87040FFF76FBF00000C
:1041F0002DE9F04381B00446006C20280CD10D4617
:1042000000294FF0010000F0A1801646002A00F0BE
:104210009D80E06B012803D1022001B0BDE8F0834E
:104220000120E0630020A064212098462064FEF76E
:10423000E7F9A684E684A1688146B1F5805F01D1E3
:10424000206910B12F46002500E000270020E06320
:10425000E08C002841D008F1010609E097B117F879
:10426000010B21684860E08C0138E084E08CA0B349
:10427000206800680006F1D4BEB1B8F1000F0ED17D
:1042800016E000BF35F8020B21686FF35F2048602D
:104290000027E8E701680906E0D4002EFAD0FEF70F
:1042A000AFF9A0EB0900404502D82068F2E700BF53
:1042B000206850E8030F216820F4D07041E8030221
:1042C000002AF5D1206850E8050F216820F0010090
:1042D00041E80502002AF5D10AE02068006840069E
:1042E00031D4B8F1000F19D018F1010509D00EE052
:1042F0002020206460640020E063032001B0BDE85A
:10430000F0832068016849061DD4002DFAD0FEF71D
:1043100077F9A0EB09004045F3D900BF206850E8C9
:10432000030F216820F4D07041E80302002AF5D180
:10433000206850E8050F216820F0010041E80502DF
:10434000002AF5D1D4E720202064002001B0BDE888
:10435000F083000070470000FEE7000010B541F256
:10436000482046F20041C2F20000C4F200010622D9
:104370000023012480E80E0000F10C014FF4003C02
:104380004FF4001E81E80850C0E90634C0E9084433
:10439000C0E90A33FDF7D2FC002808BF10BDBDE814
:1043A0001040FDF707BA000080B541F2802046F6C4
:1043B0000001C2F20000C4F200010622002380E8DE
:1043C0000E0000F10C014FF4003C4FF4001E81E898
:1043D0000850C0E90633C0E90833C0E90A33FDF7E5
:1043E000ADFC002808BF80BDBDE88040FDF7E2B904
:1043F00080B582B00020019043F63000C4F2020084
:104400000168002241F4001101600068052100F4F8
:104410000010019001982F20FEF7ACF92F2002B078
:10442000BDE88040FEF796B910B5DCB04BF24850BD
:10443000C0F6000090E80E50D0E905405591CDE956
:104440005A4055A8002156925793CDF860C1CDF837
:1044500064E104F0E3FA41F24021C2F20001086095
:104460004BF28050C0F6000090E81E5080694E91DB
:1044700054904EA800214F9250935194CDF848C1CA
:10448000CDF84CE104F0CAFA41F23461C2F2000105
:1044900008604BF26450C0F6000090E81E5080693E
:1044A00047914D9047A80021489249934A94CDF8EE
:1044B0002CC1CDF830E104F0B1FA41F22C61C2F226
:1044C000000108604BF2D450C0F6000090E81E5086
:1044D00080694091469040A80021419242934394C4
:1044E000CDF810C1CDF814E104F098FA41F244611E
:1044F000C2F2000108604BF20C60C0F6000090E8C8
:104500001E50806939913F9039A800213A923B931F
:104510003C94CDF8F4C0CDF8F8E004F07FFA41F215
:104520005061C2F2000108604BF2F050C0F600008A
:1045300090E81E5080693291389032A80021339261
:1045400034933594CDF8D8C0CDF8DCE004F066FAA9
:1045500041F24C61C2F2000108604BF29C50C0F67F
:10456000000090E81E5080692B9131902BA800210B
:104570002C922D932E94CDF8BCC0CDF8C0E004F061
:104580004DFA41F23C61C2F2000108604BF2B850B2
:10459000C0F6000090E81E50806924912A9024A85B
:1045A0000021259226932794CDF8A0C0CDF8A4E051
:1045B00004F034FA41F24061C2F20001384A086066
:1045C00037A000F1040C1D929CE81E1080690DF1CB
:1045D000780E8EE81E1023901DA8002104F01EFA0C
:1045E00041F22461C2F20001344A086033A000F1B4
:1045F000040C16929CE81E1080690DF15C0E8EE88A
:104600001E101C9016A8002104F008FA41F228613F
:10461000C2F20001304A08602FA000F1040C0F9292
:104620009CE81E1080690DF1400E8EE81E1015905A
:104630000FA8002104F0F2F941F23061C2F200014A
:104640002C4A08602BA000F1040C08929CE81E1074
:1046500080690DF1240E8EE81E100E9008A800212E
:1046600004F0DCF941F24861C2F20001284A086016
:1046700027A000F1040C01929CE81E1080690DF146
:10468000080E8EE81E10079001A8002104F0C6F95C
:1046900041F23861C2F2000108605CB010BD00BF99
:1046A00048B6000891620008000000000000000009
:1046B0008000000000000000000000006AB6000852
:1046C000C16300080000000000000000800000003E
:1046D000000000000000000091B60008996A000880
:1046E0000100000000000000800000000000000049
:1046F000000000005EB6000821720008FDFFFFFF09
:104700000000000080000000000000000000000029
:10471000D7B60008296E0008000000000000000065
:1047200080000000000000000000000070B586B0AE
:10473000002543F630000595CDE90355CDE9015537
:104740000095C4F20200016840F2004441F0040107
:1047500001600168C4F2020401F0040100910099B3
:1047600000950168002241F08001016001684FF46A
:10477000087601F08001009100990095016841F0F0
:1047800001010160016801F00101009100990095AB
:10479000016841F002010160016801F0020100912D
:1047A00000990095016841F00801016000684FF42C
:1047B000087100F00800009000982046FDF71AFFED
:1047C0000120CDE9020501A9204601960495FDF7D7
:1047D00041FE06B070BD000080B541F21C3043F6CA
:1047E0000001C2F20000C4F200014FF48272002303
:1047F0004FF4007C80E80E000A21C0E90333C0E9D1
:10480000053CC361C0E90833C0E90A31FEF7BCFAD0
:10481000002808BF80BDBDE88040FCF7CBBF00008A
:1048200080B541F2783041F60041C2F20000C4F296
:104830000001002329224FF4487C80E80E10036118
:104840008361FEF7A9FB002808BF80BDBDE880405A
:10485000FCF7B0BF80B541F2E03042F20001C2F295
:104860000000C4F20001002329224FF4967C80E866
:104870000E1003618361FEF78FFB002808BF80BD27
:10488000BDE88040FCF796BFB0B594B040F6000597
:1048900041F2B040C4F200050021C2F200006822DB
:1048A0000D91CDE90B11CDE90911CDE90711CDE944
:1048B0000511CDE90311CDE90111C0E90051C0E9AD
:1048C000021201618161FEF767FB002818BFFCF747
:1048D00071FF4FF480500A9041F2B040C2F20000E4
:1048E0000AA9FEF771FC002818BFFCF763FF41F22C
:1048F000B040C2F20000FEF7F7FE002818BFFCF738
:1049000059FF41F2B0400024C2F2000008A9CDE9ED
:104910000844FEF7E9FA002818BFFCF74BFF6020B7
:10492000CDE901040394059441F2B044C2F20004BD
:1049300001A920460822FEF7CDFD002818BFFCF78C
:1049400039FF21680020A9421390CDE91100109091
:104950000F9001D014B0B0BD43F630010E90C4F2F8
:1049600002010A6842F002020A60096801F00201CD
:104970000E910E994FF480710F910221CDE9101024
:10498000CDE9120105F5FE300FA9FDF763FD14B066
:10499000B0BD000010B582B041F2185041F20001E4
:1049A0000024C2F20000C4F200014FF6FF72CDE90C
:1049B0000044C0E90014C0E902428461FEF7ECFA49
:1049C000002818BFFCF7F6FE41F21850C2F20000B2
:1049D0006946CDE90044FEF787FA002818BFFCF7C6
:1049E000E9FE02B010BD000080B541F2805044F6EF
:1049F0000041C2F20000C4F2000100234FF00C0C91
:104A00004FF4E13280E80E00C0E90333C0E905C38A
:104A1000C361FFF7ADFA002808BF80BDBDE8804044
:104A2000FCF7C8BE80B541F2CC5045F20001C2F29D
:104A30000000C4F2000100234FF00C0C4FF461227F
:104A400080E80E00C0E90333C0E905C3C361FFF786
:104A50008FFA002808BF80BDBDE88040FCF7AABEE1
:104A600010B50128B8BF10BD044600BF00200121C9
:104A700000F0AAFB0020022100F0A6FB0020032189
:104A800000F0A2FB0020042100F09EFB012003F0B7
:104A9000B7FF013CEAD110BDFEE70000FEE70000D1
:104AA000F0B581B02DED048BB0EE408A044651EC98
:104AB000110BF0EE608AFCF77DF840F2FC4204EB4B
:104AC000C401C2F2000202EBC104254609EE100A3D
:104AD00042F8310055F8040F264646F8140F51EC01
:104AE000180BFCF767F800EE100A39EE400A286050
:104AF00010EE100A04F1080784ED020AFCF747F8EB
:104B000041EC100BFCF75CFE206CB0EE408AF0EE3E
:104B1000608AFCF73CF802460B4651EC180BFBF799
:104B2000C3FF002804BF0020386097ED000A94ED11
:104B3000041A94ED115A30EE011AB1EE456A94ED63
:104B4000072AB4EE461A94ED083A94ED094AF1EEBC
:104B500010FAB4EE451AD8BFB0EE461AF1EE10FACC
:104B6000B8BFB0EE415A20EE020A96ED001A95ED5C
:104B7000002A25EE033A31EE421A24EE012A30EEE5
:104B8000031A84ED0C0A94ED0A0A31EE021AB8EE0B
:104B9000C00AB4EE401A04F13C00F1EE10FA84EDC4
:104BA000045A84ED0D3A84ED0E2A84ED0F1A0CDAC6
:104BB00094ED0B0AB8EEC00AB4EE401AF1EE10FA0A
:104BC000D8BFB0EE401AB0EE410A80ED000ABDEC4D
:104BD000048B01B0F0BD000090ED012A30EEC00A58
:104BE000B1EE425A90ED023A90ED051AB4EE450A44
:104BF00090ED084AF1EE10FAB0EE405AB4EE420AD7
:104C000080ED061A9FED2E6AC8BFB0EE465AF1EE4F
:104C100010FAB8BFB0EE450A23EE002AB0EEC03A53
:104C2000B4EE443AF1EE10FA80ED050A80ED092A5F
:104C300021DAB5EE400AF1EE10FA1CD090ED034AED
:104C400090ED003A90ED0A5A24EE004A34EE054AFF
:104C5000B1EE435AB4EE454AF1EE10FAB4EE434ACF
:104C6000D8BFB0EE454AF1EE10FAB8BFB0EE443A04
:104C700080ED0A3A01E00021816290ED043A90ED66
:104C80000A4A30EE411A90ED0D0A21EE031A32EE77
:104C9000042A80ED0B1A31EE021AB1EE402AB4EE6E
:104CA000421AF1EE10FAB4EE401AD8BFB0EE421A32
:104CB000F1EE10FAB8BFB0EE410A80ED0C0A704771
:104CC00000000000000000000000000000000000E4
:104CD000EFF30980BFF36F8F154B1A681EF0100FAA
:104CE00008BF20ED108A20E9F04F10602DE909007F
:104CF0004FF0500080F31188BFF34F8FBFF36F8FD9
:104D000004F092FD4FF0000080F31188BDE8090027
:104D100019680868B0E8F04F1EF0100F08BFB0EC3B
:104D2000108A80F30988BFF36F8F704700BF00BF00
:104D30005C1600202DE9F04140F67028C2F2000810
:104D400098F80030012B40F0BA80C2F3074301EE1F
:104D5000103AB8EEC11A21EE001AD6B2BDEEC11A51
:104D6000C2F3072211EE103A01EE102AB8EEC11A72
:104D700021EE001ABDEEC11A11EE102A01EE106AE2
:104D8000B8EEC11A21EE000ABDEEC00A40F6EC24CE
:104D900010EE105A6FF00506C2F20004A71906368D
:104DA000B6F5FC7FFB803A817D81F7D140F6125247
:104DB000C2F20002E623FEF791FD40F6DE60C2F289
:104DC0000000007840F610520021C2F200020128D3
:104DD00088F8001011803CD0002870D140F688215E
:104DE0006288C2F200018B1E072500BF22FA05F778
:104DF000FF074FF04907A5F1010508BF1F276E1CEB
:104E000023F8027FF2D1228801F10E03072500BFAB
:104E100022FA05F7FF074FF04907A5F1010508BF82
:104E20001F276E1C23F8027FF2D1A2881E310723B0
:104E300022FA03F7FF074FF04907A3F1010308BF68
:104E40001F275E1C21F8027FF2D1012818BFBDE8A0
:104E5000F08140F6BA206188C2F20000821E07236A
:104E600021FA03F7FF074FF04907A3F1010308BF39
:104E70001F275E1C22F8027FF2D1218800F10E026A
:104E8000072300BF21FA03F7FF074FF04907A3F1FB
:104E9000010308BF1F275E1C22F8027FF2D1A18800
:104EA0001E30072221FA02F3DB074FF04903A2F17B
:104EB000010208BF1F23571C20F8023FF2D1BDE8B2
:104EC000F0810000A0F20120072828BF072088BF3A
:104ED000704780B540F6DF6C0B68C0EBC002C2F2D1
:104EE000000C0CEB020ED1F803104CF8023040F627
:104EF000387CC2F2000CCEF8031019BA5CF82030EE
:104F00000A0CC3EB114140F6687EB1F5805FC2F236
:104F1000000E04DB4EF20101CFF6FF7104E011F543
:104F2000805F06DC41F6FF715EF8203019444EF8D0
:104F300020105EF820104CF82020114440F6187222
:104F4000C2F2000242F82010BDE880407047000025
:104F500040F61871C2F2000101EB800050F8040C19
:104F60007047000010B586B04A1ED2B2072A45D855
:104F700042F210729042B8BF02464DF6F000CFF6F2
:104F8000FF708242D8BF02460846052928BF043870
:104F900040F65874C0B240F66073C2F2000412BA10
:104FA000C2F2000338BF1C4604EB4000120C042977
:104FB00020F8022C4FF0000023D8CDE902004FF476
:104FC000007000900820049041F24820C2F20000D6
:104FD000FCF77EFD000608D141F24824C2F200042D
:104FE0002046FCF775FD0006FAD041F2482040F655
:104FF0006072C2F20000C2F2000222E0012006B09C
:1050000010BDCDE9020040F2FF100090082004908E
:1050100041F28020C2F20000FCF75AFD000608D1E0
:1050200041F28024C2F200042046FCF751FD000644
:10503000FAD041F2802040F65872C2F20000C2F26B
:10504000000269460123FCF7F1FB002006B010BD09
:10505000013840F66872C0B2C2F2000242F8201075
:10506000704700002DE9F0472DED068B82B0814698
:1050700001385FFA80FA4FEACA0140F20C0851FA8F
:1050800080F0C2F2000840F6187108EBC0075FFA22
:1050900089F0C2F2000101EB800010ED011A97EDDA
:1050A000018AB8EEC19A30EE49AA1AEE100A87EDCD
:1050B000000A87ED068A87ED019A07F1080487ED5B
:1050C00002AAFBF764FD41EC100B05468DED000BC9
:1050D0009DF807000E4680F080008DF80700DDE99E
:1050E0000001B5EE40AAF1EE10FAD8BF0546386CC3
:1050F000D8BF0E46FBF74BFD02460B46284631460D
:10510000FBF7D2FC002804BF002020600AEBCA0095
:1051100008EBC00094ED000A90ED041A90ED115ACE
:1051200030EE011AB1EE456A90ED072A90ED083A8B
:10513000B4EE461A90ED094AF1EE10FAB4EE451AB3
:10514000D8BFB0EE461AF1EE10FAB8BFB0EE415A31
:1051500020EE021A25EE032A38EE490A20EE043A20
:1051600031EE020A80ED0C1A90ED0A1A30EE030AB5
:10517000B8EEC11AB4EE410A00F13C02F1EE10FAA9
:1051800080ED045A80ED0D2A80ED0E3A80ED0F0A75
:105190000CDA90ED0B1AB8EEC11AB4EE410AF1EE3A
:1051A00010FAD8BFB0EE410AB0EE401ABDEEC10A07
:1051B00010EE100A494682ED001A02B0BDEC068BD3
:1051C000BDE8F047AFF300802DE9F0472DED068BE9
:1051D00082B04A1E5FFA82FA00EE100A4FEACA0055
:1051E00040F24C2850FA82F0C2F200085FFA81F9CE
:1051F00040F6DF6108EBC007C9EBC900C2F200014D
:10520000084410F9051C10F8040C97ED018ACAB285
:10521000B8EEC00A40EA022087ED000A87ED058A51
:105220004FF6FF72002948BF801A01EE100AB8EE4F
:10523000C19A30EE49AA1AEE100A87ED019A07F1D9
:10524000080487ED02AAFBF7A2FC41EC100B05460F
:105250008DED000B9DF807000E4680F080008DF864
:105260000700DDE90001B5EE40AAF1EE10FAD8BF63
:105270000546386CD8BF0E46FBF789FC02460B4644
:1052800028463146FBF710FC002804BF00202060B0
:105290000AEBCA0008EBC00094ED000A90ED041A76
:1052A00090ED115A30EE011AB1EE456A90ED072AE1
:1052B00090ED083AB4EE461A90ED094AF1EE10FA74
:1052C000B4EE451AD8BFB0EE461AF1EE10FAB8BFE8
:1052D000B0EE415A20EE021A25EE032A38EE490AB2
:1052E00020EE043A31EE020A80ED0C1A90ED0A1A13
:1052F00030EE030AB8EEC11AB4EE410A00F13C02E6
:10530000F1EE10FA80ED045A80ED0D2A80ED0E3A90
:1053100080ED0F0A0CDA90ED0B1AB8EEC11AB4EE5C
:10532000410AF1EE10FAD8BFB0EE410AB0EE401AD1
:10533000BDEEC10A10EE100A494682ED001A02B015
:10534000BDEC068BBDE8F047FFF70CBE0000000087
:105350002DE9F0472DED068B0588B0F802A0044634
:10536000554502D100202080EAE041F218229FED4D
:105370007A0BC2F2000251EC100B92ED020B92ED8F
:10538000008B92ED049B53EC102BFBF770FA41EC71
:10539000100B40F68876C2F2000686ED000B04EB97
:1053A000C50797ED020B53EC182B86ED060B9FED0E
:1053B0006C0B51EC100BFBF75AFA41EC100B86ED1D
:1053C000020B97ED040B86ED049B86ED080B97ED21
:1053D000060B86ED0A0B97ED0C0B97ED0E9B97EDE8
:1053E00010AB97ED128B51EC100BFBF7E3FB40F287
:1053F0000C68C2F20008C8F8080051EC190BFBF762
:10540000D9FBC8F80C0051EC1A0BFBF7D3FB97ED56
:105410001E0BC8F8100051EC100BFBF7CBFB97EDFF
:10542000240BC8F8340051EC100BFBF7C3FBC8F891
:10543000000051EC180BFBF7BDFB40F2446997EDFF
:10544000140BC2F20009C9F8080051EC100BFBF76D
:10545000B1FB97ED160BC9F80C0051EC100BFBF7E4
:10546000A9FB97ED200BC9F8100051EC100BFBF7CE
:10547000A1FB97ED260BC9F8340051EC100BFBF79C
:1054800099FB97ED180BC9F8000051EC100BFBF7D6
:1054900091FB40F2D45697ED1A0BC2F20006B060B1
:1054A00051EC100BFBF786FB97ED1C0BF06051ECF9
:1054B000100BFBF77FFB97ED220B306151EC100BCB
:1054C000FBF778FB97ED280B706351EC100BFBF7A3
:1054D00071FB306000F054F940F60850C2F2000051
:1054E0000068FBF754FB2788024604EBC70696EDDD
:1054F000080B0B4651EC100BFBF7A0FA00BB40F673
:105500000C50C2F200000068FBF741FB96ED0A0B5D
:1055100002460B4651EC100BFBF790FA80B940F6AF
:105520000650C2F2000001784A1C6429027007D1BB
:10553000791C21800021C8F82810C9F828100170B2
:10554000A5EB0A00B0FA80F04009BDEC068BBDE87F
:10555000F08700BF00BF00BF000000000000104047
:1055600000000000008017402DE9F0472DED068B6C
:105570000588B0F802A00446554502D100202080DD
:10558000EAE041F218229FED7A0BC2F2000251ECE0
:10559000100B92ED020B92ED008B92ED049B53ECFD
:1055A000102BFBF764F941EC100B40F68876C2F241
:1055B000000686ED000B04EBC50797ED020B53ECDC
:1055C000182B86ED060B9FED6C0B51EC100BFBF7C7
:1055D0004EF941EC100B86ED020B97ED040B86EDB6
:1055E000049B86ED080B97ED060B86ED0A0B97EDF5
:1055F0000C0B97ED0E9B97ED10AB97ED128B51ECCA
:10560000100BFBF7D7FA40F20C68C2F20008C8F89A
:10561000080051EC190BFBF7CDFAC8F80C0051EC5F
:105620001A0BFBF7C7FA97ED1E0BC8F8100051ECE8
:10563000100BFBF7BFFA97ED240BC8F8340051ECC0
:10564000100BFBF7B7FAC8F8000051EC180BFBF78A
:10565000B1FA40F2446997ED140BC2F20009C9F89F
:10566000080051EC100BFBF7A5FA97ED160BC9F8E3
:105670000C0051EC100BFBF79DFA97ED200BC9F8CD
:10568000100051EC100BFBF795FA97ED260BC9F8BB
:10569000340051EC100BFBF78DFA97ED180BC9F89D
:1056A000000051EC100BFBF785FA40F2D45697ED51
:1056B0001A0BC2F20006B06051EC100BFBF77AFA3D
:1056C00097ED1C0BF06051EC100BFBF773FA97EDA4
:1056D000220B306151EC100BFBF76CFA97ED280BA5
:1056E000706351EC100BFBF765FA306000F0E0F9E5
:1056F00040F60850C2F200000068FBF748FA27881D
:10570000024604EBC70696ED080B0B4651EC100B56
:10571000FBF794F900BB40F60C50C2F200000068A1
:10572000FBF735FA96ED0A0B02460B4651EC100BCF
:10573000FBF784F980B940F60650C2F20000017808
:105740004A1C6429027007D1791C21800021C8F805
:105750002810C9F828100170A5EB0A00B0FA80F0F3
:105760004009BDEC068BBDE8F08700BF00BF00BF5D
:105770000000000000001040000000000080174002
:105780002DE9F04F81B02DED068B40F68874C2F202
:10579000000494ED000B94ED069B51EC100BFBF70D
:1057A00009FA08EE100A51EC190BFBF703FA00EEA8
:1057B000900A40F20C60C2F20000B0EE480AFFF717
:1057C0000BFA10EE100AFBF7E2F941EC100B94ED26
:1057D000089B84ED0C0B94ED020B51EC100BFBF7C6
:1057E000E9F908EE100A51EC190BFBF7E3F900EEAA
:1057F000900A40F24460C2F20000B0EE480AFFF79F
:10580000EBF910EE100AFBF7C2F941EC100B94ED26
:105810000A9B84ED0E0B94ED040B51EC100BFBF77F
:10582000C9F908EE100A51EC190BFBF7C3F900EEA9
:10583000900A40F2D450C2F20000B0EE480AFFF7DE
:10584000CBF910EE100AFBF7A2F941EC100B41F274
:105850001820C2F2000084ED100B9FED8F0B90ED2D
:10586000041B59EC10AB94ED0C9B074651EC110B4B
:1058700052464B46FBF701F89FED890B55EC106B38
:1058800032462B46FBF76BF841EC100B04F038FF67
:1058900097ED041B94ED0EABB0EE408A51EC110B6A
:1058A00052464B46F0EE608AFAF7E7FF32462B4647
:1058B000FBF755F841EC100B04F086FF53EC102B6E
:1058C00051EC1A0BFAF7D9FF04460F4653EC182B8C
:1058D00051EC190BFAF7D1FF22463B46FAF726FFA7
:1058E00041F21824C2F2000494ED041B41EC100BA9
:1058F00040F6887783468846C2F2000751EC110BC8
:1059000052464B4687ED0C0BFAF7B7FF32462B4653
:10591000FBF725F841EC100B04F056FF94ED041B47
:1059200097ED0E9BB0EE408A51EC110B52464B4660
:10593000F0EE608AFAF7A1FF32462B46FBF70FF82C
:1059400041EC100B04F0DCFE53EC102B51EC190B66
:10595000FAF793FF04460D4653EC182B5846414680
:10596000FAF78BFF22462B46FAF7E0FE41EC100BCC
:10597000024687ED0E0B97ED0C0B0B4697ED108B47
:1059800051EC100B3D46FAF772FF53EC182BFAF767
:10599000CDFE9FED450B57EC104B22463B46FAF7E8
:1059A0006CFFFBF7D5F80121FFF70EFC95ED0C0B12
:1059B00095ED0E1B95ED108B51EC110B53EC102B4C
:1059C000FAF7B4FE02460B4651EC180BFAF74FFFFC
:1059D00022463B46FAF751FFFBF7BAF80221FFF7E0
:1059E000F3FB95ED0C0B95ED0E1B95ED108B51EC2B
:1059F000110B53EC102BFAF799FE53EC182BFAF716
:105A000095FE22463B46FAF738FFFBF7A1F8032143
:105A1000FFF7DAFB95ED0C0B95ED0E1B95ED108B5A
:105A200051EC110B53EC102BFAF721FF02460B46F9
:105A300051EC180BFAF77AFE22463B46FAF71DFFA7
:105A4000FBF786F80421FFF7BFFB40F24460C2F287
:105A5000000090ED050A40F20C60C2F2000090EDEB
:105A6000051A20EE000A21EE011A40F6085031EE28
:105A7000000AC2F2000080ED000A40F2D450C2F2E7
:105A80000000406940F60C51C2F200010860BDEC14
:105A9000068B01B0BDE8F08F1F85EB51B81E0940A1
:105AA0000000000000806640000000000000F83F99
:105AB0002DE9F04F81B02DED068B40F68874C2F2CF
:105AC000000494ED000B94ED069B51EC100BFBF7DA
:105AD00071F808EE100A51EC190BFBF76BF800EEA9
