:020000040800F2
:1000000058B700205D020008E94C0008414600088E
:10001000E54C0008650F0008A36C00080000000014
:100020000000000000000000000000009D0100082A
:100030005F11000800000000F90100082D620008AF
:1000400077020008770200087702000877020008AC
:10005000770200087702000877020008770200089C
:1000600077020008770200087702000845100008B0
:10007000770200087702000877020008770200087C
:10008000770200087702000877020008770200086C
:10009000690F000877020008790F0008770200084E
:1000A000770200087702000877020008770200084C
:1000B0007702000829630008770200087702000829
:1000C000770200087702000877020008770200082C
:1000D000115500087702000877020008770200082F
:1000E000770200087702000877020008770200080C
:1000F0006963000859630008770200087702000866
:1001000077020008770200083963000877020008C8
:10011000F1650008016600084963000877020008DD
:1001200077020008770200087702000877020008CB
:1001300077020008000000000000000077020008BD
:1001400077020008890F0008990F0008770200085D
:10015000770200087702000877020008770200089B
:10016000770200087702000877020008770200088B
:10017000770200087702000800000000000000007D
:100180007702000877020008DFF80CD000F0F2FBDD
:1001900000480047996D000858B700202C4B19689B
:1001A0000868B0E8F04F80F30988BFF36F8F4FF015
:1001B000000080F3118870470000000008480068C4
:1001C000006880F308884FF0000080F3148862B65E
:1001D00061B6BFF34F8FBFF36F8F00DF00BF00BF6B
:1001E00008ED00E0DFF80C00016841F470010160E7
:1001F000704700BF88ED00E0EFF30980BFF36F8F19
:10020000134B1A681EF0100F08BF20ED108A20E96A
:10021000F04F106009B44FF0500080F31188BFF325
:100220004F8FBFF36F8F07F0F1FB4FF0000080F3AB
:10023000118809BC19680868B0E8F04F1EF0100F6B
:1002400008BFB0EC108A80F30988BFF36F8F704746
:10025000C0050020EFF30580704700000648804786
:1002600006480047FEE7FEE7FEE7FEE7FEE7FEE79B
:10027000FEE7FEE7FEE7FEE71563000889010008D8
:100280002DE9F05F0546002092469B4688460646CB
:10029000814640241BE0284641464746224600F05E
:1002A00082FA53465A46C01A914110D31146184655
:1002B000224600F069FA2D1A67EB01084F462246E4
:1002C0000120002100F060FA17EB00094E41201ECA
:1002D000A4F10104DFDC484631462A464346BDE826
:1002E000F09F40EA01039B0703D009E008C9121FF1
:1002F00008C0042AFAD203E011F8013B00F8013BE0
:10030000521EF9D27047D2B201E000F8012B491E0B
:10031000FBD270470022F6E710B513460A460446A2
:100320001946FFF7F0FF204610BD00000FB400B5DE
:100330008DB010A909900B9000914FF0FF300A90FA
:1003400000200C9005480690054807906A4609A8C9
:100350000F9900F04DFA0DB05DF814FB0D08000880
:100360002B0800082DE9FF5F1D464FF0FF3BD5E944
:10037000014691465F464FF00008A9697F1C01982D
:100380008847296A824688470028F6D1BAF1FF3F9C
:100390000CD024F4C064002E19DD600614D5BAF127
:1003A0002B0F09D0BAF12D0F0ED103E0584604B03F
:1003B000BDE8F09F44F48064A9697F1C01988847D8
:1003C000761E8246002E02DDBAF1300F03D0B9F15D
:1003D000000F26D032E0A969761E44F400747F1C19
:1003E000019888478246002E05DDBAF1780F06D0C5
:1003F000BAF1580F03D0B9F1000F10D01EE0B9F1D7
:10040000000F02D0B9F1100F18D1A969761E24F49B
:1004100000747F1C019888478246102002E0082063
:1004200000E00A20814609E008FB0908A969761E58
:1004300044F400747F1C019888478246002E05DD35
:100440004946504600F0BFF90028EDDAE969019805
:100450008847A00502D46FF00100A8E7E00725D186
:10046000600613D5600502D5C8F1000000E04046E3
:1004700029680A1D2A600968220501D5087015E05F
:10048000220701D5088011E008600FE02868011DEF
:1004900029600068210502D580F8008006E0210768
:1004A00002D5A0F8008001E0C0F8008038467EE761
:1004B000F0B480EA0102D40F4200B2EB410F02D245
:1004C0000246084611464A0042D0C30DDDB2C1F3D0
:1004D000C752AD1A202D35DAC1F3160141F40002DE
:1004E00004B15242C5F1200602FA06F12A41104435
:1004F000B3EBD05F23D0C4B1012DA0EBC35009DC16
:10050000F0BC4FF0004202EAC352DBB200F500003B
:1005100000F0A5B9400000F1807000EBC350A0F1DD
:10052000807040EAD170490009E0490841EAC07191
:10053000A0EBC35000F50000400800EBC350F0BC36
:1005400000F084B96142012202EB4101001BF6E791
:10055000F0BC704781F00041AAE780F00040A7E7B7
:1005600030B480EA010202F0004530F0004221F090
:10057000004013D090B1C30DD40DC2F31601C0F3E7
:100580001600E41A41F4000140F400027D34914267
:1005900001D3641C00E04900002C02DA30BC0020CA
:1005A00070474FF400000023914201D3891A03439E
:1005B00040084FEA4101F7D151B1914202D14FF0C9
:1005C000004105E002D24FF0010101E06FF00101AE
:1005D00003EBC450284430BC00F038B92DE9FE4F7D
:1005E00081EA030404F0004421F0004100944FF03C
:1005F000000B23F0004350EA01045ED052EA0304EA
:100600005BD0C3F30A54C1F30A552C44A4F2F3346B
:100610000194A0FB0254C1F3130141F48011C3F310
:10062000130343F4801301FB024400FB034E840ACE
:10063000970A44EA815447EA8357A4FB0768029566
:100640008D0A05FB07854FEA932C04FB0C54270504
:10065000029D4FEA065847EA1637B5EB08056EEBE0
:10066000070C870E920E47EA811742EA8312A7FB16
:100670000201B6EB0B0164EB00042B0D43EA0C33D3
:100680005E1844EB1C50DA465146E7FB0201C5F305
:1006900013044FEA0B3343EA14534FEA0432019C2C
:1006A00043EA0603A4F10C040294009CCDE900B4D3
:1006B00000F012F903B0BDE8F08F00200146F9E721
:1006C00096230022114600F0CAB800F0004230F034
:1006D00000400AD0C10D01F56071C0F3160042EA76
:1006E0000151C2084007114370470020014670477E
:1006F00030B5041E71F1000404DB4FF000444042A9
:1007000064EB0101141E73F1000405DB1C464FF07D
:100710000043524263EB04038B4208BF824230BD68
:1007200030B5041E71F1000404DB4FF00044404278
:1007300064EB0101141E73F1000405DB1C464FF04D
:100740000043524263EB0403994208BF904230BD1C
:1007500001F0004330B421F0004150EA010206D01C
:100760000A0DA2F56072C1F31301002A02DC30BC4D
:1007700000207047440F44EAC104C100E01830BCB7
:1007800000EBC25000F062B8202A04DB203A00FAE5
:1007900002F1002070479140C2F1200320FA03F3D8
:1007A000194390407047202A04DB203A21FA02F0D6
:1007B0000021704721FA02F3D040C2F1200291409B
:1007C0000843194670473A2800D2303820F02002FA
:1007D000412A01D3A2F13700884201D34FF0FF3004
:1007E0007047000002681144137801601846704792
:1007F000D16004495161044911620021116111461F
:1008000000F0D0B8E507000899090008426842B135
:10081000016811F8013B23B1521EC0E900121846CD
:1008200070470121C160881E704742685AB1C36891
:10083000016843B983688B4205D0491E521CC0E948
:100840000012002070474FF0FF3070470029A8BF0A
:100850007047401C490008BF20F00100704710B4E9
:10086000B0FA80FC00FA0CF050EA010404BF10BC9E
:10087000704749B1CCF1200421FA04F411FA0CF1CB
:1008800018BF012121430843A3EB0C01CB1D4FEA04
:1008900000614FEA102042BF002010BC704700EBFF
:1008A000C35010440029A4BF10BC7047401C49002D
:1008B00008BF20F0010010BC704710B5141E73F182
:1008C000000408DA401C41F1000192185B411A4310
:1008D00001D120F0010010BD2DE9F04D92469B465C
:1008E00011B1B1FA81F202E0B0FA80F22032904602
:1008F000FFF74AFF04460F4640EA0A0041EA0B01AF
:1009000053465A46084313D0114653EA010019D002
:10091000C8F140025046FFF746FF05460E465046D6
:1009200059464246FFF730FF084305D0012004E056
:1009300020463946BDE8F08D0020054346EAE076C2
:100940002C4337430A986305E40AA0EB0800002211
:10095000FD0A44EA47540A3002D500200146E9E77F
:10096000010510196941DDE9084500196941BDE833
:10097000F04DA2E7064C074D06E0E06840F00103A9
:1009800094E8070098471034AC42F6D3FFF700FC18
:100990003081000850810008C0B24FF4F05100F0DF
:1009A00097B900002DE9F34F8BB04FF0000801F12B
:1009B0000C000C464FF0010B46460DF1080A019061
:1009C0006269012101989047051E2DD0252D2CD05C
:1009D000216A8847C0B16269012101989047216A64
:1009E00088470028F7D1411E62690198904700E0CE
:1009F000761CA1690B988847216A88470028F7D19F
:100A0000E1690B988847DBE7A1690B98884707469F
:100A1000A84201D1761CD3E7E1690B9888477F1C77
:100A200002D1B8F1000F6FD046E1002762693D4660
:100A30003946019890472A2804D16269012101981A
:100A400090470125DFF8849262690121019890475F
:100A5000A0F130010A290AD24F45E5DC07EB8701F6
:100A600000EB4107303FDFD445F01005ECE7E90625
:100A700001D46FF000476C280AD04C2814D06828A5
:100A800015D06A280DD074281CD07A281AD01DE001
:100A900062690121019890476C2802D045F0040555
:100AA00014E045F002050DE045F020050AE062691A
:100AB000012101989047682802D045F0080505E01B
:100AC00045F400656269012101989047C4E9015726
:100AD00065283DD019DC58287AD00CDC452837D061
:100AE00004DC252826D0412831D131E046282FD0FA
:100AF00047282CD12CE05B2877D0612828D06328A8
:100B00007CD0642823D15AE0D0E06F2848D008DC9C
:100B100066281DD067281BD0692821D06E2816D1E1
:100B200027E0702845D0732868D0752847D07828EA
:100B30000DD14DE0A1690B988847054625283FF463
:100B400069AFE1690B9888476D1C3FF46AAFB3E069
:100B500023466A466FF001000B99AFF300809EE0D8
:100B600045F040006060A80723464FF0000236D4ED
:100B70003EE0E8077FF447AF2068011D2160006870
:100B8000290501D506701BE7290701D5068017E75F
:100B9000A90703D5F117C0E9006111E706600FE767
:100BA00045F040006060A80723464FF0080216D4C5
:100BB0001EE040F60E0125EA0100606016E045F0F7
:100BC00040006060A80723464FF00A0207D40FE0F8
:100BD00045F040006060A80708D5234610226FF05A
:100BE00001000B99AFF3008059E007E02346102283
:100BF0006FF001000B99FFF7B5FB50E04FF00009D3
:100C00004F464B46632802D05B2806D040E0E806FA
:100C100001D40120A06001273AE062690121019816
:100C200090475E2805D14FF0010962694946019855
:100C30009047216939B900210A46534643F82120DB
:100C4000491C0829FADBB0B3216969B9C11700EB67
:100C5000D16253110AEB830122F01F02821A012094
:100C60000B68904003430B60626901210198904733
:100C70005D28E8D1B9F1000F09D00020514651F8A4
:100C80002020D24341F82020401C0828F7DB02AB8B
:100C9000224600976FF001000B99AFF30080002807
:100CA0000CDA401C08D1BBF1000F05D04FF0FF302B
:100CB0000DB0BDE8F08FFFE74046F9E7E90701D145
:100CC00008F1010806444FF0000B79E6CCCCCC0CBF
:100CD0007F2801D9002208E0064A02EB5002C00733
:100CE000127800D1120902F00F0201209040084052
:100CF000704700008880000870B58C1810F8015B00
:100D000015F0070301D110F8013B2A1106D110F8A4
:100D1000012B03E010F8016B01F8016B5B1EF9D1A8
:100D20002B0705D40023521E0DD401F8013BFAE72E
:100D300010F8013BCB1A921C03E013F8015B01F899
:100D4000015B521EF9D5A142D8D3002070BD00002E
:100D50002DE9F04F83B00027154689468346B7EB4F
:100D6000910F20D04FEA990000275E460295C0F10E
:100D7000000829F00300019096E832043846FFF796
:100D800097FB2146FFF794FB2946FFF791FB51465D
:100D9000FFF78EFB0746103618F10108ECD10198D9
:100DA000029D0BEB800B19F0030009D0444200BFF9
:100DB0005BF8041B3846FFF77BFB07460134F7D18D
:100DC0004846FFF77DFC01463846FFF7C9FB28601F
:100DD00003B0BDE8F08F000010B54F480078002840
:100DE00074D04E4804786C2C01D0722C1ED14C4B20
:100DF0004C4A4DA14948401CFFF798FA6C2C02D090
:100E0000722C12D108E047480068494908604448FC
:100E100000684849086008E04248006846490860A0
:100E20003F4800684549086000BF69E0782C44D11C
:100E30003A4840784C2837D00ADCA0F13C00092819
:100E40003AD2DFE800F01B392239390E15392D006E
:100E500052282DD055281FD058280DD059282BD1D5
:100E60000BE00020364908704E203649087023E018
:100E70005720344908701FE01EE01DE0572031491B
:100E800008706C202E49087016E057202D49087014
:100E900072202B4908700FE001202B4908700BE0ED
:100EA00001202A49087007E001202949087003E061
:100EB00001202849087000BF22E06B2C20D1174880
:100EC00040783C2803D03E2819D10CE023E06C2068
:100ED0002149087011488078303820490870042072
:100EE000174908700BE072201B4908700B48807886
:100EF00030381A49087004201149087000BF00BF3B
:100F00004FF480710548FFF705FA00201449087076
:100F10000149087000BF10BD550500205C75002018
:100F20006C0500206805002025643B256400000056
:100F3000580500205C0500206005002064050020A5
:100F4000700500207105002088050020890500201B
:100F50008A0500208B050020720500207305002003
:100F60005405002000BFFEE710B5024800F053FB17
:100F700010BD00007C08002010B5024800F04BFBBB
:100F800010BD00007C08002010B5024800F043FBB3
:100F900010BD0000A408002010B5024800F03BFB83
:100FA00010BD0000A408002030B58BB005462349D1
:100FB0002868096888421AD100200690079001200D
:100FC0000890002001900290039004900590012069
:100FD00009900A9001A9284600F0B2F9284600F0CD
:100FE0006AFE0221284600F0EBF8044620E014498E
:100FF0002868096888421BD10F20069000200790BE
:10100000012008900020019002900390049001209C
:10101000059009900F200A9001A9284600F090F948
:10102000284600F048FE1021284600F0C9F8044682
:101030000CB100F095F80BB030BD00007C0800202A
:10104000A408002010B5024800F0D6FE10BD000034
:10105000CC0A00200146087810381823B0FBF3F2C0
:101060000848805CC865032A05D908686FF3090041
:10107000001D886503E008686FF309008865886DC6
:101080007047000068800008014600208A6A8B696A
:10109000CBB932B1012A0DD0022A03D0032A10D1D4
:1010A0000EE000BFCB6A03F08073B3F1807F00D104
:1010B000012007E0CB6AB3F1C07F00D1012001E03D
:1010C00000E000BF34E08B69B3F5005F1AD132B1A4
:1010D000012A07D0022A03D0032A11D10AE000BF57
:1010E00001200EE0CB6A03F08073B3F1807F00D162
:1010F000012006E0CB6AB3F1C07F00D1012000E0FF
:1011000000BF15E032B1012A05D0022A04D0032A1B
:101110000CD103E000BF00BF012008E0CB6A03F060
:101120008073B3F1807F00D1012000E000BF00BFD9
:10113000704730B50468246824F4802405682C6066
:10114000046863608468402C04D10468A260046869
:10115000E16003E00468A1600468E26030BD7047AC
:1011600072B600BFFEE7000010B52DED028BB0EEA9
:10117000408AF0EE608A9FED100B53EC102B51EC7F
:10118000180BFFF7CDFA00D20EE09FED0B0B53ECDE
:10119000102B51EC180BFFF7ABFA05D851EC180BDC
:1011A00081F0004141EC180BB0EE480AF0EE680AFD
:1011B000BDEC028B10BD000000000000000000002C
:1011C00010B5024692F82030012B01D0022B06D137
:1011D00010684069084314686061002010BD506ABF
:1011E00040F4802050620120F8E7F0B504460D4637
:1011F0001E4694F8207020688368A86800B900E053
:1012000000BF012F01D0022F7CD103F0806030B9E4
:1012100003F0006018B903F08050002873D0C3F3C6
:101220000161022905D9606A40F400006062012072
:10123000F0BD012088403060A86860B9B5F800C0F2
:10124000E86840EA4C5C206800F5C07000EB0110D3
:10125000C0F800C00FE0D5E901C040EACC00D5F8E5
:101260000CC040EA0C00D4F800C00CF5C07C0CEBBC
:10127000011CCCF80000D5F810C0206800F5C07043
:1012800000EB0110C0F804C0287D01280ED12068B1
:1012900000F5C07000EB0110406840F4807C2068CD
:1012A00000F5C07000EB0110C0F804C0D079000652
:1012B00092F806C040EA0C4092F805C040EA0C2CB7
:1012C00010794CEA000C206800F5C07000EB0110AA
:1012D000C0F80CC0D078000692F802C040EA0C407A
:1012E00092F801C040EA0C2092F800C040EA0C00DD
:1012F000D4F800C00CF5C07C0CEB011CCCF8080045
:10130000206801E016E00FE000F5C07000EB01106E
:10131000006840F0010C206800F5C07000EB01107F
:10132000C0F800C0002083E7606A40F400106062EB
:1013300001207DE7606A40F480206062012077E749
:10134000F0B504460A46216894F82050012D01D0DA
:10135000022D7ED1424901F50071086840F001007C
:101360000860086820F47C5008600868566A40EA03
:1013700006200860107D00F01F06012000FA06F329
:10138000C8699843C861A1F50071D069C8B9D1F89E
:101390000C029843C1F80C02908880B2968940EA0A
:1013A000064601F51070576940F83760108880B222
:1013B000168940EA064601F51070576900EBC70030
:1013C0004660D069012819D1D1F80C021843C1F840
:1013D0000C02908880B2168840EA064601F510702B
:1013E000576940F83760908980B2168940EA06460E
:1013F00001F51070576900EBC7004660906928B985
:10140000D1F804029843C1F8040204E0D1F80402C0
:101410001843C1F80402106928B9D1F8140298439E
:10142000C1F8140204E0D1F814021843C1F8140200
:10143000106A012804D1D1F81C021843C1F81C021B
:10144000D1F8000220F00100C1F800020020F0BD38
:10145000FFE7606A40F4802060620120F7E7000047
:1014600000640040704770B5044694F82050012D88
:1014700001D0022D7DD151B92068C06800F0030071
:1014800080B9606A40F400106062012070BD20687D
:10149000006900F0030028B9606A40F4001060623F
:1014A0000120F3E7206800F5D87000EB0110006818
:1014B00000F004009060906840B9206800F5D87092
:1014C00000EB01100068400D106007E0206800F597
:1014D000D87000EB01100068C0085060206800F56B
:1014E000D87000EB0110006800F00200D0602068A6
:1014F00000F5D87000EB0110406800F00F0010619B
:10150000206800F5D87000EB0110406800F47F40BF
:10151000000A9061206800F5D87000EB0110406867
:10152000000C5061206800F5D87000EB0110806855
:101530001870206800F5D87000EB0110806800F486
:101540007F40000A5870206800F5D87000EB011049
:10155000806800F47F00000C9870206800F5D87057
:1015600000EB01108068000ED870206800F5D8707C
:1015700000E02FE000EB0110C0681871206800F552
:10158000D87000EB0110C06800F47F40000A587169
:10159000206800F5D87000EB0110C06800F47F00EF
:1015A000000C9871206800F5D87000EB0110C0683D
:1015B000000ED87131B92068C06840F0200026685C
:1015C000F06005E02068006940F020002668306186
:1015D00000205BE7606A40F480206062012055E7EC
:1015E0000146002091F82020012A01D0022A11D1C1
:1015F0000B689B6803F0806303B1401C0B689B6819
:1016000003F0006303B1401C0B689B6803F0805338
:1016100003B1401C70472DE9F05F044600252068A7
:1016200046692068D0F80490206887682068D0F860
:101630000CA02068D0F810B02068D0F8188006F010
:101640000100002855D007F00100C0B10120216839
:10165000886007F0020018B1204600F05CFB0EE045
:1016600007F0040010B145F4006508E007F0080039
:1016700010B145F4805502E0204600F04BFB07F422
:101680008070C8B14FF480702168886007F40070E2
:1016900018B1204600F041FB0EE007F4806010B165
:1016A00045F4005508E007F4006010B145F48045AA
:1016B00002E0204600F030FB07F48030C8B14FF460
:1016C00080302168886007F4003018B1204600F0AF
:1016D00026FB0EE007F4802010B145F4004508E039
:1016E00007F4002010B145F4803502E0204600F0F8
:1016F00015FB06F0080038B10AF0100020B145F4DF
:10170000007510202168C86006F0040040B10AF09E
:10171000080028B108202168C860204600F01EFAA1
:1017200006F0020038B12068C06800F0030010B174
:10173000204600F015FA06F0400038B10BF010001A
:1017400020B145F4806510202168086106F0200072
:1017500040B10BF0080028B108202168086120463C
:1017600000F082FA06F0100038B12068006900F03D
:10177000030010B1204600F079FA06F4003040B1C1
:1017800009F0100028B1102021684860204600F0C0
:1017900091FA06F4803040B109F0080028B1082021
:1017A00021684860204600F0BBFA06F4004088B388
:1017B00009F0040078B306F4807020B108F001004D
:1017C00008B145F0010506F4007020B108F00200F0
:1017D00008B145F0020506F4806020B108F004006D
:1017E00008B145F0040506F40060A0B108F07000EF
:1017F00088B108F07000402817D006DC10280BD004
:1018000020280CD0302819D10CE0502810D06028A6
:1018100014D110E01DE019E045F008050FE045F097
:1018200010050CE045F0200509E045F0400506E014
:1018300045F0800503E045F4807500E000BF00BF7F
:101840002068806920F07000216888610420216888
:1018500048602DB1606A284360622046FFF702FEAF
:10186000BDE8F09F70B504460CB9012070BD94F836
:10187000200010B9204600F0AFF82068006840F062
:1018800001002168086000F097FD05460DE000F0BA
:1018900093FD401B0A2808D9606A40F4003060625A
:1018A000052084F820000120E0E72068406800F06F
:1018B00001000028EBD02068006820F002002168B9
:1018C000086000F079FD05460DE000F075FD401B55
:1018D0000A2808D9606A40F400306062052084F864
:1018E00020000120C2E72068406800F002000028C4
:1018F000EBD1207E012806D12068006840F08000EE
:101900002168086005E02068006820F080002168F8
:101910000860607E012806D12068006840F0400021
:101920002168086005E02068006820F04000216818
:101930000860A07E012806D12068006840F02000E1
:101940002168086005E02068006820F02000216818
:101950000860E07E012806D12068006820F01000B1
:101960002168086005E02068006840F010002168E8
:101970000860207F012806D12068006840F0080038
:101980002168086005E02068006820F008002168F0
:101990000860607F012806D12068006840F00400DC
:1019A0002168086005E02068006820F004002168D4
:1019B0000860D4E9020108432169084361690843CA
:1019C0006168491E08432168C861002060620120E7
:1019D00084F82000002049E710B586B004461421A1
:1019E00001A8FEF797FC5749206888424AD156481B
:1019F0000068401C544908600846006801280FD15F
:101A000000BF002000905148006840F000704F492E
:101A100008600846006800F00070009000BF00BF3A
:101A200000BF0020009049481038006840F00100D5
:101A30004649103908600846006800F0010000902F
:101A400000BF00BF4FF4C050019002200290002060
:101A50000390032004900920059001A93C4800F060
:101A6000ABFB00220621142000F06AFD142000F0D8
:101A700057FD00220621162000F062FD162000F01E
:101A80004FFD5DE033492068884259D100BF0020F6
:101A900000902E48006840F080602C49086008469D
:101AA000006800F08060009000BF00BF264800681A
:101AB000401C254908600846006801280FD100BF76
:101AC000002000902148006840F000701F49086025
:101AD0000846006800F00070009000BF00BF00BF23
:101AE0000020009019481038006840F002001749A3
:101AF000103908600846006800F00200009000BF3E
:101B000000BF4FF44050019002200290002003904B
:101B1000032004900920059001A90F4800F04CFB18
:101B200000220621412000F00BFD412000F0F8FCCE
:101B300000220621422000F003FD422000F0F0FCCC
:101B400006B010BD0064004028000020403802406C
:101B5000000002400068004000040240704700009E
:101B600010B58AB00446374920680968884267D1B1
:101B700000200190029001AB03AA00213148FFF739
:101B800072FC059858B90398B0F5007F07D90398FF
:101B9000B0F5027F03D801A9039803F021F90120D1
:101BA00003F046F900EE100AB8EEC00A264880EDB0
:101BB000000A022003F03CF900EE100AB8EEC00A59
:101BC000224880ED000A032003F032F900EE100AEB
:101BD000B8EEC00A1E4880ED000A042003F028F980
:101BE00000EE100AB8EEC00A1A4880ED000A012083
:101BF00003F016F900EE100AB8EEC00A164880EDA0
:101C0000000A022003F00CF900EE100AB8EEC00A38
:101C1000124880ED000A032003F002F900EE100ADA
:101C2000B8EEC00A0E4880ED000A042003F0F8F870
:101C300000EE100AB8EEC00A0A4880ED000A00BFA4
:101C40000AB010BD7C0800204C0400205404002081
:101C50005C0400206404002050040020580400208C
:101C600060040020680400207047000010B58AB0AE
:101C700004460F4920680968884217D10020019066
:101C8000029001AB03AA01210948FFF7ECFB05987C
:101C900058B90398B0F5007F07D90398B0F5027FD3
:101CA00003D801A9039803F09BF800BF0AB010BD48
:101CB000A4080020704770B5044694F8200001285D
:101CC00022D1022084F820002068006820F0010062
:101CD0002168086000F070FB05460DE000F06CFB29
:101CE000401B0A2808D9606A40F400306062052071
:101CF00084F82000012070BD2068406800F00100D9
:101D00000028EBD16062F6E7606A40F40020606270
:101D10000120F0E770477047704770477047704781
:101D2000704770B50446A56D00F046FB064694F872
:101D30003500022808D08020606500BF002084F8AC
:101D4000340000BF012070BD2068006820F016003C
:101D5000216808602068406920F08000216848619F
:101D6000206C08B9A06C28B12068006820F0080039
:101D7000216808602068006820F001002168086080
:101D800010E000F019FB801B05280BD920206065AE
:101D9000032084F8350000BF002084F8340000BF21
:101DA0000320D0E72068006800F001000028E8D197
:101DB00094F85C103F208840A860012084F835002A
:101DC00000BF002084F8340000BF00BFBBE701461D
:101DD00091F83500022803D0802048650120704723
:101DE000052081F835000868006820F001000A68C5
:101DF00010600020F3E70000F8B5044600200090D2
:101E00008C4800684FF41651B0FBF1F7A56D2E68B1
:101E100094F85C1008208840304098B12068006831
:101E200000F0040070B12068006820F00400216810
:101E3000086094F85C1008208840A860606D40F04D
:101E40000100606594F85C1001208840304068B162
:101E50002068406900F0800040B194F85C100120D7
:101E60008840A860606D40F00200606594F85C10E6
:101E700004208840304068B12068006800F002000B
:101E800040B194F85C1004208840A860606D40F078
:101E90000400606594F85C1010208840304078B3EE
:101EA0002068006800F0080050B394F85C1010201F
:101EB0008840A8602068006800F4802080B1206815
:101EC000006800F4002028B9206CC8B12046216CBD
:101ED000884715E0A06C98B12046A16C88470FE0B8
:101EE0002068006800F4807028B92068006820F03D
:101EF000080021680860206C10B12046216C8847DA
:101F000094F85C10202088403040002865D020687C
:101F1000006800F0100000285FD094F85C102020CA
:101F20008840A86094F83500052828D1206800680A
:101F300020F01600216808602068406920F08000C9
:101F400021684861206C08B9A06C28B1206800683D
:101F500020F008002168086094F85C103F20884059
:101F6000A860012084F8350000BF002084F8340008
:101F700000BF206D10B12046216D8847F8BD206854
:101F8000006800F4802080B12068006800F4002020
:101F900028B9606C10B12046616C88471DE0E06B89
:101FA000D8B12046E16B884717E02068006800F44C
:101FB000807068B92068006820F01000216808600F
:101FC000012084F8350000BF002084F8340000BFF1
:101FD000E06B10B12046E16B8847606D38B3606DEF
:101FE00000F00100F0B1052084F835002068006899
:101FF00020F001002168086000BF0098401C00909C
:10200000B84200D905E02068006800F0010000280F
:10201000F3D100BF012084F8350000BF002084F810
:10202000340000BFE06C10B12046E16C884700BF6F
:10203000A4E70000380000202DE9F0410446002507
:1020400000F0BAF9074614B90120BDE8F081606AD2
:1020500000B100BF022084F8350000BF002084F8E2
:10206000340000BF2068006820F00100216808608B
:102070000AE000F0A1F9C01B052805D92020606501
:10208000032084F83500E0E72068006800F00100D4
:102090000028EED12068056821480540D4E90101F7
:1020A0000843E16808432169084361690843A1695D
:1020B0000843E1690843216A08430543606A04282C
:1020C00003D1D4E90B01084305432068056020686B
:1020D000456925F00705606A0543606A04280DD14B
:1020E000A06A0543E06A48B12046FEF7CDFF28B15B
:1020F00040206065012084F83500A6E7206845612E
:102100002046FEF7A7FF064694F85C103F20884063
:10211000B06000206065012084F83500002094E75D
:102120003F8010F02DE9F04704460D4616461F4645
:102130004FF00008D4F8589000BF94F834000128FC
:1021400002D10220BDE8F087012084F8340000BFEE
:1021500094F83500012825D1022084F835000020AC
:1021600060653B46324629462046FEF7E2FF94F87A
:102170005C103F208840C9F808002068006840F0E3
:10218000160021680860206C28B12068006840F0C3
:102190000800216808602068006840F0010021689C
:1021A000086006E000BF002084F8340000BF4FF054
:1021B00002084046C6E70000F8B502460B46002577
:1021C000002400200021D6E0012606FA01F51E6851
:1021D00006EA0504AC4274D11E7906F00306012E0E
:1021E00004D01E7906F00306022E13D190684F002A
:1021F0000326BE40B0434F00DE68BE4030439060CF
:10220000506801268E40B0431E79C6F300168E40FA
:10221000304350601E7906F00306032E09D0D068C3
:102220004F000326BE40B0434F009E68BE4030437F
:10223000D0601E7906F00306022E13D1CF0802F1FA
:10224000200656F827004E07F70E0F26BE40B04373
:102250004F07FF0E1E69BE403043CF0802F1200633
:1022600046F8270010684F000326BE40B0431E7991
:1022700006F003064F00BE40304310605E6806F46F
:102280004036002E76D000BF002600963C4E3668C1
:1022900046F480463A4F3E603E46366806F4804635
:1022A000009600BF00BF374E8F0856F827008E07F4
:1022B000370F0F26BE40B043334EB24202D1002644
:1022C00024E057E0314EB24201D101261EE0304EEB
:1022D000B24201D1022619E02E4EB24201D10326AC
:1022E00014E02D4EB24201D104260FE02B4EB24233
:1022F00001D105260AE02A4EB24201D1062605E0A8
:10230000284EB24201D1072600E008268F073F0F72
:10231000BE4030431B4E8F0846F82700224E3068DF
:10232000A0435E6806F4801606B120431E4E30605E
:10233000361D3068A0435E6806F4001606B12043DF
:10234000194E361D3060184E361F3068A0435E6847
:1023500006F4003606B12043134E361F3060361F98
:102360003068A0435E6806F4803606B120430E4E06
:10237000083E3060491C1029FFF426AFF8BD00006C
:102380004438024008380140000002400004024086
:1023900000080240000C02400010024000140240FD
:1023A00000180240001C0240083C01400AB1816153
:1023B00001E00B048361704701480068704700002A
:1023C0002C000020034800680349097808440149AB
:1023D000086070472C0000203400002010B50D4824
:1023E000006840F400700B4908600846006840F43B
:1023F000806008600846006840F480700860032030
:1024000000F0DCF80F2000F007F800F05FF8002083
:1024100010BD0000003C02402DE9F04188B00446A8
:102420000027B84600BF002001902348006840F014
:102430000200214908600846006800F0020001908F
:1024400000BF00BF02A903A800F08EF9069F1FB9C4
:1024500000F0B2F9054602E000F0AEF94500174879
:10246000B5FBF0F0A0F1010815481649086040F2EC
:10247000E7311448C160C0F8048000210161816027
:10248000816101F0DFF8064696B90E4801F08EF939
:1024900006466EB91D2000F043F8102C07D200222A
:1024A00021461D2000F04CF80748046000E001269A
:1024B000304608B0BDE8F0814038024040420F008D
:1024C000000400402C0B00203000002008B500BFA5
:1024D000002000901148006840F480400F490860D7
:1024E0000846006800F48040009000BF00BF00BFB5
:1024F00000200090081F006840F08050091F08600D
:102500000846006800F08050009000BF00BF002225
:102510000F21901E00F014F808BD0000443802405E
:1025200001460846002809DB00F01F0301229A40FB
:1025300043099B0003F1E023C3F8002100BF70476B
:102540002DE9F05F80460D461646002704F0ACFBEF
:10255000074639462A46334601F00700C0F1070A0C
:10256000BAF1040F02D94FF0040A01E0C0F1070AE2
:10257000D14600F1040ABAF1070F02D24FF0000A67
:1025800001E0A0F1030AD4464FF0010A0AFA09FA61
:10259000AAF1010A0AEA020A0AFA0CFA4FF0010B40
:1025A0000BFA0CFBABF1010B0BEA030B4AEA0B0431
:1025B0002146404604F080FBBDE8F09F00BF00F0DC
:1025C0000702064B19684FF6FF031940044B0B43F3
:1025D00043EA0221014B196000BF70470CED00E097
:1025E0000000FA0570B504460D460CB9012070BD17
:1025F0005848006800F00700A84209D255490D70FC
:102600000846006800F00700A84201D00120EEE76C
:10261000207800F0020002281DD1207800F004008C
:10262000042805D14C48006840F4E0504A4908604D
:10263000207800F00800082805D14748006840F4D9
:102640006040454908604448006820F0F000A168F7
:10265000084341490860207800F00100A8B3606891
:10266000012807D13C4808380068C0F34040B8B999
:102670000120BCE76068022802D06068032807D107
:10268000354808380068C0F3406048B90120AEE71B
:10269000314808380068C0F3400008B90120A6E7B7
:1026A0002D48006820F00300616808432A4908604B
:1026B000FFF782FE064609E0FFF77EFE801B41F22F
:1026C0008831884202D9032091E707E02248006858
:1026D00000F00C006168B0EB810FEDD11D4800687F
:1026E00000F00700A84209D91A490D700846006891
:1026F00000F00700A84201D0012078E7207800F020
:102700000400042807D11448006820F4E050E16870
:10271000084311490860207800F00800082808D113
:102720000D48006820F46040216940EAC1000A4970
:10273000086000F061F808490968C1F30311074A0D
:10274000515CC8400649086006480068FFF764FE0F
:1027500000204CE7003C024008380240708000082E
:1027600038000020300000200F2202600D4A12685D
:1027700002F0030242600B4A126802F0F00282602B
:10278000084A126802F4E052C260064A126802F473
:102790006042D2080261044A126802F007020A602D
:1027A0007047000008380240003C024001480068C1
:1027B000704700003800002000B5FFF7F7FF04491C
:1027C0000968C1F38221034A515CC84000BD000082
:1027D000083802408080000800B5FFF7E7FF044991
:1027E0000968C1F34231034A515CC84000BD000092
:1027F00008380240808000082DE9F04700240025B9
:102800000026A1462548006800F00C0020B10428ED
:1028100005D008283AD105E0DFF8849039E0DFF8E8
:10282000849036E01D48001F006800F03F041B48FC
:10283000001F006800F4800078B11A481749091F8A
:102840000968C1F38811A0FB0170014622460023EC
:102850003846FDF715FD05460EE011480F49091FE2
:102860000968C1F38811A0FB0170014622460023CC
:102870003846FDF705FD05460848001F0068C0F30F
:102880000140401C4600B5FBF6F902E0DFF810906D
:1028900000BF00BF4846BDE8F0870000083802408E
:1028A0000024F40040787D01F8B504460CB90120FD
:1028B000F8BD207800F00100002874D0F9480068C5
:1028C00000F00C0004280DD0F648006800F00C0061
:1028D000082813D1F348001F006800F48000B0F509
:1028E000800F0BD1EF4808380068C0F34040002843
:1028F00059D06068002856D10120D9E700BF606830
:10290000B0F5803F08D1E7480838006840F48030CF
:10291000E449083908601EE06068B0F5A02F0DD1C9
:10292000E0480838006840F48020DE490839086033
:102930000846006840F4803008600CE0D948083848
:10294000006820F48030D7490839086008460068DC
:1029500020F48020086000BF606890B1FFF72CFD74
:10296000054606E0FFF728FD401B642801D9032037
:102970009EE7CC4808380068C0F340400028F1D0FA
:1029800011E0FFF719FD054606E0FFF715FD401BB6
:10299000642801D903208BE7C24808380068C0F3D7
:1029A00040400028F1D1207800F0020002285FD1D9
:1029B000BC48006800F00C0058B1BA48006800F04C
:1029C0000C0008281CD1B748001F006800F48000E4
:1029D000B0B9B44808380068C0F3400020B1E068DE
:1029E000012801D0012063E7AE480838006820F0D4
:1029F000F800216940EAC100AA490839086037E0B7
:102A0000E06800B30120A8490860FFF7D5FC05463F
:102A100006E0FFF7D1FC401B022801D9032047E75D
:102A2000A04808380068C0F340000028F1D09D4855
:102A30000838006820F0F800216940EAC10099498F
:102A40000839086014E0002097490860FFF7B4FCDB
:102A5000054606E0FFF7B0FC401B022801D9032021
:102A600026E7904808380068C0F340000028F1D1FC
:102A7000207800F0080008282CD16069A8B1012056
:102A80008A490860FFF798FC054606E0FFF794FCCA
:102A9000401B022801D903200AE782486C300068F5
:102AA000C0F340000028F1D014E000207F49086006
:102AB000FFF782FC054606E0FFF77EFC401B02287C
:102AC00001D90320F4E677486C300068C0F3400079
:102AD0000028F1D1207800F00400042870D10027EC
:102AE00070483830006800F0805090B900BF002076
:102AF00000906C483830006840F0805069493831A7
:102B000008600846006800F08050009000BF00BFD9
:102B100001276748006800F48070B0B96448006815
:102B200040F4807062490860FFF746FC054606E005
:102B3000FFF742FC401B022801D90320B8E65C489D
:102B4000006800F480700028F2D000BFA06801285F
:102B500008D154486830006840F00100514968319C
:102B600008601DE0A06805280DD14E486830006857
:102B700040F004004B49683108600846006840F0A6
:102B8000010008600CE047486830006820F0010050
:102B90004449683108600846006820F00400086075
:102BA00000BFA068A8B1FFF707FC054609E0FFF7E2
:102BB00003FC401B41F28831884202D9032077E6AA
:102BC00026E0384868300068C0F340000028EED0A6
:102BD00013E0FFF7F1FB054608E0FFF7EDFB401BB4
:102BE00041F28831884201D9032061E62D486830DE
:102BF0000068C0F340000028EFD1012F07D1294819
:102C00003830006820F0805026493831086000BF15
:102C1000A069002845D02348006800F00C0008286F
:102C20005DD0A069022845D100201F490866FFF742
:102C3000C3FB054606E0FFF7BFFB401B022801D996
:102C4000032035E6174808380068C0F340600028C4
:102C5000F1D1D4E907010843616A40EA81110122F8
:102C6000A06AC2EB500041EA00412C20005D41EA1D
:102C700000600C49091F086001200B490866FFF736
:102C80009BFB054606E0FFF797FB401B022801D996
:102C900003200DE6034808380068C0F340600028B0
:102CA000F1D049E00838024000004742800E474218
:102CB00000700040002021490866FFF77DFB0546B3
:102CC00006E0FFF779FB401B022801D90320EFE55E
:102CD0001B480068C0F340600028F2D12CE0A069D6
:102CE000012800D1E4E51648001D0668A069012806
:102CF00020D006F48001E06981421BD106F03F013B
:102D0000206A814216D147F6C0703040616AB0EB4C
:102D1000811F0FD106F440310122A06AC2EB50009E
:102D2000B1EB004F06D106F070612C20005DB1EBD5
:102D3000006F01D00120BBE50020B9E5000047424B
:102D40000038024070470000F8B504462068466825
:102D500020688568C5F3801048B905F0010030B1DE
:102D6000C6F3801018B12046216C8847F8BDC5F322
:102D7000400030B1C6F3C01018B12046616C8847DE
:102D8000F4E7C5F3401030B9C5F3801018B9C5F3A6
:102D9000002000287CD0C6F3401000287DD0C5F369
:102DA0008010F0B194F8510003280ED0606D40F00F
:102DB0000400606500BF002000902068C06800909B
:102DC00020688068009000BF0BE000BF00200090EA
:102DD0002068C068009020688068009000BF00BF35
:102DE000C4E7C5F3401088B1606D40F00100606534
:102DF00000BF002000902068806800902068006874
:102E000020F040002168086000BF00BFC5F300202B
:102E100058B1606D40F00800606500BF0020009070
:102E200020688068009000BF00BF606D78B32068A4
:102E3000406820F0E00021684860012084F85100DB
:102E400006F00200022802D006F0010008B3206854
:102E5000406820F0030021684860E06C50B11048E1
:102E6000E16C0865E06CFEF7B2FF18B1606D40F0F0
:102E700040006065A06C50B10948A16C0865A06C69
:102E8000FEF7A5FF18B1606D40F04000606503E0FB
:102E900003E02046FFF756FF68E700BF66E7000043
:102EA0002155000810B504460CB9012010BD606A18
:102EB00038B96068B0F5827F00D105E00021E1619A
:102EC00002E00021216161610021A16294F85100BA
:102ED00028B9002084F85000204600F047F802206E
:102EE00084F851002068006820F0400021680860E4
:102EF000A08800F48270218901F404410843A1896B
:102F000001F400610843217C01F002010843217DA6
:102F100001F001010843218B01F400710843217F76
:102F200001F0380108432021095D01F080010843C8
:102F3000218D01F400510843216808600421A06933
:102F400001EA104094F8241001F0100108432168B0
:102F500048602068C06920F400602168C8610020D2
:102F60006065012084F8510000209FE710B586B00D
:102F70000446142101A8FDF7CDF92E4920688842A6
:102F800055D100BF002000902B48006840F48040DD
:102F9000294908600846006800F48040009000BF9E
:102FA00000BF00BF0020009023481038006840F0A8
:102FB00004002149103908600846006800F0040048
:102FC000009000BF00BF00BF0020009008460068CE
:102FD00040F0020008600846006800F0020000901F
:102FE00000BF00BF0C20019002200290002003903F
:102FF000032004900520059001A91048FFF7DCF894
:103000004FF4806001900220029000200390032082
:1030100004900520059001A90948FFF7CDF800228A
:1030200005212420FFF78CFA2420FFF779FA06B057
:1030300010BD000000380040403802400008024047
:10304000000402402DE9F8430446884616461D4612
:103050004FF000096068B0F5827F0DD1A06858B9C3
:10306000042084F8510033464246414620460095EC
:1030700000F077F9BDE8F88300BF94F8500001280C
:1030800001D10220F6E7012084F8500000BFFFF7CD
:1030900093F9074694F85100012802D04FF0020935
:1030A0007EE0B8F1000F00D016B94FF0010977E0CB
:1030B000042084F8510000206065C4F83880A68799
:1030C000E6872063A086E08620646064A068B0F58F
:1030D000004F0BD12068006820F040002168086094
:1030E0002068006820F4804021680860206800683B
:1030F00000F04000402805D02068006840F0400003
:1031000021680860E068F8B91AE02068806800F07B
:10311000010050B12068007BA16B0870A06B401CBF
:10312000A063E08F401EE0870AE0FFF745F9C01B6F
:10313000A84201D3681C00B915B94FF003092FE06C
:10314000E08F0028E1D11EE01AE02068806800F0DE
:10315000010050B12068C068A16B0880A06B801C82
:10316000A063E08F401EE0870AE0FFF725F9C01B4F
:10317000A84201D3681C00B915B94FF003090FE04C
:10318000E08F0028E1D13A462946204602F0D2F9E4
:1031900008B120206065606D08B14FF0010900BFE3
:1031A000012084F8510000BF002084F8500000BFC7
:1031B00048465FE72DE9F84F0446884616461D4607
:1031C0004FF0000A00BF94F85000012802D10220FD
:1031D000BDE8F88F012084F8500000BFFFF7ECF83D
:1031E0000746B14694F85100012802D04FF0020A78
:1031F000ADE0B8F1000F00D016B94FF0010AA6E01B
:10320000032084F8510000206065C4F83080A68651
:10321000E686A063A087E08760642064A068B0F5BC
:10322000004F0BD12068006820F040002168086042
:103230002068006840F480402168086020680068C9
:1032400000F04000402805D02068006840F04000B1
:1032500021680860E068B0F5006F2FD1606810B198
:10326000B9F1010F09D1206B00882168C860206B7B
:10327000801C2063E08E401EE0861BE02068806892
:1032800000F0020002280AD1206B00882168C86083
:10329000206B801C2063E08E401EE0860AE0FFF772
:1032A0008BF8C01BA84201D3681C00B915B94FF0B8
:1032B000030A4CE0E08E0028E0D12EE0606810B1F7
:1032C000B9F1010F09D1206B007821680873206BD8
:1032D000401C2063E08E401EE0861BE02068806872
:1032E00000F0020002280AD1206B007821680873E0
:1032F000206B401C2063E08E401EE0860AE0FFF752
:103300005BF8C01BA84201D3681C00B915B94FF087
:10331000030A1CE0E08E0028E0D13A462946204608
:1033200002F052F908B120206065A06850B900BFD2
:10333000002000902068C06800902068806800909D
:1033400000BF00BF606D08B14FF0010A00BF01204F
:1033500084F8510000BF002084F8500000BF5046A0
:1033600036E72DE9FF5F0446884691461D460E9ECE
:10337000012002900020019000BF94F85000012825
:1033800003D1022004B0BDE8F09F012084F8500072
:1033900000BFFFF711F8074694F851B0606803903A
:1033A000AA46BBF1010F0BD00398B0F5827F04D180
:1033B000A06810B9BBF1040F02D002200190DBE03D
:1033C000B8F1000F03D0B9F1000F00D015B90120FA
:1033D0000190D1E094F85100042802D0052084F82F
:1033E000510000206065C4F83890E587A587C4F8CF
:1033F0003080E586A586206460642068006800F05F
:103400004000402805D02068006840F04000216856
:103410000860E068B0F5006F4AD1606810B1BAF199
:10342000010F09D1206B00882168C860206B801CC7
:103430002063E08E401EE08633E02068806800F064
:103440000200022810D1E08E70B1029801280BD141
:10345000206B00882168C860206B801C2063E08E90
:10346000401EE086002002902068806800F0010085
:1034700068B1E08F58B12068C068A16B0880A06B6C
:10348000801CA063E08F401EE08701200290FEF7C1
:1034900093FFC01BB04204D3701C10B103200190F5
:1034A0006AE0E08E0028C8D1E08F0028C5D14AE04C
:1034B000606810B1BAF1010F09D1206B0078216862
:1034C0000873206B401C2063E08E401EE08634E0D1
:1034D0002068806800F00200022810D1E08E70B1F0
:1034E000029801280BD1206B007821680873206BAB
:1034F000401C2063E08E401EE08600200290206881
:10350000806800F0010068B1E08F58B12068C068A1
:10351000A16B0870A06B401CA063E08F401EE08789
:1035200001200290FEF748FFC01BB04201D3701C7F
:1035300000B916B9032001901EE0E08E0028C7D123
:10354000E08F0028C4D13A463146204602F03CF8CC
:1035500020B101200190202060650DE0A06850B9E5
:1035600000BF002000902068C0680090206880683C
:10357000009000BF00BF00BF012084F8510000BFD1
:10358000002084F8500000BF0198FBE670477047A8
:1035900030B502460B4600BF92F83C00012801D12D
:1035A000022030BD012082F83C0000BF022082F8DA
:1035B0003D00106844681068816824F07004186841
:1035C000044310684460184D1068A8421BD010686E
:1035D000B0F1804F17D0154D1068A84213D0144D8C
:1035E0001068A8420FD0134D1068A8420BD0124D9E
:1035F0001068A84207D0114D1068A84203D0104DA2
:103600001068A84205D121F0800158680143106874
:103610008160012082F83D0000BF002082F83C005C
:1036200000BF00BFBDE700000000014000040040F3
:1036300000080040000C0040000401400040014030
:103640000018004010B504460CB9012010BD94F8D4
:103650003D0028B9002084F83C00204600F026F800
:10366000022084F83D00211D206802F085FE012023
:1036700084F8460000BF84F83E0001213F20015538
:10368000402001554120015500BF00BF012084F8B2
:10369000420043200155442001554520015500BFFB
:1036A000012084F83D000020D0E7000038B5044632
:1036B00039492068884218D100BF0020009037485F
:1036C000006840F00800354908600846006800F0CE
:1036D0000800009000BF00BF002208213220FEF742
:1036E0002FFF3220FEF71CFF55E02D49206888424D
:1036F00018D100BF002000902848006840F010005A
:10370000264908600846006800F01000009000BFDD
:1037100000BF002207213620FEF712FF3620FEF7F9
:10372000FFFE38E01F492068884218D100BF002002
:1037300000901A48006840F0800018490860084668
:10374000006800F08000009000BF00BF002205214B
:103750002C20FEF7F5FE2C20FEF7E2FE1BE01249BE
:103760002068884217D100BF002000900B480068F5
:1037700040F48070094908600846006800F48070D1
:10378000009000BF00BF002205212D20FEF7D8FECB
:103790002D20FEF7C5FE38BD000C00404038024029
:1037A00000100040001C004000200040014691F83D
:1037B0003D00012801D001207047022081F83D0022
:1037C0000868C06840F001000B68D8601A4B0868B0
:1037D00098421BD00868B0F1804F17D0174B08688B
:1037E000984213D0164B086898420FD0154B0868C2
:1037F00098420BD0144B0868984207D0134B0868C6
:10380000984203D0124B086898420CD1086880682F
:1038100000F00702062A0CD00868006840F001009A
:103820000B68186005E00868006840F001000B684C
:1038300018600020C0E700000000014000040040C4
:1038400000080040000C004000040140004001401E
:103850000018004001460868C06820F001000A68AE
:10386000D06000BF0868006A41F21112104050B9E0
:103870000868006A9210104028B90868006820F0B3
:1038800001000A68106000BF012081F83D0000209F
:1038900070472DE9F04104460D46002700BF94F81B
:1038A0003C00012802D10220BDE8F081012084F80B
:1038B0003C0000BF022084F83D002068866826F0A6
:1038C000770626F47F46206886602868502833D023
:1038D0000CDC202850D004DC00284BD0102851D11B
:1038E00049E0302849D040284CD139E060282DD01B
:1038F000702807D0B0F5805F03D0B0F5005F41D1EC
:103900000DE041E0D5E902136A68206802F034FE58
:103910002068866846F077062068866034E0D5E93E
:1039200002136A68206802F027FE2068806840F46D
:1039300080402168886027E0EA686968206802F0B2
:103940002FFE5021206802F022FE1DE0EA6869681F
:10395000206802F038FE6021206802F018FE13E0B3
:10396000EA686968206802F01BFE4021206802F0C6
:103970000EFE09E000BF00BF00BF2968206802F00A
:1039800006FE01E0012700BF00BF012084F83D00D2
:1039900000BF002084F83C0000BF384684E7704731
:1039A000704710B5044620680069C0F34000D8B1E4
:1039B0002068C068C0F34000B0B16FF00200216819
:1039C0000861012020772068806900F0030018B1A9
:1039D0002046FFF7E5FF05E0204600F0ADF8204661
:1039E00000F0ACF80020207720680069C0F3800068
:1039F000D8B12068C068C0F38000B0B16FF0040097
:103A000021680861022020772068806900F44070F6
:103A100018B12046FFF7C4FF05E0204600F08CF8FF
:103A2000204600F08BF80020207720680069C0F362
:103A3000C000D8B12068C068C0F3C000B0B16FF05A
:103A4000080021680861042020772068C06900F020
:103A5000030018B12046FFF7A3FF05E0204600F061
:103A60006BF8204600F06AF8002020772068006993
:103A7000C0F30010D8B12068C068C0F30010B0B126
:103A80006FF0100021680861082020772068C06965
:103A900000F4407018B12046FFF782FF05E0204691
:103AA00000F04AF8204600F049F80020207720680E
:103AB000006900F0010058B12068C06800F0010002
:103AC00030B16FF0010021680861204600F044FA2F
:103AD00020680069C0F3C01058B12068C068C0F306
:103AE000C01030B16FF08000216808612046FFF7F8
:103AF0004DFD20680069C0F3801058B12068C0688F
:103B0000C0F3801030B16FF040002168086120469A
:103B100000F044FA20680069C0F3401058B12068F2
:103B2000C068C0F3401030B16FF020002168086118
:103B30002046FFF72CFD10BD7047000010B504466D
:103B40000821204600F07EF92548007808BB25486A
:103B50000078F0B91923244A0821204600F04EF8D5
:103B600022480088542802D101201E4908700120F3
:103B70001B4908701B48007880BB1C480088401C0B
:103B80001A4908801A4B1B4A0821204601F0AEF85A
:103B900024E013480078012820D112480078E8B9C1
:103BA0001923144A0821204600F028F80F480088FD
:103BB000542802D101200B490870002008490870E0
:103BC0000848007850B909480088401C0749088017
:103BD000074B054A0821204601F088F810BD000077
:103BE000A2040020A3040020D80D0020A40400207B
:103BF000E60E00200A0E0020704700002DE9F04775
:103C000004460D4616461F464FF0000815B994F8B5
:103C10003E000BE0042D02D13F20005D06E0082DA0
:103C200002D14020005D01E04120005D022801D169
:103C3000BDE8F08715B994F83E000BE0042D02D1E1
:103C40003F20005D06E0082D02D14020005D01E02C
:103C50004120005D012817D10EB907B1E8E71DB971
:103C6000022084F83E0011E0042D03D102213F2000
:103C700001550BE0082D03D102214020015505E03C
:103C800002214120015501E00120D1E735B1042D89
:103C90001FD0082D38D00C2D6CD150E05F49606AE0
:103CA000C1635F49606A01645E49606AC1642168FA
:103CB00001F134023B463146606AFEF733FA08B13F
:103CC0000120B5E72068C06840F400702168C86032
:103CD00053E05249A06AC1635149A06A0164514945
:103CE000A06AC164216801F138023B463146A06AEE
:103CF000FEF718FA08B101209AE72068C06840F47E
:103D000080602168C86038E04449E06AC163444982
:103D1000E06A01644349E06AC164216801F13C0240
:103D20003B463146E06AFEF7FDF908B101207FE726
:103D30002068C06840F400602168C8601DE0374911
:103D4000206BC1633649206B01643649206BC16426
:103D5000216801F140023B463146206BFEF7E2F953
:103D600008B1012064E72068C06840F480502168F1
:103D7000C86002E04FF0010800BF00BFB8F1000FBB
:103D80004AD101222946206802F062FB26492068B8
:103D9000884203D025492068884201D1012000E0F3
:103DA000002028B12068406C40F40040216848643D
:103DB0001D49206888421BD02068B0F1804F17D081
:103DC0001B492068884213D01A49206888420FD0C6
:103DD0001949206888420BD014492068884207D0CE
:103DE00016492068884203D01549206888420DD1C1
:103DF0002068806800F00709B9F1060F0CD0206830
:103E0000006840F001002168086005E02068006853
:103E100040F0010021680860404609E7736400082B
:103E2000DB6400081B65000800000140000401403D
:103E30000004004000080040000C00400040014029
:103E40000018004070B504460D46002635B1042D1B
:103E50000ED0082D16D00C2D28D11DE02068C0688A
:103E600020F400702168C860606AFDF7B0FF1FE0B1
:103E70002068C06820F480602168C860A06AFDF7EF
:103E8000A6FF15E02068C06820F400602168C860C3
:103E9000E06AFDF79CFF0BE02068C06820F48050CA
:103EA0002168C860206BFDF792FF01E0012600BF8A
:103EB00000BF002E4AD100222946206802F0C8FA2D
:103EC00023492068884203D022492068884201D1D2
:103ED000012000E0002090B100BF2068006A41F29C
:103EE0001111084050B92068006A8910084028B9AB
:103EF0002068406C20F400402168486400BF00BF87
:103F00002068006A41F21111084050B92068006A27
:103F10008910084028B92068006820F00100216855
:103F2000086000BF1DB9012084F83E000EE0042D9A
:103F300003D101213F20015508E0082D03D10121C3
:103F40004020015502E0012141200155304670BD5D
:103F5000000001400004014010B504460B492068F0
:103F6000884201D1FEF72EFA094920680968884283
:103F70000BD1084801680848006802F0FBFE0548BC
:103F800001680548006800F05DFB10BD00040040BA
:103F90002409002008050020C00400207047F8B55F
:103FA00004460E46174694F83E00202836D106B146
:103FB0000FB90120F8BD00BF94F83C00012801D1E1
:103FC0000220F7E7012084F83C0000BF20633A4656
:103FD0003146204602F0A8FD0546EDB9206B0128C8
:103FE00019D100BF00200090206800680090206870
:103FF0004068009000BF00BF00BF00BF21680C31C7
:1040000051E8001F41F0100021680C3141E8000226
:10401000002AF3D100E001252846CBE70220C9E7BA
:10402000704770472DE9F84F0446206805682068FE
:10403000C668206847694FF00009CA4605F00F09B5
:10404000B9F1000F0AD105F0200038B106F02000C8
:1040500020B1204602F0D5FBBDE8F88FB9F1000F82
:104060007CD007F0010018B906F49070002875D0D4
:1040700005F0010030B106F4807018B1206C40F0FA
:104080000100206405F0040030B107F0010018B110
:10409000206C40F00200206405F0020030B107F00F
:1040A000010018B1206C40F00400206405F0080005
:1040B00048B106F0200010B907F0010018B1206CDB
:1040C00040F008002064206C002846D005F0200055
:1040D00028B106F0200010B1204602F092FB2068C3
:1040E0004069C0F3801A206C00F0080010B9BAF1E2
:1040F000000F2DD0204602F02BFB2068406900F015
:104100004000402820D100BF00BF2168143151E891
:10411000001F21F040002168143141E80002002A0C
:10412000F3D100BFA06B50B17548A16B0865A06BBF
:10413000FDF74DFE88B1A06B016D88470DE020466C
:10414000FFF76FFF09E009E02046FFF76AFF04E090
:104150002046FFF766FF002020647DE7206B0128E2
:1041600076D105F01000002872D006F0100000286B
:10417000FAD000BF002000902068006800902068FE
:104180004068009000BF00BF2068406900F0400018
:1041900040285ED1A06B006840681FFA80F8B8F133
:1041A000000F54D0A08D404551DDA4F82E80A06BA7
:1041B000C069B0F5807F43D000BF00BF21680C31DB
:1041C00051E8001F21F4807021680C3141E80002A1
:1041D000002AF3D100BF00BF00BF2168143151E8AD
:1041E000001F21F001002168143141E80002002A7B
:1041F000F3D100BF00BF00BF2168143151E8001F98
:1042000021F040002168143141E80002002AF3D176
:1042100000BF202084F83E000020206300BF00BFC4
:1042200021680C3151E8001F21F0100021680C3189
:1042300041E80002002AF3D100BFA06BFDF771FD39
:10424000A08DE28D801A81B22046FFF7E9FE03E7D8
:1042500040E0A08DE18D401A1FFA80F8E08DC0B3D8
:10426000B8F1000F35D000BF00BF21680C3151E814
:10427000001F21F4907021680C3141E80002002AEF
:10428000F3D100BF00BF00BF2168143151E8001F07
:1042900021F001002168143141E80002002AF3D125
:1042A00000BF202084F83E000020206300BF00BF34
:1042B00021680C3151E8001F21F0100021680C31F9
:1042C00041E80002002AF3D100BF41462046FFF733
:1042D000A7FEC1E605F0800030B106F0800018B1FD
:1042E000204602F0AEFCB7E605F0400030B106F023
:1042F000400018B1204602F061FAADE600BFABE61F
:104300001D66000810B504460CB9012010BDA06957
:1043100000B100E000BF94F83D0028B9002084F807
:104320003C00204600F028F8242084F83D00206856
:10433000C06820F400502168C860204602F0DEFA10
:104340002068006920F49040216808612068406975
:1043500020F02A00216848612068C06840F40050BD
:104360002168C86000202064202084F83D0084F883
:104370003E000020CAE7000010B586B004461421B4
:1043800001A8FBF7C7FF6A492068884255D100BFE2
:10439000002000906748006840F4002065490860EC
:1043A0000846006800F40020009000BF00BF00BF76
:1043B000002000905F481038006840F001005D491F
:1043C000103908600846006800F00100009000BF46
:1043D00000BF00BF002000900846006840F00400C5
:1043E00008600846006800F00400009000BF00BFAD
:1043F00002200190029000200390032004900820E6
:10440000059001A94C48FDF7D7FE4FF4806001905C
:1044100002200290002003900320049008200590C1
:1044200001A94648FDF7C8FE002205213420FEF709
:1044300087F83420FEF774F878E041492068884214
:1044400074D100BF002000903A48006840F480100A
:10445000384908600846006800F48010009000BFEA
:1044600000BF00BF0020009032481038006840F0C4
:1044700004003049103908600846006800F0040064
:10448000009000BF00BF00BF0020009008460068F9
:1044900040F0080008600846006800F0080000903E
:1044A00000BF00BF881401900220029000200390FA
:1044B000032004900820059001A92048FDF77CFE08
:1044C0000420019002200290002003900320049019
:1044D0000820059001A91B48FDF76EFE1A481B49EC
:1044E0000860C0054860002118488160C1604FF431
:1044F000806101610021416181614FF48071C1617E
:104500004902016200214162FDF796FD08B1FCF706
:1045100027FE00BF0D48A063846300BF0022052171
:104520003520FEF70DF83520FDF7FAFF06B010BD77
:10453000004C0040403802400000024000080240A9
:1045400000500040000C024010600240CC0A0020E5
:1045500070B504460D46164694F83E00202816D144
:1045600005B10EB9012070BD00BF94F83C000128D0
:1045700001D10220F7E7012084F83C0000BF0020B1
:10458000206332462946204602F036FBEBE7022044
:10459000E9E7000010B504461D4884421ED11D48BD
:1045A00001781D4802780078401C1B4B18701B488E
:1045B00081541B48FFF7FAF800201949096848623E
:1045C000012214491248FFF7C3FF1248007855280A
:1045D00004D1012013490870FCF7FEFB1248844205
:1045E00015D112480178124802780078401C104B0F
:1045F0001870104881541048FFF7D8F800200E4971
:1046000009684862012209490748FFF7A1FF10BD68
:10461000880A002050050020510500205C7400200D
:10462000B409002052050020440A00205305002050
:10463000540500205C750020FC090020704770477D
:1046400000BFFEE770B52DED068B05460C46D4ED98
:10465000090AB0EE600A5548006800F0B3F8D4EDDE
:10466000670A30EE600A84ED090A51480068FCF7D9
:104670002CF841EC180B94ED090A10EE101A0846BC
:10468000FCF723F841EC1A0BB0EE4A0AF0EE6A0A86
:1046900002F026FBB0EE409AF0EE609A53EC182B35
:1046A00051EC190BFCF724F81CD294ED090A94F88C
:1046B0009C1004F14C0000EB810080ED000A14F81E
:1046C0009C0F401C207014F89C09142802D1002073
:1046D00084F89C0004F5D072142104F14C00FCF71E
:1046E00037FB07E094ED090AD4ED680A30EE600A62
:1046F00084ED090A2E480068FBF7E7FF41EC180B30
:1047000094ED090A10EE101A0846FBF7DEFF41ECA3
:104710001A0BB0EE4A0AF0EE6A0A02F0E1FAB0EEC5
:10472000409AF0EE609A53EC182B51EC190BFBF702
:10473000DFFF03D29FED1F0A84ED090A94ED090AF9
:10474000D4ED0C0A30EE200AB5EEC00AF1EE10FAF4
:1047500012DD94ED090AD4ED0C0A30EE200ADFEDEB
:10476000160A60EE200A94ED000A9FED141A00EE7E
:10477000810A84ED000A11E094ED090AD4ED0C0AD7
:1047800030EE200ADFED0C0A60EE200A94ED000AFC
:104790009FED0B1A00EE810A84ED000A94ED090AE0
:1047A00084ED0C0ABDEC068B70BD0000C004002037
:1047B0000C050020000000006F12033AFC3E803F11
:1047C0006F827F3FF0EE400AC0ED050A90ED000ACF
:1047D00090ED021A30EE010A80ED000A90ED000A19
:1047E00090ED031A30EE010A90ED001AC1EE001AA6
:1047F000C0ED041A90ED050A90ED011A30EE411A51
:1048000090ED010AD0ED041A01EE810A80ED050A4F
:1048100090ED040AB7EE001A31EE400A90ED001A4E
:1048200020EE010A80ED000A90ED050A80ED010AF4
:1048300090ED050A7047000010B50E480E4908605B
:104840000620486000210C488160C1604FF40031AF
:1048500001610901416100210176012141768176E2
:10486000C176002101774177FCF7FCFF08B1FCF726
:1048700077FC10BD006400407C08002010B50E4895
:104880000E4908600620486000210C488160C16024
:104890004FF40031016109014161002101760121DC
:1048A00041768176C176002101774177FCF7DAFF06
:1048B00008B1FCF755FC10BD00680040A4080020BA
:1048C00008B500BF002000900A48006840F40010BE
:1048D000084908600846006800F40010009000BF16
:1048E00000BF002205210B20FDF72AFE0B20FDF75B
:1048F00017FE08BD3038024000B5BFB01C22364953
:1049000038A8FBF7EEFC002138A802F0B0FA3349D2
:1049100008601C2230491C3131A8FBF7E2FC002161
:1049200031A802F0A4FA2E4908601C222A49383125
:104930002AA8FBF7D6FC00212AA802F098FA2949F8
:1049400008601C222449543123A8FBF7CAFC00212B
:1049500023A802F08CFA244908601C221E497031F9
:104960001CA8FBF7BEFC00211CA802F080FA1F491E
:1049700008601C2218498C3115A8FBF7B2FC0021F5
:1049800015A802F074FA1A4908601C221249A831CD
:104990000EA8FBF7A6FC00210EA802F068FA154944
:1049A00008601C220C49C43107A8FBF79AFC0021BF
:1049B00007A802F05CFA104908601C220649E031A1
:1049C0006846FBF78EFC0021684602F050FA0B495E
:1049D00008603FB000BD00006C7F000804000020AC
:1049E000080000200C00002010000020140000200F
:1049F000180000201C0000202000002024000020BF
:104A000000B587B0142102A8FBF784FC00BF00208A
:104A100001903C48006840F004003A4908600846AC
:104A2000006800F00400019000BF00BF00BF00203C
:104A300001900846006840F0800008600846006861
:104A400000F08000019000BF00BF00BF0020019077
:104A50000846006840F0010008600846006800F061
:104A60000100019000BF00BF00BF00200190084678
:104A7000006840F0020008600846006800F002008C
:104A8000019000BF00BF00BF0020019008460068F1
:104A900040F0080008600846006800F00800019037
:104AA00000BF00BF002201211748FDF77FFC002254
:104AB0004FF408711548FDF779FC0120029003902E
:104AC00000200490059002A90F48FDF775FB2020F7
:104AD000029001200390022004900020059002A97A
:104AE0000A48FDF769FB4FF4007002900120039023
:104AF00004900320059002A90448FDF75DFB07B070
:104B000000BD0000303802400000024000040240B6
:104B100010B50E480E4908604FF4827048600021BD
:104B20000B488160C160016141614FF40071816196
:104B30000821C16100210162416281620A21C162D2
:104B4000FEF7B0F908B1FCF70BFB10BD00380040D0
:104B5000CC08002010B50A480A49086000204860C7
:104B60000021084881604FF6FF71C160002101619A
:104B70008161FEF767FD08B1FCF7F2FA10BD000095
:104B8000001C0040B409002010B50A480A4908601A
:104B9000292048600021084881604FF49671C16067
:104BA000002101618161FEF74DFD08B1FCF7D8FAE3
:104BB00010BD000000200040FC09002000B587B0B7
:104BC00000200390049005900690019002901548F3
:104BD000154908606320486000211348816040F255
:104BE0004731C1600021016180218161FEF72AFD0A
:104BF00008B1FCF7B5FA4FF48050039003A90A48B6
:104C0000FEF747FE08B1FCF7ABFA002001900290D6
:104C100001A90548FEF7BCFC08B1FCF7A1FA07B0F2
:104C200000BD0000000C0040240900201CB500203D
:104C3000009001900D480E4908600920486000214D
:104C40000B4881605321C16080218161FEF7FAFC2D
:104C500008B1FCF785FA00200090019069460448ED
:104C6000FEF796FC08B1FCF77BFA1CBD0010004073
:104C70006C09002010B50B480B4908604FF4E13077
:104C80004860002108488160C16001610C214161D8
:104C900000218161C161FFF735FB08B1FCF760FAC3
:104CA00010BD0000004C0040440A002010B50B4825
:104CB0000B4908604FF41650486000210848816095
:104CC000C16001610C21416100218161C161FFF777
:104CD00019FB08B1FCF744FA10BD00000050004079
:104CE000880A002000BFFEE700BFFEE770B504465B
:104CF000072013E0224D2D8805EB450503EB450504
:104D00006D88054105F001050DB1462500E01E2521
:104D1000C0F1070622F81650451E68B20028E9DAED
:104D2000072012E0164D2D8805EB450533F8155088
:104D3000054105F001050DB1462500E01E25C0F135
:104D40000F0622F81650451E68B20028EADA07203E
:104D500013E00B4D2D8805EB450503EB4505AD88AC
:104D6000054105F001050DB1462500E01E25C0F105
:104D7000170622F81650451E68B20028E9DA70BD01
:104D8000A40400202DE9F04387B007460C461546E1
:104D90001E464FF001084FF00009002003900490D8
:104DA000019505963846FCF71BFC00F0FF0904E06E
:104DB0003846FCF715FC00F0FF09B9F1000FF7D0F9
:104DC0000123224601A93846FCF70FFA8046B8F1C4
:104DD000000F03D0022007B0BDE8F0830020FAE7FF
:104DE00070B505460E46012413E004F50070A84294
:104DF0000ED1601EC0EBC000084908443168016054
:104E0000B1888180B1798171E0B200F041F870BD64
:104E1000641C092CE9DB00BFF9E70000740B0020DB
:104E20000146481E014A52F820007047AC0B002092
:104E300010B5014600204A1EC2EBC202134B1A44B1
:104E400092780123B3EBE21F11D14A1EC2EBC202DA
:104E50000E4B1A44D3784A1EC2EBC2020B4C2244BA
:104E6000927803EB0222A2F57F40FF380DE04A1E44
:104E7000C2EBC202054B1A44D3784A1EC2EBC202EF
:104E8000024C2244927803EB022010BD740B0020E8
:104E900010B588B00146481EC0EBC0021F4B1A4433
:104EA0005278C0EBC0031D4CE35C02EB03224DF8CB
:104EB00020205DF820201A4B53F82030D21AB2F58A
:104EC000805F09DB174A52F82020A2F5F852FF3A1A
:104ED000144B43F8202011E05DF82020104B53F8CC
:104EE0002030D21A12F5805F08DC0E4A52F82020DA
:104EF00041F6FF731A440B4B43F820205DF8202045
:104F0000074B43F82020074A52F820205DF8203054
:104F10001A44054B43F8202008B010BD740B002044
:104F2000EC0B0020CC0B0020AC0B002070B505462C
:104F30000C46012C3ADB082C38DC002600BF1C484C
:104F4000854201DC054604E042F21070854200DB38
:104F50000546042C0BDC4FF40076C5F307216000F6
:104F6000801E144A11546000401E15540CE040F29B
:104F7000FF16201FC4B2C5F307216000801E0E4A31
:104F800011546000401E1554B6F5007F06D1B2B230
:104F9000082308490948FFF7F5FE05E0B2B20823E7
:104FA00005490748FFF7EEFE002070BD0120FCE731
:104FB000F0D8FFFF440400203C0400207C080020BF
:104FC000A4080020431EDAB2014B43F822107047B8
:104FD000CC0B002070B52DED088BB0EE408A054655
:104FE000681EC4B2F0EE488A9E4800EB8410C0ED03
:104FF000008AE8B2FFF714FF00EE100AB8EEC00A0C
:10500000984800EB841080ED010A964800EB84106C
:1050100090ED020A934800EB841080ED030A91485A
:1050200000EB841090ED010A38EEC00A8D4800EBC9
:10503000841080ED020A8B4800EB841090ED0E0A7C
:1050400010EE101A0846FBF740FB41EC190B85489F
:1050500000EB841090ED020A10EE101A0846FBF7E0
:1050600034FB41EC1B0BB0EE4B0AF0EE6B0AFCF785
:105070007BF8B0EE40AAF0EE60AA53EC192B51EC8D
:105080001A0BFBF735FB06D29FED770A754800EB4C
:10509000841080ED020A734800EB841090ED040A3E
:1050A000704800EB8410D0ED020A30EE200A6D4803
:1050B00000EB841080ED040A6A4800EB841090ED48
:1050C000040A684800EB8410D0ED0F0AB4EEE00A41
:1050D000F1EE10FA05DB634800EB841090ED0F0A47
:1050E0001DE0604800EB841090ED040A5D4800EB81
:1050F0008410D0ED0F0AF1EE600AB4EEE00AF1EE92
:1051000010FA07D8574800EB841090ED0F0AB1EE63
:10511000400A04E0534800EB841090ED040A514823
:1051200000EB841080ED040A4E4800EB841090EDF3
:10513000050A4C4800EB8410D0ED020A20EE200A4C
:10514000484800EB841080ED0A0A464800EB8410C2
:1051500090ED060A434800EB8410D0ED040A20EEDF
:10516000200A404800EB841080ED0B0A3D4800EB1C
:10517000841090ED020A3B4800EB8410D0ED030A46
:1051800030EE600A374800EB8410D0ED070A20EEBD
:10519000200A344800EB841080ED0C0A314800EB03
:1051A000841090ED0A0A2F4800EB8410D0ED0B0A12
:1051B00030EE200A2B4800EB8410D0ED0C0A30EEC4
:1051C000200A284800EB841080ED0D0A254800EBEA
:1051D0008410D0ED0D0A234800EB841090ED080AEE
:1051E000B8EEC00AF4EEC00AF1EE10FA07DB1D4873
:1051F00000EB841090ED080AB8EEC00A1DE01948D3
:1052000000EB8410D0ED0D0A164800EB841090EDF1
:10521000090AB8EEC00AF4EEC00AF1EE10FA07D897
:10522000104800EB841090ED090AB8EEC00A04E0C3
:105230000C4800EB841090ED0D0A0A4800EB841036
:1052400080ED0D0A074901EB841191ED0D0ABDEEC9
:10525000C00A10EE100A294600F008F8BDEC088BD1
:1052600070BD00003C0200200000000070B52DED74
:10527000068B06460D46681EC4B200EE106AB8EEF4
:10528000C00AA14800EB841080ED000AE8B2FFF7E5
:10529000CFFD00EE100AB8EEC00A9B4800EB841068
:1052A00080ED010A984800EB841090ED020A9648C0
:1052B00000EB841080ED030A934800EB841090ED1E
:1052C000000A914800EB8410D0ED010A30EE600A2C
:1052D0008D4800EB841080ED020A8B4800EB8410AF
:1052E00090ED0E0A10EE101A0846FBF7EEF941ECAD
:1052F000180B854800EB841090ED020A10EE101A8E
:105300000846FBF7E2F941EC1A0BB0EE4A0AF0EE60
:105310006A0AFBF729FFB0EE409AF0EE609A53EC70
:10532000182B51EC190BFBF7E3F906D29FED770A26
:10533000754800EB841080ED020A734800EB84107E
:1053400090ED040A704800EB8410D0ED020A30EEB4
:10535000200A6D4800EB841080ED040A6A4800EBD7
:10536000841090ED040A684800EB8410D0ED0F0A19
:10537000B4EEE00AF1EE10FA05DB634800EB8410AE
:1053800090ED0F0A1DE0604800EB841090ED040AD8
:105390005D4800EB8410D0ED0F0AF1EE600AB4EE28
:1053A000E00AF1EE10FA07D8574800EB841090EDB0
:1053B0000F0AB1EE400A04E0534800EB841090ED70
:1053C000040A514800EB841080ED040A4E4800EBBB
:1053D000841090ED050A4C4800EB8410D0ED020AD1
:1053E00020EE200A484800EB841080ED0A0A464867
:1053F00000EB841090ED060A434800EB8410D0EDDA
:10540000040A20EE200A404800EB841080ED0B0ACD
:105410003D4800EB841090ED020A3B4800EB8410FD
:10542000D0ED030A30EE600A374800EB8410D0ED6F
:10543000070A20EE200A344800EB841080ED0C0AA5
:10544000314800EB841090ED0A0A2F4800EB8410DD
:10545000D0ED0B0A30EE200A2B4800EB8410D0ED83
:105460000C0A30EE200A284800EB841080ED0D0A6B
:10547000254800EB8410D0ED0D0A234800EB841082
:1054800090ED080AB8EEC00AF4EEC00AF1EE10FA88
:1054900007DB1D4800EB841090ED080AB8EEC00A47
:1054A0001DE0194800EB8410D0ED0D0A164800EB02
:1054B000841090ED090AB8EEC00AF4EEC00AF1EECD
:1054C00010FA07D8104800EB841090ED090AB8EEE6
:1054D000C00A04E00C4800EB841090ED0D0A0A4865
:1054E00000EB841080ED0D0AE9B2074A02EB84124A
:1054F00092ED0D0ABDEEC00A10EE100AFFF716FD80
:10550000BDEC068B70BD00003C00002000000000D8
:1055100010B50248FDF718FC10BD0000CC080020B3
:1055200070B50546AC6B0020E087E0862046FDF7AD
:1055300009FC70BDF8B504460E4615466068B0F526
:10554000827F0DD1A068B0F5004F03D0A068B0F500
:10555000806F05D12068006820F040002168086055
:105560006068B0F5827F1FD1A068B0F5806F0DD064
:105570003346002280212046009500F05BF808B3F6
:10558000606D40F0200060650320F8BD33460022C6
:1055900001212046009500F04DF898B1606D40F073
:1055A000200060650320F0E73346002201212046F9
:1055B000009500F03FF828B1606D40F02000606574
:1055C0000320E2E70020E0E77CB504460D461646DE
:1055D000164800681821B0FBF1F01549B0FBF1F056
:1055E0004FF47A71484301906068B0F5827F0DD125
:1055F0002B46002280212046009600F01BF898B12F
:10560000606D40F02000606503207CBD00BF019804
:1056100000B908E00198401E019020688068C0F33E
:10562000C0100028F3D100BF0020EEE738000020B2
:1056300040420F002DE9F84F04460D4690461E46A5
:10564000DDF82890FCF7B8FEA0EB0900371AFCF74C
:10565000B3FE82462C480068C0F3CB3078430090FC
:1056600045E0701C002842D0FCF7A6FEA0EB0A0023
:10567000B84200D2A7BB2068406820F0E000216853
:1056800048606068B0F5827F0DD1A068B0F5004F2A
:1056900003D0A068B0F5806F05D12068006820F0C5
:1056A000400021680860A06AB0F5005F0DD100BF1E
:1056B0002068006820F400502168086020680068B5
:1056C00040F400502168086000BF012084F85100B8
:1056D00000BF002084F8500000BF0320BDE8F88F11
:1056E000FFE7009800B900270098401E009020684E
:1056F00080682840A84201D1012000E000204045F8
:10570000AFD10020EAE700003800002000BF0120F0
:1057100001F09CFBFBE700002DED048B00BF4F4820
:10572000006802F0F1F89FED4E0A4E4880ED000A45
:105730004D4890ED000ADFED4D0A20EE200A4C485E
:1057400080ED000A4B480068FAF7BFFF41EC190BE7
:105750009FED490B53EC102BFAF740FF41EC180B6F
:10576000FAF7F6FF46490860052001F06FFB5AE0A2
:10577000444890ED420A10EE101A0846FAF7A5FFC9
:1057800041EC190BB0EE490AF0EE690A01F0A8FAF3
:10579000B0EE408AF0EE608A9FED3B0B53EC102B8D
:1057A00051EC180BFAF7A4FF3AD8364890ED520A9C
:1057B00010EE101A0846FAF788FF41EC190BB0EE0C
:1057C000490AF0EE690A01F08BFAB0EE408AF0EE79
:1057D000608A9FED2D0B53EC102B51EC180BFAF750
:1057E00087FF1DD8274890ED620A10EE101A084670
:1057F000FAF76BFF41EC190BB0EE490AF0EE690ABB
:1058000001F06EFAB0EE408AF0EE608A9FED1E0B5A
:1058100053EC102B51EC180BFAF76AFF00D803E099
:10582000012001F013FBA3E700BF4FF4967001F0D5
:105830000DFB012220211648FCF7B8FD4FF42F7014
:1058400001F004FB1348006801F0BEFF002012497C
:105850000870012001F0FAFA61E70000180000204A
:10586000000010C890050020AC0500200020A244D4
:1058700094050020B00500209A999999999999402A
:10588000980500203C020020000000000000244099
:10589000000402400C0000208A0500202DED048B3E
:1058A00000BFFE48006802F02FF8FD480078052888
:1058B00078D19FEDFC0AFC4880ED000A9FEDFB0AC1
:1058C000FB4880ED000A9FEDFB0AFB4880ED000AD3
:1058D0005AE0FA4890ED420A10EE101A0846FAF71C
:1058E000F4FE41EC190BB0EE490AF0EE690A01F042
:1058F000F7F9B0EE408AF0EE608A9FEDF10B53ECC1
:10590000102B51EC180BFAF7F3FE3AD8EB4890ED58
:10591000520A10EE101A0846FAF7D7FE41EC190B9E
:10592000B0EE490AF0EE690A01F0DAF9B0EE408A09
:10593000F0EE608A9FEDE20B53EC102B51EC180B4C
:10594000FAF7D6FE1DD8DD4890ED620A10EE101A67
:105950000846FAF7BAFE41EC190BB0EE490AF0EE30
:10596000690A01F0BDF9B0EE408AF0EE608A9FED61
:10597000D40B53EC102B51EC180BFAF7B9FE00D8EE
:1059800003E0012001F062FAA3E700BF4FF4967034
:1059900001F05CFA01222021CB48FCF707FD6420CE
:1059A00001F054FABE480078042878D19FEDBD0A72
:1059B000BD4880ED000A9FEDBD0ABD4880ED000A9C
:1059C0009FEDBC0ABC4880ED000A5AE0BB4890ED50
:1059D000420A10EE101A0846FAF777FE41EC190B4E
:1059E000B0EE490AF0EE690A01F07AF9B0EE408AA9
:1059F000F0EE608A9FEDB20B53EC102B51EC180BBC
:105A0000FAF776FE3AD8AD4890ED520A10EE101A29
:105A10000846FAF75AFE41EC190BB0EE490AF0EECF
:105A2000690A01F05DF9B0EE408AF0EE608A9FED00
:105A3000A40B53EC102B51EC180BFAF759FE1DD8A0
:105A40009E4890ED620A10EE101A0846FAF73DFEE5
:105A500041EC190BB0EE490AF0EE690A01F040F989
:105A6000B0EE408AF0EE608A9FED950B53EC102B60
:105A700051EC180BFAF73CFE00D803E0012001F0CE
:105A8000E5F9A3E700BF4FF4967001F0DFF90122BA
:105A900020218D48FCF78AFC642001F0D7F980486A
:105AA0000078032878D19FED7F0A7F4880ED000AB7
:105AB0009FED7E0A7E4880ED000A9FED7E0A7E48BB
:105AC00080ED000A5AE07D4890ED420A10EE101A6F
:105AD0000846FAF7FAFD41EC190BB0EE490AF0EE70
