:020000040800F2
:10000000985400205D020008413400085130000877
:100010003D3400086B040008DD3F000800000000CC
:100020000000000000000000000000009D0100082A
:100030006706000800000000F90100080D3A0008FA
:1000400077020008770200087702000877020008AC
:10005000770200087702000877020008770200089C
:100060007702000877020008770200084D050008B3
:10007000770200087702000877020008770200087C
:10008000770200087702000877020008770200086C
:100090007104000877020008810400087702000854
:1000A000770200087702000877020008770200084C
:1000B00077020008093B0008770200087702000871
:1000C000770200087702000877020008770200082C
:1000D000C13900087702000877020008770200089B
:1000E000770200087702000877020008770200080C
:1000F00077020008770200087702000877020008FC
:100100007702000877020008193B00087702000810
:100110007702000877020008293B000877020008F0
:1001200077020008770200087702000877020008CB
:1001300077020008000000000000000077020008BD
:100140007702000891040008A10400087702000863
:10015000770200087702000877020008770200089B
:10016000770200087702000877020008770200088B
:10017000770200087702000800000000000000007D
:100180007702000877020008DFF80CD000F030F9A1
:100190000048004739400008985400202C4B19684B
:1001A0000868B0E8F04F80F30988BFF36F8F4FF015
:1001B000000080F3118870470000000008480068C4
:1001C000006880F308884FF0000080F3148862B65E
:1001D00061B6BFF34F8FBFF36F8F00DF00BF00BF6B
:1001E00008ED00E0DFF80C00016841F470010160E7
:1001F000704700BF88ED00E0EFF30980BFF36F8F19
:10020000134B1A681EF0100F08BF20ED108A20E96A
:10021000F04F106009B44FF0500080F31188BFF325
:100220004F8FBFF36F8F04F007FC4FF0000080F397
:10023000118809BC19680868B0E8F04F1EF0100F6B
:1002400008BFB0EC108A80F30988BFF36F8F704746
:1002500084040020EFF305807047000006488047C3
:1002600006480047FEE7FEE7FEE7FEE7FEE7FEE79B
:10027000FEE7FEE7FEE7FEE7F53A00088901000821
:100280002DE9F05F0546002092469B4688460646CB
:10029000814640241BE0284641464746224600F05E
:1002A00096F853465A46C01A914110D31146184643
:1002B000224600F07DF82D1A67EB01084F462246D2
:1002C0000120002100F074F817EB00094E41201EB8
:1002D000A4F10104DFDC484631462A464346BDE826
:1002E000F09F40EA01039B0703D009E008C9121FF1
:1002F00008C0042AFAD203E011F8013B00F8013BE0
:10030000521EF9D27047D2B201E000F8012B491E0B
:10031000FBD270470022F6E710B513460A460446A2
:100320001946FFF7F0FF204610BD00F0004230F004
:1003300000400AD0C10D01F56071C0F3160042EA19
:100340000151C20840071143704700200146704721
:1003500030B5041E71F1000404DB4FF0004440424C
:1003600064EB0101141E73F1000405DB1C464FF021
:100370000043524263EB04038B4208BF824230BD0C
:1003800030B5041E71F1000404DB4FF0004440421C
:1003900064EB0101141E73F1000405DB1C464FF0F1
:1003A0000043524263EB0403994208BF904230BDC0
:1003B000202A04DB203A00FA02F100207047914025
:1003C000C2F1200320FA03F3194390407047202A1A
:1003D00004DB203A21FA02F00021704721FA02F3EF
:1003E000D040C2F1200291400843194670470000F6
:1003F000064C074D06E0E06840F0010394E8070072
:1004000098471034AC42F6D3FFF7C2FE30500008D4
:100410005050000870B58C1810F8015B15F00703F8
:1004200001D110F8013B2A1106D110F8012B03E08D
:1004300010F8016B01F8016B5B1EF9D12B0705D495
:100440000023521E0DD401F8013BFAE710F8013BDE
:10045000CB1A921C03E013F8015B01F8015B521EFA
:10046000F9D5A142D8D3002070BD00BFFEE700003F
:1004700010B5024800F053FB10BD000040070020FB
:1004800010B5024800F04BFB10BD000040070020F3
:1004900010B5024800F043FB10BD000068070020C3
:1004A00010B5024800F03BFB10BD000068070020BB
:1004B00030B58BB0054623492868096888421AD1AF
:1004C00000200690079001200890002001900290E3
:1004D000039004900590012009900A9001A92846F4
:1004E00000F0B2F9284600F06AFE0221284600F02A
:1004F000EBF8044620E014492868096888421BD1BB
:100500000F20069000200790012008900020019005
:100510000290039004900120059009900F200A900A
:1005200001A9284600F090F9284600F048FE102165
:10053000284600F0C9F804460CB100F095F80BB05D
:1005400030BD0000400700206807002010B50248B9
:1005500000F080FE10BD00009009002001460878E0
:1005600010381823B0FBF3F20848805CC865032AF2
:1005700005D908686FF30900001D886503E0086865
:100580006FF309008865886D70470000EC4F000824
:10059000014600208A6A8B69CBB932B1012A0DD09D
:1005A000022A03D0032A10D10EE000BFCB6A03F069
:1005B0008073B3F1807F00D1012007E0CB6AB3F1F3
:1005C000C07F00D1012001E000E000BF34E08B6972
:1005D000B3F5005F1AD132B1012A07D0022A03D045
:1005E000032A11D10AE000BF01200EE0CB6A03F01C
:1005F0008073B3F1807F00D1012006E0CB6AB3F1B4
:10060000C07F00D1012000E000BF15E032B1012A17
:1006100005D0022A04D0032A0CD103E000BF00BF9A
:10062000012008E0CB6A03F08073B3F1807F00D132
:10063000012000E000BF00BF704730B504682468A7
:1006400024F4802405682C60046863608468402C6E
:1006500004D10468A2600468E16003E00468A1605A
:100660000468E26030BD704772B600BFFEE700006C
:1006700010B52DED028BB0EE408AF0EE608A9FED52
:10068000100B53EC102B51EC180BFFF779FE00D236
:100690000EE09FED0B0B53EC102B51EC180BFFF7FA
:1006A00057FE05D851EC180B81F0004141EC180BB6
:1006B000B0EE480AF0EE680ABDEC028B10BD0000F7
:1006C000000000000000000010B5024692F8203043
:1006D000012B01D0022B06D1106840690843146831
:1006E0006061002010BD506A40F4802050620120FB
:1006F000F8E7F0B504460D461E4694F820702068D1
:100700008368A86800B900E000BF012F01D0022F64
:100710007CD103F0806030B903F0006018B903F0B9
:100720008050002873D0C3F30161022905D9606AA3
:1007300040F4000060620120F0BD0120884030607C
:10074000A86860B9B5F800C0E86840EA4C5C206869
:1007500000F5C07000EB0110C0F800C00FE0D5E953
:1007600001C040EACC00D5F80CC040EA0C00D4F837
:1007700000C00CF5C07C0CEB011CCCF80000D5F8D7
:1007800010C0206800F5C07000EB0110C0F804C074
:10079000287D01280ED1206800F5C07000EB011003
:1007A000406840F4807C206800F5C07000EB0110C8
:1007B000C0F804C0D079000692F806C040EA0C40A8
:1007C00092F805C040EA0C2C10794CEA000C206825
:1007D00000F5C07000EB0110C0F80CC0D078000626
:1007E00092F802C040EA0C4092F801C040EA0C20A6
:1007F00092F800C040EA0C00D4F800C00CF5C07CB0
:100800000CEB011CCCF80800206801E016E00FE0BA
:1008100000F5C07000EB0110006840F0010C20688A
:1008200000F5C07000EB0110C0F800C0002083E7A5
:10083000606A40F40010606201207DE7606A40F465
:1008400080206062012077E7F0B504460A462168FF
:1008500094F82050012D01D0022D7ED1424901F59E
:100860000071086840F001000860086820F47C50BE
:1008700008600868566A40EA06200860107D00F0AB
:100880001F06012000FA06F3C8699843C861A1F564
:100890000071D069C8B9D1F80C029843C1F80C02B4
:1008A000908880B2968940EA064601F51070576933
:1008B00040F83760108880B2168940EA064601F594
:1008C0001070576900EBC7004660D069012819D144
:1008D000D1F80C021843C1F80C02908880B2168837
:1008E00040EA064601F51070576940F83760908974
:1008F00080B2168940EA064601F51070576900EB90
:10090000C7004660906928B9D1F804029843C1F83D
:10091000040204E0D1F804021843C1F8040210698B
:1009200028B9D1F814029843C1F8140204E0D1F8B0
:1009300014021843C1F81402106A012804D1D1F836
:100940001C021843C1F81C02D1F8000220F001007B
:10095000C1F800020020F0BDFFE7606A40F480208B
:1009600060620120F7E7000000640040704770B546
:10097000044694F82050012D01D0022D7DD151B9AB
:100980002068C06800F0030080B9606A40F400107D
:100990006062012070BD2068006900F0030028B982
:1009A000606A40F4001060620120F3E7206800F5FF
:1009B000D87000EB0110006800F0040090609068AF
:1009C00040B9206800F5D87000EB01100068400DB8
:1009D000106007E0206800F5D87000EB0110006897
:1009E000C0085060206800F5D87000EB0110006866
:1009F00000F00200D060206800F5D87000EB011014
:100A0000406800F00F001061206800F5D87000EB1E
:100A10000110406800F47F40000A9061206800F5F2
:100A2000D87000EB01104068000C5061206800F5A0
:100A3000D87000EB011080681870206800F5D8703D
:100A400000EB0110806800F47F40000A58702068B5
:100A500000F5D87000EB0110806800F47F00000CF6
:100A60009870206800F5D87000EB01108068000EC7
:100A7000D870206800F5D87000E02FE000EB01107E
:100A8000C0681871206800F5D87000EB0110C068CC
:100A900000F47F40000A5871206800F5D87000EB20
:100AA0000110C06800F47F00000C9871206800F508
:100AB000D87000EB0110C068000ED87131B9206801
:100AC000C06840F020002668F06005E020680069FA
:100AD00040F020002668306100205BE7606A40F447
:100AE00080206062012055E70146002091F8202017
:100AF000012A01D0022A11D10B689B6803F08063A0
:100B000003B1401C0B689B6803F0006303B1401CF9
:100B10000B689B6803F0805303B1401C70472DE9BC
:100B2000F05F04460025206846692068D0F80490EC
:100B3000206887682068D0F80CA02068D0F810B032
:100B40002068D0F8188006F00100002855D007F082
:100B50000100C0B101202168886007F0020018B1CF
:100B6000204600F05CFB0EE007F0040010B145F4F5
:100B7000006508E007F0080010B145F4805502E078
:100B8000204600F04BFB07F48070C8B14FF4807032
:100B90002168886007F4007018B1204600F041FB1E
:100BA0000EE007F4806010B145F4005508E007F44A
:100BB000006010B145F4804502E0204600F030FBB3
:100BC00007F48030C8B14FF480302168886007F4A2
:100BD000003018B1204600F026FB0EE007F480201C
:100BE00010B145F4004508E007F4002010B145F4C9
:100BF000803502E0204600F015FB06F0080038B111
:100C00000AF0100020B145F4007510202168C8607A
:100C100006F0040040B10AF0080028B1082021685D
:100C2000C860204600F01EFA06F0020038B12068C5
:100C3000C06800F0030010B1204600F015FA06F07D
:100C4000400038B10BF0100020B145F48065102051
:100C50002168086106F0200040B10BF0080028B1BF
:100C6000082021680861204600F082FA06F0100092
:100C700038B12068006900F0030010B1204600F090
:100C800079FA06F4003040B109F0100028B11020C4
:100C900021684860204600F091FA06F4803040B1A7
:100CA00009F0080028B1082021684860204600F0BB
:100CB000BBFA06F4004088B309F0040078B306F4E8
:100CC000807020B108F0010008B145F0010506F47C
:100CD000007020B108F0020008B145F0020506F4EA
:100CE000806020B108F0040008B145F0040506F466
:100CF0000060A0B108F0700088B108F070004028D2
:100D000017D006DC10280BD020280CD0302819D1A1
:100D10000CE0502810D0602814D110E01DE019E03C
:100D200045F008050FE045F010050CE045F0200502
:100D300009E045F0400506E045F0800503E045F494
:100D4000807500E000BF00BF2068806920F070005F
:100D5000216888610420216848602DB1606A2843B9
:100D600060622046FFF702FEBDE8F09F70B50446C2
:100D70000CB9012070BD94F8200010B9204600F095
:100D8000AFF82068006840F001002168086000F0BA
:100D900041FD05460DE000F03DFD401B0A2808D945
:100DA000606A40F400306062052084F82000012071
:100DB000E0E72068406800F001000028EBD02068E0
:100DC000006820F002002168086000F023FD05465D
:100DD0000DE000F01FFD401B0A2808D9606A40F4AE
:100DE00000306062052084F820000120C2E72068FE
:100DF000406800F002000028EBD1207E012806D1D7
:100E00002068006840F080002168086005E02068E4
:100E1000006820F0800021680860607E012806D10B
:100E20002068006840F040002168086005E0206804
:100E3000006820F0400021680860A07E012806D1EB
:100E40002068006840F020002168086005E0206804
:100E5000006820F0200021680860E07E012806D1AB
:100E60002068006820F010002168086005E0206814
:100E7000006840F0100021680860207F012806D13A
:100E80002068006840F008002168086005E02068DC
:100E9000006820F0080021680860607F012806D102
:100EA0002068006840F004002168086005E02068C0
:100EB000006820F0040021680860D4E902010843BA
:100EC00021690843616908436168491E0843216834
:100ED000C86100206062012084F82000002049E7FA
:100EE00010B586B00446142101A8FFF713FA57493C
:100EF000206888424AD156480068401C544908601E
:100F00000846006801280FD100BF0020009051481A
:100F1000006840F000704F4908600846006800F023
:100F20000070009000BF00BF00BF00200090494843
:100F30001038006840F00100464910390860084642
:100F4000006800F00100009000BF00BF4FF4C050E7
:100F500001900220029000200390032004900920B9
:100F6000059001A93C4800F055FB00220621142001
:100F700000F014FD142000F001FD002206211620CF
:100F800000F00CFD162000F0F9FC5DE0334920680C
:100F9000884259D100BF002000902E48006840F0E0
:100FA00080602C4908600846006800F0806000906E
:100FB00000BF00BF26480068401C2549086008465D
:100FC000006801280FD100BF002000902148006870
:100FD00040F000701F4908600846006800F000708B
:100FE000009000BF00BF00BF0020009019481038DB
:100FF000006840F002001749103908600846006890
:1010000000F00200009000BF00BF4FF4405001907C
:1010100002200290002003900320049009200590F4
:1010200001A90F4800F0F6FA00220621412000F045
:10103000B5FC412000F0A2FC00220621422000F075
:10104000ADFC422000F09AFC06B010BD00640040E8
:1010500010000020403802400000024000680040BC
:10106000000402407047000010B58AB004463749BA
:1010700020680968884267D100200190029001AB86
:1010800003AA00213148FFF772FC059858B903986C
:10109000B0F5007F07D90398B0F5027F03D801A906
:1010A000039802F049FA012002F06EFA00EE100AED
:1010B000B8EEC00A264880ED000A022002F064FA69
:1010C00000EE100AB8EEC00A224880ED000A0320A4
:1010D00002F05AFA00EE100AB8EEC00A1E4880ED7F
:1010E000000A042002F050FA00EE100AB8EEC00A1E
:1010F0001A4880ED000A012002F03EFA00EE100AC4
:10110000B8EEC00A164880ED000A022002F034FA58
:1011100000EE100AB8EEC00A124880ED000A032063
:1011200002F02AFA00EE100AB8EEC00A0E4880ED6E
:10113000000A042002F020FA00EE100AB8EEC00AFD
:101140000A4880ED000A00BF0AB010BD4007002029
:10115000340400203C040020440400204C040020FF
:1011600038040020400400204804002050040020DF
:101170007047000010B58AB004460F49206809681E
:10118000884217D100200190029001AB03AA0121EF
:101190000948FFF7ECFB059858B90398B0F5007FB4
:1011A00007D90398B0F5027F03D801A9039802F08C
:1011B000C3F900BF0AB010BD68070020704770B5C2
:1011C000044694F82000012822D1022084F820004F
:1011D0002068006820F001002168086000F01AFB18
:1011E00005460DE000F016FB401B0A2808D9606A8E
:1011F00040F400306062052084F82000012070BDBA
:101200002068406800F001000028EBD16062F6E73A
:10121000606A40F4002060620120F0E77047704788
:1012200070477047704770477047014691F8350026
:10123000022803D08020486501207047052081F8EE
:1012400035000868006820F001000A68106000207E
:10125000F3E70000F8B50446002000908C480068D1
:101260004FF41651B0FBF1F7A56D2E6894F85C10A1
:1012700008208840304098B12068006800F00400E1
:1012800070B12068006820F004002168086094F8BC
:101290005C1008208840A860606D40F00100606527
:1012A00094F85C1001208840304068B120684069A3
:1012B00000F0800040B194F85C1001208840A860E4
:1012C000606D40F00200606594F85C100420884076
:1012D000304068B12068006800F0020040B194F826
:1012E0005C1004208840A860606D40F004006065D8
:1012F00094F85C1010208840304078B32068006873
:1013000000F0080050B394F85C1010208840A860EA
:101310002068006800F4802080B12068006800F434
:10132000002028B9206CC8B12046216C884715E000
:10133000A06C98B12046A16C88470FE02068006837
:1013400000F4807028B92068006820F00800216847
:101350000860206C10B12046216C884794F85C101E
:10136000202088403040002865D02068006800F0C8
:10137000100000285FD094F85C1020208840A860FE
:1013800094F83500052828D12068006820F0160060
:10139000216808602068406920F080002168486169
:1013A000206C08B9A06C28B12068006820F0080003
:1013B0002168086094F85C103F208840A8600120F4
:1013C00084F8350000BF002084F8340000BF206D91
:1013D00010B12046216D8847F8BD2068006800F4F0
:1013E000802080B12068006800F4002028B9606C7B
:1013F00010B12046616C88471DE0E06BD8B12046F3
:10140000E16B884717E02068006800F4807068B9D5
:101410002068006820F0100021680860012084F82E
:10142000350000BF002084F8340000BFE06B10B12D
:101430002046E16B8847606D38B3606D00F00100B5
:10144000F0B1052084F835002068006820F0010024
:101450002168086000BF0098401C0090B84200D985
:1014600005E02068006800F001000028F3D100BF0B
:10147000012084F8350000BF002084F8340000BF4C
:10148000E06C10B12046E16C884700BFA4E7000083
:10149000200000202DE9F0410446002500F0BAF9B3
:1014A000074614B90120BDE8F081606A00B100BFB1
:1014B000022084F8350000BF002084F8340000BF0B
:1014C0002068006820F00100216808600AE000F050
:1014D000A1F9C01B052805D920206065032084F8E8
:1014E0003500E0E72068006800F001000028EED138
:1014F0002068056821480540D4E901010843E168F6
:1015000008432169084361690843A1690843E16907
:101510000843216A08430543606A042803D1D4E9DB
:101520000B0108430543206805602068456925F0E4
:101530000705606A0543606A04280DD1A06A054367
:10154000E06A48B12046FFF723F828B140206065E3
:10155000012084F83500A6E7206845612046FEF7A3
:10156000FDFF064694F85C103F208840B0600020E4
:101570006065012084F83500002094E73F8010F07A
:101580002DE9F04704460D4616461F464FF0000869
:10159000D4F8589000BF94F83400012802D10220FA
:1015A000BDE8F087012084F8340000BF94F83500CE
:1015B000012825D1022084F83500002060653B46D3
:1015C000324629462046FFF738F894F85C103F2051
:1015D0008840C9F808002068006840F016002168BB
:1015E0000860206C28B12068006840F0080021687D
:1015F00008602068006840F001002168086006E08B
:1016000000BF002084F8340000BF4FF002084046BD
:10161000C6E70000F8B502460B460025002400206E
:101620000021D6E0012606FA01F51E6806EA050447
:10163000AC4274D11E7906F00306012E04D01E7947
:1016400006F00306022E13D190684F000326BE4019
:10165000B0434F00DE68BE403043906050680126C2
:101660008E40B0431E79C6F300168E403043506062
:101670001E7906F00306032E09D0D0684F0003261A
:10168000BE40B0434F009E68BE403043D0601E79DC
:1016900006F00306022E13D1CF0802F1200656F8F9
:1016A00027004E07F70E0F26BE40B0434F07FF0E30
:1016B0001E69BE403043CF0802F1200646F82700DD
:1016C00010684F000326BE40B0431E7906F00306A3
:1016D0004F00BE40304310605E6806F44036002E76
:1016E00076D000BF002600963C4E366846F4804611
:1016F0003A4F3E603E46366806F48046009600BF8C
:1017000000BF374E8F0856F827008E07370F0F2679
:10171000BE40B043334EB24202D1002624E057E02F
:10172000314EB24201D101261EE0304EB24201D10B
:10173000022619E02E4EB24201D1032614E02D4EAE
:10174000B24201D104260FE02B4EB24201D1052650
:101750000AE02A4EB24201D1062605E0284EB242E6
:1017600001D1072600E008268F073F0FBE40304317
:101770001B4E8F0846F82700224E3068A0435E6853
:1017800006F4801606B120431E4E3060361D3068C8
:10179000A0435E6806F4001606B12043194E361DBC
:1017A0003060184E361F3068A0435E6806F400367D
:1017B00006B12043134E361F3060361F3068A043F9
:1017C0005E6806F4803606B120430E4E083E306057
:1017D000491C1029FFF426AFF8BD00004438024030
:1017E00008380140000002400004024000080240A6
:1017F000000C024000100240001402400018024099
:10180000001C0240083C01400AB1816101E00B0468
:101810008361704701480068704700001400002091
:101820000348006803490978084401490860704783
:10183000140000201C00002010B50D48006840F482
:1018400000700B4908600846006840F4806008603A
:101850000846006840F480700860032000F0DCF85F
:101860000F2000F007F800F05FF8002010BD000026
:10187000003C02402DE9F04188B004460027B846FC
:1018800000BF002001902348006840F00200214979
:1018900008600846006800F00200019000BF00BF29
:1018A00002A903A800F08EF9069F1FB900F0B2F953
:1018B000054602E000F0AEF945001748B5FBF0F030
:1018C000A0F1010815481649086040F2E7311448B4
:1018D000C160C0F80480002101618160816100F075
:1018E0003BFE064696B90E4800F0DAFE06466EB993
:1018F0001D2000F043F8102C07D2002221461D20A5
:1019000000F04CF80748046000E00126304608B0BB
:10191000BDE8F0814038024040420F000004004022
:10192000F00900201800002008B500BF002000903A
:101930001148006840F480400F490860084600687C
:1019400000F48040009000BF00BF00BF0020009066
:10195000081F006840F08050091F086008460068B2
:1019600000F08050009000BF00BF00220F21901EA9
:1019700000F014F808BD0000443802400146084653
:10198000002809DB00F01F0301229A4043099B0055
:1019900003F1E023C3F8002100BF70472DE9F05F99
:1019A00080460D461646002702F01AFB07463946C8
:1019B0002A46334601F00700C0F1070ABAF1040FC6
:1019C00002D94FF0040A01E0C0F1070AD14600F144
:1019D000040ABAF1070F02D24FF0000A01E0A0F1A9
:1019E000030AD4464FF0010A0AFA09FAAAF1010AD9
:1019F0000AEA020A0AFA0CFA4FF0010B0BFA0CFB86
:101A0000ABF1010B0BEA030B4AEA0B0421464046FB
:101A100002F0EEFABDE8F09F00BF00F00702064BAF
:101A200019684FF6FF031940044B0B4343EA0221A8
:101A3000014B196000BF70470CED00E00000FA0593
:101A400070B504460D460CB9012070BD58480068B9
:101A500000F00700A84209D255490D7008460068F9
:101A600000F00700A84201D00120EEE7207800F046
:101A7000020002281DD1207800F00400042805D1BE
:101A80004C48006840F4E0504A490860207800F073
:101A90000800082805D14748006840F460404549DF
:101AA00008604448006820F0F000A16808434149FC
:101AB0000860207800F00100A8B36068012807D111
:101AC0003C4808380068C0F34040B8B90120BCE782
:101AD0006068022802D06068032807D135480838BA
:101AE0000068C0F3406048B90120AEE731480838CB
:101AF0000068C0F3400008B90120A6E72D4800683F
:101B000020F00300616808432A490860FFF782FE5D
:101B1000064609E0FFF77EFE801B41F288318842CD
:101B200002D9032091E707E02248006800F00C008A
:101B30006168B0EB810FEDD11D48006800F007002F
:101B4000A84209D91A490D700846006800F007003C
:101B5000A84201D0012078E7207800F00400042892
:101B600007D11448006820F4E050E16808431149A7
:101B70000860207800F00800082808D10D480068A7
:101B800020F46040216940EAC1000A49086000F081
:101B900061F808490968C1F30311074A515CC8405C
:101BA0000649086006480068FFF764FE00204CE71D
:101BB000003C024008380240F44F0008200000209A
:101BC000180000200F2202600D4A126802F0030282
:101BD00042600B4A126802F0F0028260084A126802
:101BE00002F4E052C260064A126802F46042D2086F
:101BF0000261044A126802F007020A60704700009E
:101C000008380240003C024001480068704700006C
:101C10002000002000B5FFF7F7FF04490968C1F371
:101C20008221034A515CC84000BD000008380240D0
:101C30000450000800B5FFF7E7FF04490968C1F345
:101C40004231034A515CC84000BD000008380240E0
:101C5000045000082DE9F047002400250026A14685
:101C60002548006800F00C0020B1042805D00828A1
:101C70003AD105E0DFF8849039E0DFF8849036E06F
:101C80001D48001F006800F03F041B48001F00684B
:101C900000F4800078B11A481749091F0968C1F398
:101CA0008811A0FB01700146224600233846FEF74A
:101CB000E7FA05460EE011480F49091F0968C1F30C
:101CC0008811A0FB01700146224600233846FEF72A
:101CD000D7FA05460848001F0068C0F30140401CC1
:101CE0004600B5FBF6F902E0DFF8109000BF00BF38
:101CF0004846BDE8F0870000083802400024F400A0
:101D000040787D01F8B504460CB90120F8BD207873
:101D100000F00100002874D0F948006800F00C00C1
:101D200004280DD0F648006800F00C00082813D1F4
:101D3000F348001F006800F48000B0F5800F0BD15D
:101D4000EF4808380068C0F34040002859D0606868
:101D5000002856D10120D9E700BF6068B0F5803F68
:101D600008D1E7480838006840F48030E449083971
:101D700008601EE06068B0F5A02F0DD1E04808387B
:101D8000006840F48020DE49083908600846006891
:101D900040F4803008600CE0D9480838006820F42E
:101DA0008030D749083908600846006820F4802050
:101DB000086000BF606890B1FFF72CFD054606E0A3
:101DC000FFF728FD401B642801D903209EE7CC487B
:101DD00008380068C0F340400028F1D011E0FFF758
:101DE00019FD054606E0FFF715FD401B642801D9E3
:101DF00003208BE7C24808380068C0F34040002841
:101E0000F1D1207800F0020002285FD1BC480068C0
:101E100000F00C0058B1BA48006800F00C00082827
:101E20001CD1B748001F006800F48000B0B9B44866
:101E300008380068C0F3400020B1E068012801D0F4
:101E4000012063E7AE480838006820F0F8002169F7
:101E500040EAC100AA490839086037E0E06800B3E9
:101E60000120A8490860FFF7D5FC054606E0FFF70A
:101E7000D1FC401B022801D9032047E7A0480838BD
:101E80000068C0F340000028F1D09D480838006881
:101E900020F0F800216940EAC1009949083908603A
:101EA00014E0002097490860FFF7B4FC054606E0FF
:101EB000FFF7B0FC401B022801D9032026E7904819
:101EC00008380068C0F340000028F1D1207800F005
:101ED000080008282CD16069A8B101208A4908604F
:101EE000FFF798FC054606E0FFF794FC401B02282C
:101EF00001D903200AE782486C300068C0F3400033
:101F00000028F1D014E000207F490860FFF782FC30
:101F1000054606E0FFF77EFC401B022801D903209E
:101F2000F4E677486C300068C0F340000028F1D137
:101F3000207800F00400042870D100277048383061
:101F4000006800F0805090B900BF002000906C48FD
:101F50003830006840F080506949383108600846E0
:101F6000006800F08050009000BF00BF0127674864
:101F7000006800F48070B0B96448006840F4807074
:101F800062490860FFF746FC054606E0FFF742FCA1
:101F9000401B022801D90320B8E65C48006800F421
:101FA00080700028F2D000BFA068012808D15448F2
:101FB0006830006840F001005149683108601DE058
:101FC000A06805280DD14E486830006840F0040034
:101FD0004B49683108600846006840F0010008601D
:101FE0000CE047486830006820F00100444968313F
:101FF00008600846006820F00400086000BFA06880
:10200000A8B1FFF707FC054609E0FFF703FC401BFA
:1020100041F28831884202D9032077E626E0384829
:1020200068300068C0F340000028EED013E0FFF7EE
:10203000F1FB054608E0FFF7EDFB401B41F288315C
:10204000884201D9032061E62D4868300068C0F35A
:1020500040000028EFD1012F07D12948383000680F
:1020600020F0805026493831086000BFA069002860
:1020700045D02348006800F00C0008285DD0A06916
:10208000022845D100201F490866FFF7C3FB05461B
:1020900006E0FFF7BFFB401B022801D9032035E60D
:1020A000174808380068C0F340600028F1D1D4E92F
:1020B00007010843616A40EA81110122A06AC2EB6C
:1020C000500041EA00412C20005D41EA00600C49CB
:1020D000091F086001200B490866FFF79BFB0546B6
:1020E00006E0FFF797FB401B022801D903200DE60D
:1020F000034808380068C0F340600028F1D049E088
:102100000838024000004742800E474200700040FD
:10211000002021490866FFF77DFB054606E0FFF732
:1021200079FB401B022801D90320EFE51B4800681A
:10213000C0F340600028F2D12CE0A069012800D152
:10214000E4E51648001D0668A069012820D006F4C1
:102150008001E06981421BD106F03F01206A814283
:1021600016D147F6C0703040616AB0EB811F0FD1C5
:1021700006F440310122A06AC2EB5000B1EB004FDF
:1021800006D106F070612C20005DB1EB006F01D02C
:102190000120BBE50020B9E50000474200380240BD
:1021A00070470000F8B504462068466820688568D6
:1021B000C5F3801048B905F0010030B1C6F38010B6
:1021C00018B12046216C8847F8BDC5F3400030B1F6
:1021D000C6F3C01018B12046616C8847F4E7C5F318
:1021E000401030B9C5F3801018B9C5F3002000289D
:1021F0007CD0C6F3401000287DD0C5F38010F0B12C
:1022000094F8510003280ED0606D40F00400606522
:1022100000BF002000902068C0680090206880689F
:10222000009000BF0BE000BF002000902068C06855
:10223000009020688068009000BF00BFC4E7C5F32D
:10224000401088B1606D40F00100606500BF002063
:1022500000902068806800902068006820F04000AE
:102260002168086000BF00BFC5F3002058B1606D51
:1022700040F00800606500BF002000902068806882
:10228000009000BF00BF606D78B32068406820F008
:10229000E00021684860012084F8510006F0020047
:1022A000022802D006F0010008B32068406820F040
:1022B000030021684860E06C50B11048E16C08658B
:1022C000E06CFEF7B2FF18B1606D40F04000606551
:1022D000A06C50B10948A16C0865A06CFEF7A5FF81
:1022E00018B1606D40F04000606503E003E02046F7
:1022F000FFF756FF68E700BF66E70000D139000826
:1023000010B504460CB9012010BD606A38B9606888
:10231000B0F5827F00D105E00021E16102E00021FB
:10232000216161610021A16294F8510028B9002067
:1023300084F85000204600F047F8022084F851004D
:102340002068006820F0400021680860A08800F440
:102350008270218901F404410843A18901F40061DC
:102360000843217C01F002010843217D01F00101B5
:102370000843218B01F400710843217F01F03801EB
:1023800008432021095D01F080010843218D01F4FB
:1023900000510843216808600421A06901EA104047
:1023A00094F8241001F01001084321684860206867
:1023B000C06920F400602168C861002060650120C8
:1023C00084F8510000209FE710B586B00446142120
:1023D00001A8FDF79FFF2E492068884255D100BF14
:1023E000002000902B48006840F480402949086094
:1023F0000846006800F48040009000BF00BF00BFA6
:102400000020009023481038006840F00400214963
:10241000103908600846006800F00400009000BF12
:1024200000BF00BF002000900846006840F0020096
:1024300008600846006800F00200009000BF00BF7E
:102440000C200190022002900020039003200490B1
:102450000520059001A91048FFF7DCF84FF48060D3
:102460000190022002900020039003200490052098
:10247000059001A90948FFF7CDF800220521242085
:10248000FFF78CFA2420FFF779FA06B010BD0000A0
:10249000003800404038024000080240000402407A
:1024A0007047704730B502460B4600BF92F83C00BB
:1024B000012801D1022030BD012082F83C0000BF7C
:1024C000022082F83D00106844681068816824F09A
:1024D00070041868044310684460184D1068A842DE
:1024E0001BD01068B0F1804F17D0154D1068A8426E
:1024F00013D0144D1068A8420FD0134D1068A84295
:102500000BD0124D1068A84207D0114D1068A84298
:1025100003D0104D1068A84205D121F08001586801
:10252000014310688160012082F83D0000BF002057
:1025300082F83C0000BF00BFBDE700000000014082
:102540000004004000080040000C0040000401406E
:10255000004001400018004010B504460CB90120AD
:1025600010BD94F83D0028B9002084F83C002046B6
:1025700000F026F8022084F83D00211D206801F0BB
:10258000DBFA012084F8460000BF84F83E000121F8
:102590003F200155402001554120015500BF00BF9B
:1025A000012084F842004320015544200155452074
:1025B000015500BF012084F83D000020D0E7000055
:1025C00038B5044631492068884218D100BF002040
:1025D00000902F48006840F008002D490860084628
:1025E000006800F00800009000BF00BF0022082132
:1025F0003220FFF7D3F93220FFF7C0F944E0254934
:102600002068884218D100BF002000902048006850
:1026100040F010001E4908600846006800F01000F5
:10262000009000BF00BF002207213620FFF7B6F957
:102630003620FFF7A3F927E01749206888420FD119
:1026400000BF002000901248006840F08000104950
:1026500008600846006800F08000009000BF13E0AA
:102660000E49206888420FD100BF00200090084822
:10267000006840F48070064908600846006800F46D
:102680008070009000BF00BF38BD0000000C00400B
:102690004038024000100040001C00400020004074
:1026A000014691F83D00012801D001207047022029
:1026B00081F83D000868C06840F001000B68D860F0
:1026C0001A4B086898421BD00868B0F1804F17D0A9
:1026D000174B0868984213D0164B086898420FD0E1
:1026E000154B086898420BD0144B0868984207D0E5
:1026F000134B0868984203D0124B086898420CD1DB
:102700000868806800F00702062A0CD00868006894
:1027100040F001000B68186005E00868006840F0B0
:1027200001000B6818600020C0E7000000000140B5
:102730000004004000080040000C0040000401407C
:1027400000400140001800402DE9F04104460D46CC
:10275000002700BF94F83C00012802D10220BDE808
:10276000F081012084F83C0000BF022084F83D0085
:102770002068866826F0770626F47F462068866003
:102780002868502833D00CDC202850D004DC0028E6
:102790004BD0102851D149E0302849D040284CD1A5
:1027A00039E060282DD0702807D0B0F5805F03D0C5
:1027B000B0F5005F41D10DE041E0D5E902136A6850
:1027C000206801F0B9FA2068866846F0770620682C
:1027D000866034E0D5E902136A68206801F0ACFA3B
:1027E0002068806840F480402168886027E0EA68BB
:1027F0006968206801F0B4FA5021206801F0A7FA56
:102800001DE0EA686968206801F0BDFA602120686F
:1028100001F09DFA13E0EA686968206801F0A0FA07
:102820004021206801F093FA09E000BF00BF00BF1B
:102830002968206801F08BFA01E0012700BF00BF82
:10284000012084F83D0000BF002084F83C0000BF58
:10285000384684E77047704710B504462068006921
:10286000C0F34000D8B12068C068C0F34000B0B1E8
:102870006FF00200216808610120207720688069DC
:1028800000F0030018B12046FFF7E5FF05E0204601
:1028900000F0ADF8204600F0ABF80020207720686B
:1028A0000069C0F38000D8B12068C068C0F3800020
:1028B000B0B16FF004002168086102202077206821
:1028C000806900F4407018B12046FFF7C4FF05E0AE
:1028D000204600F08CF8204600F08AF8002020778F
:1028E00020680069C0F3C000D8B12068C068C0F398
:1028F000C000B0B16FF008002168086104202077A3
:102900002068C06900F0030018B12046FFF7A3FF5C
:1029100005E0204600F06BF8204600F069F8002042
:10292000207720680069C0F30010D8B12068C06823
:10293000C0F30010B0B16FF01000216808610820EA
:1029400020772068C06900F4407018B12046FFF776
:1029500082FF05E0204600F04AF8204600F048F8E3
:10296000002020772068006900F0010058B120683D
:10297000C06800F0010030B16FF00100216808610B
:10298000204600F043FA20680069C0F3C01058B137
:102990002068C068C0F3C01030B16FF080002168BB
:1029A00008612046FFF77CFD20680069C0F38010B5
:1029B00058B12068C068C0F3801030B16FF040009B
:1029C00021680861204600F02DFA20680069C0F3F4
:1029D000401058B12068C068C0F3401030B16FF0AB
:1029E0002000216808612046FFF75BFD10BD70479D
:1029F00010B504460821204600F07EF925480078ED
:102A000008BB25480078F0B91923244A082120463C
:102A100000F04EF822480088542802D101201E49B7
:102A2000087001201B4908701B48007880BB1C48B7
:102A30000088401C1A4908801A4B1B4A082120466E
:102A400000F000FD24E013480078012820D112484E
:102A50000078E8B91923144A0821204600F028F824
:102A60000F480088542802D101200B49087000202B
:102A7000084908700848007850B909480088401C87
:102A800007490880074B054A0821204600F0DAFC78
:102A900010BD00007E0400207F0400209C0C00205C
:102AA00080040020AA0D0020CE0C002070470000FA
:102AB0002DE9F04704460D4616461F464FF0000824
:102AC00015B994F83E000BE0042D02D13F20005DC3
:102AD00006E0082D02D14020005D01E04120005DAC
:102AE000022801D1BDE8F08715B994F83E000BE04B
:102AF000042D02D13F20005D06E0082D02D14020C8
:102B0000005D01E04120005D012817D10EB907B139
:102B1000E8E71DB9022084F83E0011E0042D03D13E
:102B200002213F2001550BE0082D03D10221402056
:102B3000015505E002214120015501E00120D1E7C6
:102B400035B1042D1FD0082D38D00C2D6CD150E09C
:102B50005F49606AC1635F49606A01645E49606A97
:102B6000C164216801F134023B463146606AFEF7D8
:102B700007FD08B10120B5E72068C06840F4007087
:102B80002168C86053E05249A06AC1635149A06AF4
:102B900001645149A06AC164216801F138023B46D1
:102BA0003146A06AFEF7ECFC08B101209AE72068E4
:102BB000C06840F480602168C86038E04449E06A39
:102BC000C1634449E06A01644349E06AC164216821
:102BD00001F13C023B463146E06AFEF7D1FC08B108
:102BE00001207FE72068C06840F400602168C86069
:102BF0001DE03749206BC1633649206B01643649BB
:102C0000206BC164216801F140023B463146206BD4
:102C1000FEF7B6FC08B1012064E72068C06840F404
:102C200080502168C86002E04FF0010800BF00BF7B
:102C3000B8F1000F4AD101222946206800F0E8FFD0
:102C400026492068884203D025492068884201D15E
:102C5000012000E0002028B12068406C40F40040D2
:102C6000216848641D49206888421BD02068B0F163
:102C7000804F17D01B492068884213D01A4920681A
:102C800088420FD01949206888420BD01449206827
:102C9000884207D016492068884203D01549206829
:102CA00088420DD12068806800F00709B9F1060F4D
:102CB0000CD02068006840F001002168086005E041
:102CC0002068006840F0010021680860404609E77C
:102CD000333C00089B3C0008DB3C0008000001403E
:102CE000000401400004004000080040000C0040C7
:102CF000004001400018004070B504460D46002613
:102D000035B1042D0ED0082D16D00C2D28D11DE084
:102D10002068C06820F400702168C860606AFEF70F
:102D200084FA1FE02068C06820F480602168C860D1
:102D3000A06AFEF77AFA15E02068C06820F4006007
:102D40002168C860E06AFEF770FA0BE02068C0688E
:102D500020F480502168C860206BFEF766FA01E01D
:102D6000012600BF00BF002E4AD10022294620685C
:102D700000F04EFF23492068884203D02249206892
:102D8000884201D1012000E0002090B100BF2068FE
:102D9000006A41F21111084050B92068006A891098
:102DA000084028B92068406C20F40040216848643D
:102DB00000BF00BF2068006A41F21111084050B9FD
:102DC0002068006A8910084028B92068006820F04F
:102DD00001002168086000BF1DB9012084F83E0091
:102DE0000EE0042D03D101213F20015508E0082DFC
:102DF00003D101214020015502E00121412001556C
:102E0000304670BD000001400004014010B504468A
:102E100003492068884201D1FEF702FD10BD000081
:102E200000040040704710B504460CB9012010BDE5
:102E3000A06900B100E000BF94F83D0028B900206F
:102E400084F83C00204600F027F8242084F83D0058
:102E50002068C06820F400502168C860204600F057
:102E6000A7FF2068006920F490402168086120686D
:102E7000406920F02A00216848612068C06840F459
:102E800000502168C86000202064202084F83D00A4
:102E900084F83E000020CAE710B586B0044614212D
:102EA00001A8FDF737FA6249206888424DD100BF7A
:102EB000002000905F48006840F400205D490860F1
:102EC0000846006800F40020009000BF00BF00BF6B
:102ED0000020009057481038006840F00100554924
:102EE000103908600846006800F00100009000BF3B
:102EF00000BF00BF002000900846006840F00400BA
:102F000008600846006800F00400009000BF00BFA1
:102F100002200190029000200390032004900820DA
:102F2000059001A94448FEF775FB4FF480600190BD
:102F300002200290002003900320049008200590B6
:102F400001A93E48FEF766FB70E03D4920688842D3
:102F50006CD100BF002000903648006840F480101B
:102F6000344908600846006800F48010009000BFF3
:102F700000BF00BF002000902E481038006840F0CD
:102F800004002C49103908600846006800F004006D
:102F9000009000BF00BF00BF0020009008460068FE
:102FA00040F0080008600846006800F00800009043
:102FB00000BF00BF881401900220029000200390FF
:102FC000032004900820059001A91C48FEF722FB6D
:102FD000042001900220029000200390032004901E
:102FE0000820059001A91748FEF714FB1648174959
:102FF0000860C0054860002114488160C1604FF43A
:10300000806101610021416181614FF48071C16182
:103010004902016200214162FEF73CFA08B1FDF766
:1030200023FB00BF0948A063846300BF06B010BD46
:10303000004C0040403802400000024000080240BE
:1030400000500040000C0240106002409009002037
:1030500000BFFEE710B50E480E4908600620486024
:1030600000210C488160C1604FF400310161090109
:10307000416100210176012141768176C1760021EE
:1030800001774177FDF772FE08B1FDF7EDFA10BD4B
:10309000006400404007002010B50E480E4908604B
:1030A0000620486000210C488160C1604FF4003167
:1030B000016109014161002101760121417681769A
:1030C000C176002101774177FDF750FE08B1FDF789
:1030D000CBFA10BD006800406807002008B500BFAB
:1030E000002000900A48006840F400100849086079
:1030F0000846006800F40010009000BF00BF0022E6
:1031000005210B20FEF74AFC0B20FEF737FC08BD1B
:103110003038024000B595B01C2212490EA8FDF7C8
:10312000E0F800210EA800F0C9FF0F4908601C223A
:103130000C491C3107A8FDF7D4F8002107A800F0BE
:10314000BDFF0A4908601C22064938316846FDF770
:10315000C8F80021684600F0B1FF0549086015B0C5
:1031600000BD0000984F0008040000200800002067
:103170000C00002000B587B0142102A8FDF7CAF8A2
:1031800000BF002001903648006840F00400344938
:1031900008600846006800F00400019000BF00BF0E
:1031A00000BF002001900846006840F080000860E1
:1031B0000846006800F08000019000BF00BF00BF1B
:1031C000002001900846006840F0010008600846B1
:1031D000006800F00100019000BF00BF00BF0020A8
:1031E00001900846006840F0020008600846006848
:1031F00000F00200019000BF00BF00BF002001905E
:103200000846006840F0080008600846006800F0C2
:103210000800019000BF00BF002201211148FEF705
:10322000F3FA00224FF400710F48FEF7EDFA012087
:103230000290039000200490059002A90948FEF72F
:10324000E9F94FF4007002900120039004900320EC
:10325000059002A90448FEF7DDF907B000BD0000A3
:1032600030380240000002400004024010B50E4811
:103270000E4908604FF48270486000210B4881605D
:10328000C160016141614FF4007181610821C16138
:1032900000210162416281620A21C162FFF730F8B8
:1032A00008B1FDF7E1F910BD00380040900700209B
:1032B00010B50A480A490860002048600021084803
:1032C00081604FF6FF71C160002101618161FFF7EC
:1032D00043F908B1FDF7C8F910BD0000001C00401B
:1032E0007808002010B5094809490860292048607D
:1032F000002107488160C821C1600021016181610E
:10330000FFF72AF908B1FDF7AFF910BD0020004022
:10331000C008002000B587B00020039004900590FD
:103320000690019002901548154908606320486096
:1033300000211348816040F24731C16000210161E2
:1033400080218161FFF708F908B1FDF78DF94FF48D
:103350008050039003A90A48FFF7F6F908B1FDF77A
:1033600083F900200190029001A90548FFF79AF81F
:1033700008B1FDF779F907B000BD0000000C00406E
:10338000E80700201CB50020009001900D480E4970
:1033900008600920486000210B4881605321C1600A
:1033A00080218161FFF7D8F808B1FDF75DF90020B1
:1033B0000090019069460448FFF774F808B1FDF7E2
:1033C00053F91CBD001000403008002010B50B4818
:1033D0000B4908604FF4E1304860002108488160E3
:1033E000C16001610C21416100218161C161FFF770
:1033F0001AFD08B1FDF738F910BD0000004C00407F
:103400000809002010B50B480B4908604FF416500E
:103410004860002108488160C16001610C21416160
:1034200000218161C161FFF7FEFC08B1FDF71CF9C5
:1034300010BD0000005000404C09002000BFFEE716
:1034400000BFFEE770B50446072013E0224D2D882B
:1034500005EB450503EB45056D88054105F00105C4
:103460000DB1462500E01E25C0F1070622F81650D2
:10347000451E68B20028E9DA072012E0164D2D88B3
:1034800005EB450533F81550054105F001050DB173
:10349000462500E01E25C0F10F0622F81650451EF5
:1034A00068B20028EADA072013E00B4D2D8805EBFF
:1034B000450503EB4505AD88054105F001050DB156
:1034C000462500E01E25C0F1170622F81650451EBD
:1034D00068B20028E9DA70BD800400202DE9F043CD
:1034E00087B007460C4615461E464FF001084FF0C0
:1034F0000009002003900490019505963846FDF7D9
:10350000F3FA00F0FF0904E03846FDF7EDFA00F0A9
:10351000FF09B9F1000FF7D00123224601A938466F
:10352000FDF7E7F88046B8F1000F03D0022007B09E
:10353000BDE8F0830020FAE770B505460E46012489
:1035400013E004F50070A8420ED1601EC0EBC0006D
:103550000849084431680160B1888180B17981717E
:10356000E0B200F041F870BD641C092CE9DB00BF3B
:10357000F9E70000380A00200146481E014A52F8C7
:1035800020007047700A002010B5014600204A1E36
:10359000C2EBC202134B1A4492780123B3EBE21F31
:1035A00011D14A1EC2EBC2020E4B1A44D3784A1EF6
:1035B000C2EBC2020B4C2244927803EB0222A2F52A
:1035C0007F40FF380DE04A1EC2EBC202054B1A4491
:1035D000D3784A1EC2EBC202024C2244927803EB1B
:1035E000022010BD380A002010B588B00146481EE0
:1035F000C0EBC0021F4B1A445278C0EBC0031D4CF5
:10360000E35C02EB03224DF820205DF820201A4BEA
:1036100053F82030D21AB2F5805F09DB174A52F80E
:103620002020A2F5F852FF3A144B43F8202011E075
:103630005DF82020104B53F82030D21A12F5805F2D
:1036400008DC0E4A52F8202041F6FF731A440B4B57
:1036500043F820205DF82020074B43F82020074A3C
:1036600052F820205DF820301A44054B43F8202002
:1036700008B010BD380A0020B00A0020900A0020CF
:10368000700A002070B505460C46012C3ADB082C68
:1036900038DC002600BF1C48854201DC054604E0FA
:1036A00042F21070854200DB0546042C0BDC4FF41F
:1036B0000076C5F307216000801E144A1154600093
:1036C000401E15540CE040F2FF16201FC4B2C5F393
:1036D00007216000801E0E4A11546000401E1554E0
:1036E000B6F5007F06D1B2B2082308490948FFF7B2
:1036F000F5FE05E0B2B2082305490748FFF7EEFEE4
:10370000002070BD0120FCE7F0D8FFFF2C04002052
:1037100024040020400700206807002070B52DED2C
:10372000068B06460D46681EC4B200EE106AB8EE5F
:10373000C00AA14800EB841080ED000AE8B2FFF750
:1037400023FF00EE100AB8EEC00A9B4800EB84107D
:1037500080ED010A984800EB841090ED020A96482B
:1037600000EB841080ED030A934800EB841090ED89
:10377000000A914800EB8410D0ED010A30EE600A97
:103780008D4800EB841080ED020A8B4800EB84101A
:1037900090ED0E0A10EE101A0846FCF7C6FD41EC3B
:1037A000180B854800EB841090ED020A10EE101AF9
:1037B0000846FCF7BAFD41EC1A0BB0EE4A0AF0EEEF
:1037C0006A0AFCF755FFB0EE409AF0EE609A53ECAF
:1037D000182B51EC190BFCF7BBFD06D29FED770AB5
:1037E000754800EB841080ED020A734800EB8410EA
:1037F00090ED040A704800EB8410D0ED020A30EE20
:10380000200A6D4800EB841080ED040A6A4800EB42
:10381000841090ED040A684800EB8410D0ED0F0A84
:10382000B4EEE00AF1EE10FA05DB634800EB841019
:1038300090ED0F0A1DE0604800EB841090ED040A43
:103840005D4800EB8410D0ED0F0AF1EE600AB4EE93
:10385000E00AF1EE10FA07D8574800EB841090ED1B
:103860000F0AB1EE400A04E0534800EB841090EDDB
:10387000040A514800EB841080ED040A4E4800EB26
:10388000841090ED050A4C4800EB8410D0ED020A3C
:1038900020EE200A484800EB841080ED0A0A4648D2
:1038A00000EB841090ED060A434800EB8410D0ED45
:1038B000040A20EE200A404800EB841080ED0B0A39
:1038C0003D4800EB841090ED020A3B4800EB841069
:1038D000D0ED030A30EE600A374800EB8410D0EDDB
:1038E000070A20EE200A344800EB841080ED0C0A11
:1038F000314800EB841090ED0A0A2F4800EB841049
:10390000D0ED0B0A30EE200A2B4800EB8410D0EDEE
:103910000C0A30EE200A284800EB841080ED0D0AD6
:10392000254800EB8410D0ED0D0A234800EB8410ED
:1039300090ED080AB8EEC00AF4EEC00AF1EE10FAF3
:1039400007DB1D4800EB841090ED080AB8EEC00AB2
:103950001DE0194800EB8410D0ED0D0A164800EB6D
:10396000841090ED090AB8EEC00AF4EEC00AF1EE38
:1039700010FA07D8104800EB841090ED090AB8EE51
:10398000C00A04E00C4800EB841090ED0D0A0A48D0
:1039900000EB841080ED0D0AE9B2074A02EB8412B5
:1039A00092ED0D0ABDEEC00A10EE100AFFF76AFE96
:1039B000BDEC068B70BD000024000020000000005C
:1039C00010B50248FEF7EEFB10BD00009007002086
:1039D00070B50546AC6B0020E087E0862046FEF718
:1039E000DFFB70BD00BF012000F057FBFBE700BF0D
:1039F00006214FF47A70FFF791FE012000F04DFB95
:103A0000F6E700BF012000F048FBFBE710B500BF60
:103A1000502080F31188BFF34F8FBFF36F8F00BF2B
:103A200001F094F918B14FF080500449086000BFCC
:103A3000002080F3118800BF10BD000004ED00E0FD
:103A400000B593B0302107A8FCF764FC142102A84C
:103A5000FCF760FC00BF002001902448006840F0A3
:103A60008050224908600846006800F080500190AC
:103A700000BF00BF00BF002001901D48006840F457
:103A800080401B4908600846006800F480400190AF
:103A900000BF00BF012007900004089002200D9095
:103AA00041050E9119210F914FF4A8711091022137
:103AB00011910421129107A8FEF724F908B1FCF72F
:103AC000D3FD0F20029002200390002004904FF4B9
:103AD000A05005904FF480500690052102A8FDF7F4
:103AE000AFFF08B1FCF7C0FD13B000BD4038024085
:103AF000007000400348006840F47000014908600D
:103B00007047000088ED00E010B50248FEF7A4FE03
:103B100010BD0000F009002010B50248FEF79CFE21
:103B200010BD0000E807002010B50248FEF794FE23
:103B300010BD00003008002010B50268294B9842E3
:103B40000ED0B0F1804F0BD0274B984208D0274BB6
:103B5000984205D0264B984202D0264B984203D17A
:103B600022F070024B681A431E4B984220D0B0F1ED
:103B7000804F1DD01C4B98421AD01C4B984217D036
:103B80001B4B984214D01B4B984211D01A4B9842B1
:103B90000ED01A4B98420BD0194B984208D0194BB3
:103BA000984205D0184B984202D0184B984203D146
:103BB00022F44072CB681A4322F080034C6943EA36
:103BC000040202608B68C3620B688362054B9842F3
:103BD00002D0084B984201D10B6903630123436172
:103BE00010BD00000000014000040040000800403B
:103BF000000C00400004014000400140004401402E
:103C00000048014000180040001C00400020004017
:103C100030B501F01F05012404FA05F3046A9C4342
:103C20000462046A01F01F0502FA05F52C430462E0
:103C300030BD70B50546AC6B606AA84207D1012063
:103C40002077E86918BB012084F83E001FE0A06AD5
:103C5000A84207D102202077E869C0B901213F209E
:103C6000015514E0E06AA84207D104202077E869F2
:103C700068B901214020015509E0206BA84206D116
:103C800008202077E86910B901214120015520461C
:103C9000FEF7AEFE0020207770BD70B50546AC6B18
:103CA000606AA84202D10120207710E0A06AA842F1
:103CB00002D1022020770AE0E06AA84202D1042063
:103CC000207704E0206BA84201D10820207720460D
:103CD000FEF7ECFE0020207770BD70B50546AC6B9A
:103CE000606AA84204D10120207784F83E001DE0DC
:103CF000A06AA84205D10220207701213F2001556A
:103D000014E0E06AA84205D1042020770121402078
:103D100001550BE0206BA84205D108202077012136
:103D20004120015502E0012084F83D002046FEF7C5
:103D300091FD0020207770BD30B50C46816821F4DC
:103D40007F4142EA032525432943816030BD0A466D
:103D5000816821F0700142F00703194381607047C8
:103D600030B50B461446026A056A25F00105056266
:103D7000816921F0F00141EA041122F00A021A439C
:103D80008161026230BD30B50B461446056A25F0EC
:103D9000100505628169026A21F4704141EA04312B
:103DA00022F0A00242EA03128161026230BD0000EB
:103DB0002DE9F84F04462068006920F44050E1687E
:103DC0000843216808612169A068084361690843C4
:103DD000E169084300902068C06849F20C6188439B
:103DE000009908432168C8602068406920F4407049
:103DF000A16908432168486176492068884203D058
:103E000075492068884203D1FDF714FF814602E01E
:103E1000FDF700FF8146E069B0F5004F6CD102204C
:103E20006168A0FB015003461920A9FB0070014600
:103E30002A463846FCF724FA6421B0FBF1F04FEA39
:103E4000001A02206168A0FB01510B461920A9FB52
:103E500000712A463846FCF713FA8346022061684F
:103E6000A0FB015003461920A9FB00712A463846E1
:103E7000FCF706FA6421B0FBF1F000EBC00101EBA6
:103E80000010ABEB8000322101EBC0006421B0FBDD
:103E9000F1F000F0F8000AEB400A02206168A0FB94
:103EA000015003461920A9FB007001462A463846F6
:103EB000FCF7E6F9834602206168A0FB0150034647
:103EC0001920A9FB00712A463846FCF7D9F964216C
:103ED000B0FBF1F000EBC00101EB0010ABEB800098
:103EE000322101EBC0006421B0FBF1F000F00700CB
:103EF0005044216888606AE004206168A0FB01509A
:103F000003461920A9FB007001462A463846FCF7F3
:103F1000B7F9824604206168A0FB015003461920CE
:103F2000A9FB007001462A463846FCF7A9F964212E
:103F3000B0FBF1F000EBC00101EB0010AAEB800038
:103F4000322101EB00106421B0FBF1F000F0F00A27
:103F500004206168A0FB017003461920A9FB0051F1
:103F60003A462846FCF78CF96421B0FBF1F00AEBE5
:103F7000001A04206168A0FB01510B461920A9FB1F
:103F800000712A463846FCF77BF9834604206168B5
:103F9000A0FB015003461920A9FB007001462A46E8
:103FA0003846FCF76DF96421B0FBF1F000EBC0017D
:103FB00001EB0010ABEB8000322101EB001064211B
:103FC000B0FBF1F000F00F00504421688860BDE8BC
:103FD000F88F0000001001400014014000BFFEE710
:103FE00002480068C0F30220704700000CED00E0BA
:103FF00010B5002804DB0A07130E054A135406E027
:104000000A07140E034A00F00F031B1FD45410BDFF
:1040100000E400E018ED00E002E008C8121F08C14B
:10402000002AFAD170477047002001E001C1121F39
:10403000002AFBD170470000FDF7FEFBFFF700FDF3
:10404000FFF798F8FFF74AF8FFF704F8FFF724F8AE
:10405000FFF760F9FFF7D6F9FFF794F9FFF706F9D4
:10406000FFF726F9FFF73EF9FFF7B0F90548FCF72F
:104070001FFA0548FCF71CFAFFF74CF800F019F896
:1040800000BFFEE74007002068070020014600202F
:10409000842901D0CA1C1044704770B504462546D7
:1040A0000DB1294600E00121084600F037FC002050
:1040B00070BD10B500F060FC002010BD7FB5044657
:1040C0000D46606998B1A06988B1B4F90800FFF79E
:1040D000DDFF0646D4E90510CDE9006102902B46CC
:1040E0002269D4E9001000F0D3FD039013E0B4F985
:1040F0000800FFF7CBFF064603A8CDE90060238A3E
:104100009AB22B46D4E9001000F090FD012802D0AD
:10411000002004B070BD0398FBE700002DE9F041DA
:1041200005460E461C4807681C480068001D00F044
:10413000F1FA50B91948006890F82C100120884015
:1041400017490968814316480160681C38B936B1BF
:1041500012480168091D134800F026FB1AE07C197B
:104160000E4800684460BC4207D20C480168091D33
:104170000D48006800F0FEFA0CE008480168091DCF
:104180000A48006800F0F6FA09480068844201D243
:1041900007480460BDE8F0819804002084040020F2
:1041A0009C040020801400208C040020880400203F
:1041B000B404002010B5044600F002FB2348006858
:1041C000401C224908602248006840B92048046029
:1041D0000846006801280DD100F03EF90AE01D48AC
:1041E000006838B91A480068C06AE16A884201D894
:1041F0001748046018480068401C1749086094F884
:104200002C100120884015490968084313490860AB
:10421000E16A01EB8101124A02EB8100211D00F0ED
:10422000C3FA00F0F7FA0B48006868B10848006864
:10423000C06AE16A884207D24FF08050094908609D
:10424000BFF34F8FBFF36F8F10BD000094040020A9
:1042500084040020A0040020B00400209C0400205E
:10426000A413002004ED00E010B516E000F0A8FA59
:104270000C48C068C468201D00F04CFA0A48006869
:10428000401E0949086009480068401E0749086047
:1042900000F0C0FA204600F00BF80448006800283F
:1042A000E4D110BD6C140020940400209004002080
:1042B00010B5044694F8510030B9206B00F0C8FAEC
:1042C000204600F0C5FA1AE094F85100012803D105
:1042D000204600F0BDFA12E094F85100022801D106
:1042E000012000E0002050B900BF502080F3118869
:1042F000BFF34F8FBFF36F8F00BF00BFFEE710BD4E
:1043000030B54FF47053174800F007042CB1C01DAE
:1043100020F00700134C041B1B1B0246124C2260AA
:104320000024114D6C60D018083820F007000F4CA5
:10433000206000240D4D2D686C600C4D2D682C60A4
:104340001146441A4C60094C24680C60084D4C68B6
:104350002C60084D4C682C604FF00044064D2C60DA
:1043600030BD000094140020C0040020C8040020C8
:10437000D0040020CC040020DC04002000BFFFF7A4
:1043800073FF064800680128F9D94FF080500449AE
:104390000860BFF34F8FBFF36F8FF0E7A4130020C7
:1043A00004ED00E02DE9FF5F81460E469246DDE90F
:1043B0000E7B109CAAF10100216B01EB800828F014
:1043C000070808F0070008B9012000E0002050B9F4
:1043D00000BF502080F31188BFF34F8FBFF36F8F62
:1043E00000BF00BFFEE786B1002507E0715D04F164
:1043F00034004155705D00B902E06D1C102DF5D3FD
:1044000000BF00214320015502E0002084F8340061
:10441000072F00D30627E76267640020A064201DF1
:1044200000F0A5F904F1180000F0A1F92461C7F12A
:104430000700A06164620020E06484F850004946EF
:104440004046039A00F050F92060BBF1000F01D004
:10445000CBF80040BDE8FF9F10B5002407E004EB57
:1044600084010F4A02EB810000F074F9641C072CF0
:10447000F5D30C4800F06EF90B4800F06BF90B48CF
:1044800000F068F90A4800F065F90A4800F062F99E
:1044900004480949086004480849086010BD000044
:1044A000A4130020301400204414002058140020CD
:1044B0006C14002080140020880400208C0400204C
:1044C00010B50146164800E0006803688B42FBD334
:1044D0000246436813448B4204D143684C6823442A
:1044E000436001460A464B6813440468A34211D155
:1044F0000C4C03682468A34208D04B6804686468C5
:1045000023444B6003681B680B6005E0054B1B6888
:104510000B6001E003680B60884200D0016010BDB1
:10452000C0040020C80400200A490968096809B9C4
:10453000012100E0002121B14FF0FF31064A116056
:1045400006E004490968C968C868034A41681160FF
:104550007047000088040020B40400200E48006862
:10456000401C08B9012000E0002050B900BF5020D5
:1045700080F31188BFF34F8FBFF36F8F00BF00BF71
:10458000FEE700BF502080F31188BFF34F8FBFF3C9
:104590006F8F00BF00BFFEE7E00400202DE9F0416F
:1045A00004464FF0000800F03FFA4948006808B997
:1045B000FFF7A6FE474800682040002870D1D4B11C
:1045C000083404F00700B0B104F00700C0F108009F
:1045D000044404F0070008B9012000E0002050B9AD
:1045E00000BF502080F31188BFF34F8FBFF36F8F50
:1045F00000BF00BFFEE7002C52D03748006884425D
:104600004ED8364E3046056801E02E462D68686863
:10461000A04202D228680028F7D12D4800688542C0
:104620003ED0306800F10808286830606868001BD8
:10463000102819D92F1907F0070008B9012000E048
:10464000002050B900BF502080F31188BFF34F8F76
:10465000BFF36F8F00BF00BFFEE76868001B786084
:104660006C603846FFF72CFF1B4968680968081A18
:10467000194908600846006819490968884203D248
:1046800015480068164908601249686809680843B7
:1046900068600020286013480068401C11490860C9
:1046A00000F0F8FB08F0070008B9012000E0002046
:1046B00050B900BF502080F31188BFF34F8FBFF374
:1046C0006F8F00BF00BFFEE74046BDE8F0810000ED
:1046D000C8040020DC040020CC040020C00400201A
:1046E000D0040020D4040020001F4FF0807303602A
:1046F000001F21F001030360001F054B0360143805
:104700000260001F6FF00203036020387047000052
:104710005D45000801460A69D1E901309860D1E998
:10472000010358605068884201D1886850600020B9
:1047300008611068401E106010687047034B0360EA
:10474000034B0B608023136070470000EC040020D3
:104750004005002000F1080141604FF0FF31816009
:1047600000F10801C1600161002101607047002172
:104770000161704710B502460B685C1C0CB91069EA
:1047800007E002F1080000E04068446824689C42A9
:10479000FAD944684C604C68A160886041600A6145
:1047A0001468641C146010BD42684A6093688B6092
:1047B000936859609160086103685B1C03607047EF
:1047C00000BF502080F31188BFF34F8FBFF36F8F6E
:1047D00000BF0E480068401C0C490860084600688D
:1047E000012812D10A480068C0B208B9012000E0CF
:1047F000002050B900BF502080F31188BFF34F8FC5
:10480000BFF36F8F00BF00BFFEE77047E0040020DA
:1048100004ED00E00D48006850B900BF502080F35F
:104820001188BFF34F8FBFF36F8F00BF00BFFEE74C
:1048300006480068401E054908600846006820B91F
:10484000002080F3118800BF00BF7047E004002003
:1048500070B506463546002E44D0083D2C46224908
:1048600060680968084008B1012000E0002050B9E4
:1048700000BF502080F31188BFF34F8FBFF36F8FBD
:1048800000BF00BFFEE7206808B9012000E000205B
:1048900050B900BF502080F31188BFF34F8FBFF392
:1048A0006F8F00BF00BFFEE70F49606809680840CE
:1048B000C0B12068B0B90C4960680968884360607D
:1048C00000F0B2F8094960680968084407490860BF
:1048D0002046FFF7F5FD06480068401C04490860C3
:1048E00000F0D8FA70BD0000DC040020CC040020E9
:1048F000D804002000204FF0E021086188610648BC
:1049000000684FF47A71B0FBF1F0401E4FF0E021E7
:1049100048610720086170472000002070B50446F8
:104920000025D4B11248006808B9012000E0002039
:1049300050B900BF502080F31188BFF34F8FBFF3F1
:104940006F8F00BF00BFFEE700F06EF80021204629
:10495000FFF7E4FB00F09EFA05463DB94FF08050AA
:1049600004490860BFF34F8FBFF36F8F70BD000025
:10497000BC04002004ED00E010B586B000200590D6
:10498000049003AA04A905A8FFF7D8FE0022DDE9D8
:1049900004101346CDE9002102901CA11D48039A82
:1049A00000F076F91C4908600846006808B1012447
:1049B00000E00024012C15D100BF502080F31188A5
:1049C000BFF34F8FBFF36F8F00BF4FF0FF3013491E
:1049D000086001201249086000201249086000F0B8
:1049E00071F810E0601C08B1012000E0002050B90F
:1049F00000BF502080F31188BFF34F8FBFF36F8F3C
:104A000000BF00BFFEE706B010BD000049444C45A2
:104A1000000000007D430008B8040020B40400201A
:104A2000A00400209804002002480068401C0149AE
:104A300008607047BC0400201D48006818B10120C0
:104A40001C49086032E000201A4908601A480068D2
:104A5000B0FA80F0C0F11F0101EB8100174A52F853
:104A6000200008B1012000E0002050B900BF502014
:104A700080F31188BFF34F8FBFF36F8F00BF00BF6C
:104A8000FEE701EB81020D4B03EB820042685268A6
:104A9000426000F108024368934202D142685268C2
:104AA00042604268D268064B1A6000BF704700003F
:104AB000BC040020A80400209C040020A4130020B3
:104AC000840400201CB5524800685249884201D035
:104AD000012000E0002050B900BF502080F3118871
:104AE000BFF34F8FBFF36F8F00BF00BFFEE7484893
:104AF00000684849491E884201D0012000E000209A
:104B000050B900BF502080F31188BFF34F8FBFF31F
:104B10006F8F00BF00BFFEE73F4908460078019055
:104B2000FF200A4610700846007800909DF80000AB
:104B300000F0F0009DF80020904201D1012000E03B
:104B4000002050B900BF502080F31188BFF34F8F71
:104B5000BFF36F8F00BF00BFFEE79DF8000000F0BD
:104B600050002E4A107007202D4A106009E02C4892
:104B70000068401E2A4A10609DF800004006000EA2
:104B800000909DF8000000F080008028EFD02448BD
:104B90000068C0F10700042801D1012000E00020D6
:104BA00050B900BF502080F31188BFF34F8FBFF37F
:104BB0006F8F00BF00BFFEE7194800680002184A67
:104BC00010601046008800F4E0601060124A0198FE
:104BD00010700F482030006840F470000C492031FC
:104BE00008600846006840F070400860FFF782FEE9
:104BF00000200C490860FBF7F5FA0B48006840F00C
:104C0000404009490860FBF7D9FA00201CBD0000AC
:104C100000ED00E071C20F4100E400E0E404002078
:104C2000E8040020E004002034EF00E02DE9FF4F0D
:104C300085B0804689461746DDE912ABB800FFF71C
:104C4000ADFC064656B15420FFF7A8FC04460CB153
:104C5000266304E03046FFF7FBFD00E000248CB142
:104C6000002084F85100CDE900ABCDE902403A467E
:104C700049464046089BFFF795FB2046FFF79AFA06
:104C8000012501E04FF0FF35284609B0BDE8F08F5F
:104C90002DE9F04F85B00746884691469A46DDE9F2
:104CA0000EB6109C0EB1012000E0002050B900BFEC
:104CB000502080F31188BFF34F8FBFF36F8F00BF79
:104CC00000BFFEE70CB1012000E0002050B900BF9A
:104CD000502080F31188BFF34F8FBFF36F8F00BF59
:104CE00000BFFEE7542003900398542801D101200F
:104CF00000E0002050B900BF502080F31188BFF3BE
:104D00004F8FBFF36F8F00BF00BFFEE700BFB4B18E
:104D1000AEB125462C462E63022085F851000020B6
:104D200004A953464A46CDE900B1CDE902504146B7
:104D30003846FFF737FB2846FFF73CFA01E0002032
:104D40000490049805B0BDE8F08F00002DE9F04113
:104D50004FF000084448006800287CD143480068B0
:104D6000451C4248056015BB41480068006808B909
:104D7000012000E0002050B900BF502080F31188CE
:104D8000BFF34F8FBFF36F8F00BF00BFFEE7384800
:104D90000768384800683649086036480760364872
:104DA0000068401C34490860FFF7BEFB00BF334871
:104DB000006885423CD300BF2D480068006808B9F0
:104DC000012000E0002020B14FF0FF302B490860A7
:104DD0002DE027480068C068C4686668B54202D202
:104DE0002648066023E0201DFFF794FCA06A18B156
:104DF00004F11800FFF78EFC94F82C100120884075
:104E00001F49096808431E490860E16A01EB8101F6
:104E10001C4A02EB8100211DFFF7C6FC1A49E06A1B
:104E20000968C96A8842C7D34FF00108C4E700BFC8
:104E300015480068C06A00EB8000124951F8200054
:104E4000012801D94FF001081048006808B14FF05F
:104E5000010805E0FFE70E480068401C0C490860A7
:104E60004046BDE8F0810000BC040020980400200A
:104E7000880400208C040020AC040020B40400202E
:104E80009C040020A413002084040020A804002017
:104E9000A404002070B5002400263648006850B9EC
:104EA00000BF502080F31188BFF34F8FBFF36F8F87
:104EB00000BF00BFFEE7FFF783FC2E480068401EDE
:104EC0002C4908600846006800284FD12A4800682D
:104ED00000284BD024E02948C068C46804F11800B9
:104EE000FFF718FC201DFFF715FC94F82C1001208B
:104EF000884023490968084321490860E16A01EBB9
:104F00008101204A02EB8100211DFFF74DFC1E4963
:104F1000E06A0968C96A884202D301201B49086017
:104F20001648006808B9012000E000200028D2D00F
:104F30000CB1FFF7F9FA1648056865B100BFFFF735
:104F400005FF10B10120114908606D1E002DF6D13A
:104F500000200F4908600D48006838B1012630076D
:104F60000C490860BFF34F8FBFF36F8FFFF752FC00
:104F7000304670BDBC04002094040020581400206A
:104F80009C040020A413002084040020A804002016
:104F9000A404002004ED00E024500008E5390008D6
:104FA0000000000000000000800000000000000081
:104FB000000000000C500008EF390008020000005B
:104FC0000000000080000000000000000000000061
:104FD00018500008033A000800000000000000001C
:104FE0008000000000000000000000000006101615
:104FF000000610160000000000000000010203047B
:105000000607080900000000010203046D795461DD
:10501000736B3032000000006D795461736B303374
:105020000000000064656661756C745461736B0008
:105030005050000800000020EC0400001404000898
:1050400024510008EC040020AC4F00002840000868
:10505000011832104201031524F4200F3333CD41DF
:10506000C3F5283F295C8F3D803E051280C1FFFFBC
:1050700023204103147A44080C336666C24133335B
:10508000333FEC51B840211ACC1C110D333FCDCC2D
:10509000CC40080C359A999B419A99993E0AD7A31E
:1050A00080112980512310270B36F0D8400B3C404B
:1050B000414019BC093DC009324018098FC2F53D75
:1050C0006F12833B04243AB0360B1250C94013C808
:1050D000420414409C462CAE47E140423A09364017
:1050E00019B60A1C3F4031093B800918401CCDCC41
:1050F000CC80610932C00D3A0AD7233E8031263F69
:105100000AD7A33B0B182041400B184843C04B4C17
:105110004040091A800B19FA448001440260011AC8
:04512000AA0181005F
:040000050800018965
:00000001FF
